{
  "contracts/DappletRegistry.sol": {
    "DappletRegistry": {
      "abi": [
        {
          "inputs": [],
          "stateMutability": "nonpayable",
          "type": "constructor"
        },
        {
          "anonymous": false,
          "inputs": [
            {
              "indexed": false,
              "internalType": "string[]",
              "name": "contextIds",
              "type": "string[]"
            },
            {
              "indexed": false,
              "internalType": "address",
              "name": "owner",
              "type": "address"
            },
            {
              "indexed": false,
              "internalType": "uint32",
              "name": "moduleIndex",
              "type": "uint32"
            }
          ],
          "name": "ModuleInfoAdded",
          "type": "event"
        },
        {
          "inputs": [
            {
              "internalType": "string",
              "name": "mod_name",
              "type": "string"
            },
            {
              "internalType": "string",
              "name": "contextId",
              "type": "string"
            }
          ],
          "name": "addContextId",
          "outputs": [],
          "stateMutability": "nonpayable",
          "type": "function"
        },
        {
          "inputs": [
            {
              "internalType": "string[]",
              "name": "contextIds",
              "type": "string[]"
            },
            {
              "components": [
                {
                  "internalType": "uint8",
                  "name": "moduleType",
                  "type": "uint8"
                },
                {
                  "internalType": "string",
                  "name": "name",
                  "type": "string"
                },
                {
                  "internalType": "string",
                  "name": "title",
                  "type": "string"
                },
                {
                  "internalType": "string",
                  "name": "description",
                  "type": "string"
                },
                {
                  "components": [
                    {
                      "internalType": "bytes32",
                      "name": "hash",
                      "type": "bytes32"
                    },
                    {
                      "internalType": "bytes[]",
                      "name": "uris",
                      "type": "bytes[]"
                    }
                  ],
                  "internalType": "struct DappletRegistry.StorageRef",
                  "name": "icon",
                  "type": "tuple"
                },
                {
                  "internalType": "address",
                  "name": "owner",
                  "type": "address"
                },
                {
                  "internalType": "string[]",
                  "name": "interfaces",
                  "type": "string[]"
                },
                {
                  "internalType": "uint256",
                  "name": "flags",
                  "type": "uint256"
                }
              ],
              "internalType": "struct DappletRegistry.ModuleInfo",
              "name": "mInfo",
              "type": "tuple"
            },
            {
              "components": [
                {
                  "internalType": "string",
                  "name": "branch",
                  "type": "string"
                },
                {
                  "internalType": "uint8",
                  "name": "major",
                  "type": "uint8"
                },
                {
                  "internalType": "uint8",
                  "name": "minor",
                  "type": "uint8"
                },
                {
                  "internalType": "uint8",
                  "name": "patch",
                  "type": "uint8"
                },
                {
                  "components": [
                    {
                      "internalType": "bytes32",
                      "name": "hash",
                      "type": "bytes32"
                    },
                    {
                      "internalType": "bytes[]",
                      "name": "uris",
                      "type": "bytes[]"
                    }
                  ],
                  "internalType": "struct DappletRegistry.StorageRef",
                  "name": "binary",
                  "type": "tuple"
                },
                {
                  "components": [
                    {
                      "internalType": "string",
                      "name": "name",
                      "type": "string"
                    },
                    {
                      "internalType": "string",
                      "name": "branch",
                      "type": "string"
                    },
                    {
                      "internalType": "uint8",
                      "name": "major",
                      "type": "uint8"
                    },
                    {
                      "internalType": "uint8",
                      "name": "minor",
                      "type": "uint8"
                    },
                    {
                      "internalType": "uint8",
                      "name": "patch",
                      "type": "uint8"
                    }
                  ],
                  "internalType": "struct DappletRegistry.DependencyDto[]",
                  "name": "dependencies",
                  "type": "tuple[]"
                },
                {
                  "components": [
                    {
                      "internalType": "string",
                      "name": "name",
                      "type": "string"
                    },
                    {
                      "internalType": "string",
                      "name": "branch",
                      "type": "string"
                    },
                    {
                      "internalType": "uint8",
                      "name": "major",
                      "type": "uint8"
                    },
                    {
                      "internalType": "uint8",
                      "name": "minor",
                      "type": "uint8"
                    },
                    {
                      "internalType": "uint8",
                      "name": "patch",
                      "type": "uint8"
                    }
                  ],
                  "internalType": "struct DappletRegistry.DependencyDto[]",
                  "name": "interfaces",
                  "type": "tuple[]"
                },
                {
                  "internalType": "uint8",
                  "name": "flags",
                  "type": "uint8"
                }
              ],
              "internalType": "struct DappletRegistry.VersionInfoDto[]",
              "name": "vInfos",
              "type": "tuple[]"
            }
          ],
          "name": "addModuleInfo",
          "outputs": [],
          "stateMutability": "nonpayable",
          "type": "function"
        },
        {
          "inputs": [
            {
              "internalType": "string",
              "name": "mod_name",
              "type": "string"
            },
            {
              "components": [
                {
                  "internalType": "string",
                  "name": "branch",
                  "type": "string"
                },
                {
                  "internalType": "uint8",
                  "name": "major",
                  "type": "uint8"
                },
                {
                  "internalType": "uint8",
                  "name": "minor",
                  "type": "uint8"
                },
                {
                  "internalType": "uint8",
                  "name": "patch",
                  "type": "uint8"
                },
                {
                  "components": [
                    {
                      "internalType": "bytes32",
                      "name": "hash",
                      "type": "bytes32"
                    },
                    {
                      "internalType": "bytes[]",
                      "name": "uris",
                      "type": "bytes[]"
                    }
                  ],
                  "internalType": "struct DappletRegistry.StorageRef",
                  "name": "binary",
                  "type": "tuple"
                },
                {
                  "components": [
                    {
                      "internalType": "string",
                      "name": "name",
                      "type": "string"
                    },
                    {
                      "internalType": "string",
                      "name": "branch",
                      "type": "string"
                    },
                    {
                      "internalType": "uint8",
                      "name": "major",
                      "type": "uint8"
                    },
                    {
                      "internalType": "uint8",
                      "name": "minor",
                      "type": "uint8"
                    },
                    {
                      "internalType": "uint8",
                      "name": "patch",
                      "type": "uint8"
                    }
                  ],
                  "internalType": "struct DappletRegistry.DependencyDto[]",
                  "name": "dependencies",
                  "type": "tuple[]"
                },
                {
                  "components": [
                    {
                      "internalType": "string",
                      "name": "name",
                      "type": "string"
                    },
                    {
                      "internalType": "string",
                      "name": "branch",
                      "type": "string"
                    },
                    {
                      "internalType": "uint8",
                      "name": "major",
                      "type": "uint8"
                    },
                    {
                      "internalType": "uint8",
                      "name": "minor",
                      "type": "uint8"
                    },
                    {
                      "internalType": "uint8",
                      "name": "patch",
                      "type": "uint8"
                    }
                  ],
                  "internalType": "struct DappletRegistry.DependencyDto[]",
                  "name": "interfaces",
                  "type": "tuple[]"
                },
                {
                  "internalType": "uint8",
                  "name": "flags",
                  "type": "uint8"
                }
              ],
              "internalType": "struct DappletRegistry.VersionInfoDto",
              "name": "vInfo",
              "type": "tuple"
            }
          ],
          "name": "addModuleVersion",
          "outputs": [],
          "stateMutability": "nonpayable",
          "type": "function"
        },
        {
          "inputs": [
            {
              "internalType": "string[]",
              "name": "mod_name",
              "type": "string[]"
            },
            {
              "components": [
                {
                  "internalType": "string",
                  "name": "branch",
                  "type": "string"
                },
                {
                  "internalType": "uint8",
                  "name": "major",
                  "type": "uint8"
                },
                {
                  "internalType": "uint8",
                  "name": "minor",
                  "type": "uint8"
                },
                {
                  "internalType": "uint8",
                  "name": "patch",
                  "type": "uint8"
                },
                {
                  "components": [
                    {
                      "internalType": "bytes32",
                      "name": "hash",
                      "type": "bytes32"
                    },
                    {
                      "internalType": "bytes[]",
                      "name": "uris",
                      "type": "bytes[]"
                    }
                  ],
                  "internalType": "struct DappletRegistry.StorageRef",
                  "name": "binary",
                  "type": "tuple"
                },
                {
                  "components": [
                    {
                      "internalType": "string",
                      "name": "name",
                      "type": "string"
                    },
                    {
                      "internalType": "string",
                      "name": "branch",
                      "type": "string"
                    },
                    {
                      "internalType": "uint8",
                      "name": "major",
                      "type": "uint8"
                    },
                    {
                      "internalType": "uint8",
                      "name": "minor",
                      "type": "uint8"
                    },
                    {
                      "internalType": "uint8",
                      "name": "patch",
                      "type": "uint8"
                    }
                  ],
                  "internalType": "struct DappletRegistry.DependencyDto[]",
                  "name": "dependencies",
                  "type": "tuple[]"
                },
                {
                  "components": [
                    {
                      "internalType": "string",
                      "name": "name",
                      "type": "string"
                    },
                    {
                      "internalType": "string",
                      "name": "branch",
                      "type": "string"
                    },
                    {
                      "internalType": "uint8",
                      "name": "major",
                      "type": "uint8"
                    },
                    {
                      "internalType": "uint8",
                      "name": "minor",
                      "type": "uint8"
                    },
                    {
                      "internalType": "uint8",
                      "name": "patch",
                      "type": "uint8"
                    }
                  ],
                  "internalType": "struct DappletRegistry.DependencyDto[]",
                  "name": "interfaces",
                  "type": "tuple[]"
                },
                {
                  "internalType": "uint8",
                  "name": "flags",
                  "type": "uint8"
                }
              ],
              "internalType": "struct DappletRegistry.VersionInfoDto[]",
              "name": "vInfo",
              "type": "tuple[]"
            }
          ],
          "name": "addModuleVersionBatch",
          "outputs": [],
          "stateMutability": "nonpayable",
          "type": "function"
        },
        {
          "inputs": [
            {
              "internalType": "uint32",
              "name": "moduleIdx",
              "type": "uint32"
            },
            {
              "internalType": "string",
              "name": "title",
              "type": "string"
            },
            {
              "internalType": "string",
              "name": "description",
              "type": "string"
            },
            {
              "components": [
                {
                  "internalType": "bytes32",
                  "name": "hash",
                  "type": "bytes32"
                },
                {
                  "internalType": "bytes[]",
                  "name": "uris",
                  "type": "bytes[]"
                }
              ],
              "internalType": "struct DappletRegistry.StorageRef",
              "name": "icon",
              "type": "tuple"
            }
          ],
          "name": "editModuleInfo",
          "outputs": [],
          "stateMutability": "nonpayable",
          "type": "function"
        },
        {
          "inputs": [
            {
              "internalType": "string",
              "name": "ctxId",
              "type": "string"
            },
            {
              "internalType": "address[]",
              "name": "users",
              "type": "address[]"
            },
            {
              "internalType": "uint32",
              "name": "maxBufLen",
              "type": "uint32"
            }
          ],
          "name": "getModuleInfo",
          "outputs": [
            {
              "components": [
                {
                  "internalType": "uint8",
                  "name": "moduleType",
                  "type": "uint8"
                },
                {
                  "internalType": "string",
                  "name": "name",
                  "type": "string"
                },
                {
                  "internalType": "string",
                  "name": "title",
                  "type": "string"
                },
                {
                  "internalType": "string",
                  "name": "description",
                  "type": "string"
                },
                {
                  "components": [
                    {
                      "internalType": "bytes32",
                      "name": "hash",
                      "type": "bytes32"
                    },
                    {
                      "internalType": "bytes[]",
                      "name": "uris",
                      "type": "bytes[]"
                    }
                  ],
                  "internalType": "struct DappletRegistry.StorageRef",
                  "name": "icon",
                  "type": "tuple"
                },
                {
                  "internalType": "address",
                  "name": "owner",
                  "type": "address"
                },
                {
                  "internalType": "string[]",
                  "name": "interfaces",
                  "type": "string[]"
                },
                {
                  "internalType": "uint256",
                  "name": "flags",
                  "type": "uint256"
                }
              ],
              "internalType": "struct DappletRegistry.ModuleInfo[]",
              "name": "mod_info",
              "type": "tuple[]"
            }
          ],
          "stateMutability": "view",
          "type": "function"
        },
        {
          "inputs": [
            {
              "internalType": "string[]",
              "name": "ctxIds",
              "type": "string[]"
            },
            {
              "internalType": "address[]",
              "name": "users",
              "type": "address[]"
            },
            {
              "internalType": "uint32",
              "name": "maxBufLen",
              "type": "uint32"
            }
          ],
          "name": "getModuleInfoBatch",
          "outputs": [
            {
              "components": [
                {
                  "internalType": "uint8",
                  "name": "moduleType",
                  "type": "uint8"
                },
                {
                  "internalType": "string",
                  "name": "name",
                  "type": "string"
                },
                {
                  "internalType": "string",
                  "name": "title",
                  "type": "string"
                },
                {
                  "internalType": "string",
                  "name": "description",
                  "type": "string"
                },
                {
                  "components": [
                    {
                      "internalType": "bytes32",
                      "name": "hash",
                      "type": "bytes32"
                    },
                    {
                      "internalType": "bytes[]",
                      "name": "uris",
                      "type": "bytes[]"
                    }
                  ],
                  "internalType": "struct DappletRegistry.StorageRef",
                  "name": "icon",
                  "type": "tuple"
                },
                {
                  "internalType": "address",
                  "name": "owner",
                  "type": "address"
                },
                {
                  "internalType": "string[]",
                  "name": "interfaces",
                  "type": "string[]"
                },
                {
                  "internalType": "uint256",
                  "name": "flags",
                  "type": "uint256"
                }
              ],
              "internalType": "struct DappletRegistry.ModuleInfo[][]",
              "name": "mod_info",
              "type": "tuple[][]"
            }
          ],
          "stateMutability": "view",
          "type": "function"
        },
        {
          "inputs": [
            {
              "internalType": "string",
              "name": "mod_name",
              "type": "string"
            }
          ],
          "name": "getModuleInfoByName",
          "outputs": [
            {
              "components": [
                {
                  "internalType": "uint8",
                  "name": "moduleType",
                  "type": "uint8"
                },
                {
                  "internalType": "string",
                  "name": "name",
                  "type": "string"
                },
                {
                  "internalType": "string",
                  "name": "title",
                  "type": "string"
                },
                {
                  "internalType": "string",
                  "name": "description",
                  "type": "string"
                },
                {
                  "components": [
                    {
                      "internalType": "bytes32",
                      "name": "hash",
                      "type": "bytes32"
                    },
                    {
                      "internalType": "bytes[]",
                      "name": "uris",
                      "type": "bytes[]"
                    }
                  ],
                  "internalType": "struct DappletRegistry.StorageRef",
                  "name": "icon",
                  "type": "tuple"
                },
                {
                  "internalType": "address",
                  "name": "owner",
                  "type": "address"
                },
                {
                  "internalType": "string[]",
                  "name": "interfaces",
                  "type": "string[]"
                },
                {
                  "internalType": "uint256",
                  "name": "flags",
                  "type": "uint256"
                }
              ],
              "internalType": "struct DappletRegistry.ModuleInfo",
              "name": "",
              "type": "tuple"
            }
          ],
          "stateMutability": "view",
          "type": "function"
        },
        {
          "inputs": [
            {
              "internalType": "address",
              "name": "userId",
              "type": "address"
            }
          ],
          "name": "getModuleInfoByOwner",
          "outputs": [
            {
              "components": [
                {
                  "internalType": "uint8",
                  "name": "moduleType",
                  "type": "uint8"
                },
                {
                  "internalType": "string",
                  "name": "name",
                  "type": "string"
                },
                {
                  "internalType": "string",
                  "name": "title",
                  "type": "string"
                },
                {
                  "internalType": "string",
                  "name": "description",
                  "type": "string"
                },
                {
                  "components": [
                    {
                      "internalType": "bytes32",
                      "name": "hash",
                      "type": "bytes32"
                    },
                    {
                      "internalType": "bytes[]",
                      "name": "uris",
                      "type": "bytes[]"
                    }
                  ],
                  "internalType": "struct DappletRegistry.StorageRef",
                  "name": "icon",
                  "type": "tuple"
                },
                {
                  "internalType": "address",
                  "name": "owner",
                  "type": "address"
                },
                {
                  "internalType": "string[]",
                  "name": "interfaces",
                  "type": "string[]"
                },
                {
                  "internalType": "uint256",
                  "name": "flags",
                  "type": "uint256"
                }
              ],
              "internalType": "struct DappletRegistry.ModuleInfo[]",
              "name": "mods",
              "type": "tuple[]"
            }
          ],
          "stateMutability": "view",
          "type": "function"
        },
        {
          "inputs": [
            {
              "internalType": "string",
              "name": "name",
              "type": "string"
            },
            {
              "internalType": "string",
              "name": "branch",
              "type": "string"
            },
            {
              "internalType": "uint8",
              "name": "major",
              "type": "uint8"
            },
            {
              "internalType": "uint8",
              "name": "minor",
              "type": "uint8"
            },
            {
              "internalType": "uint8",
              "name": "patch",
              "type": "uint8"
            }
          ],
          "name": "getVersionInfo",
          "outputs": [
            {
              "components": [
                {
                  "internalType": "string",
                  "name": "branch",
                  "type": "string"
                },
                {
                  "internalType": "uint8",
                  "name": "major",
                  "type": "uint8"
                },
                {
                  "internalType": "uint8",
                  "name": "minor",
                  "type": "uint8"
                },
                {
                  "internalType": "uint8",
                  "name": "patch",
                  "type": "uint8"
                },
                {
                  "components": [
                    {
                      "internalType": "bytes32",
                      "name": "hash",
                      "type": "bytes32"
                    },
                    {
                      "internalType": "bytes[]",
                      "name": "uris",
                      "type": "bytes[]"
                    }
                  ],
                  "internalType": "struct DappletRegistry.StorageRef",
                  "name": "binary",
                  "type": "tuple"
                },
                {
                  "components": [
                    {
                      "internalType": "string",
                      "name": "name",
                      "type": "string"
                    },
                    {
                      "internalType": "string",
                      "name": "branch",
                      "type": "string"
                    },
                    {
                      "internalType": "uint8",
                      "name": "major",
                      "type": "uint8"
                    },
                    {
                      "internalType": "uint8",
                      "name": "minor",
                      "type": "uint8"
                    },
                    {
                      "internalType": "uint8",
                      "name": "patch",
                      "type": "uint8"
                    }
                  ],
                  "internalType": "struct DappletRegistry.DependencyDto[]",
                  "name": "dependencies",
                  "type": "tuple[]"
                },
                {
                  "components": [
                    {
                      "internalType": "string",
                      "name": "name",
                      "type": "string"
                    },
                    {
                      "internalType": "string",
                      "name": "branch",
                      "type": "string"
                    },
                    {
                      "internalType": "uint8",
                      "name": "major",
                      "type": "uint8"
                    },
                    {
                      "internalType": "uint8",
                      "name": "minor",
                      "type": "uint8"
                    },
                    {
                      "internalType": "uint8",
                      "name": "patch",
                      "type": "uint8"
                    }
                  ],
                  "internalType": "struct DappletRegistry.DependencyDto[]",
                  "name": "interfaces",
                  "type": "tuple[]"
                },
                {
                  "internalType": "uint8",
                  "name": "flags",
                  "type": "uint8"
                }
              ],
              "internalType": "struct DappletRegistry.VersionInfoDto",
              "name": "dto",
              "type": "tuple"
            },
            {
              "internalType": "uint8",
              "name": "moduleType",
              "type": "uint8"
            }
          ],
          "stateMutability": "view",
          "type": "function"
        },
        {
          "inputs": [
            {
              "internalType": "string",
              "name": "name",
              "type": "string"
            },
            {
              "internalType": "string",
              "name": "branch",
              "type": "string"
            }
          ],
          "name": "getVersionNumbers",
          "outputs": [
            {
              "internalType": "bytes",
              "name": "",
              "type": "bytes"
            }
          ],
          "stateMutability": "view",
          "type": "function"
        },
        {
          "inputs": [
            {
              "internalType": "bytes32",
              "name": "",
              "type": "bytes32"
            },
            {
              "internalType": "uint256",
              "name": "",
              "type": "uint256"
            }
          ],
          "name": "modsByContextType",
          "outputs": [
            {
              "internalType": "uint32",
              "name": "",
              "type": "uint32"
            }
          ],
          "stateMutability": "view",
          "type": "function"
        },
        {
          "inputs": [
            {
              "internalType": "address",
              "name": "",
              "type": "address"
            },
            {
              "internalType": "uint256",
              "name": "",
              "type": "uint256"
            }
          ],
          "name": "modsByOwner",
          "outputs": [
            {
              "internalType": "uint32",
              "name": "",
              "type": "uint32"
            }
          ],
          "stateMutability": "view",
          "type": "function"
        },
        {
          "inputs": [
            {
              "internalType": "bytes32",
              "name": "",
              "type": "bytes32"
            }
          ],
          "name": "moduleIdxs",
          "outputs": [
            {
              "internalType": "uint32",
              "name": "",
              "type": "uint32"
            }
          ],
          "stateMutability": "view",
          "type": "function"
        },
        {
          "inputs": [
            {
              "internalType": "uint256",
              "name": "",
              "type": "uint256"
            }
          ],
          "name": "modules",
          "outputs": [
            {
              "internalType": "uint8",
              "name": "moduleType",
              "type": "uint8"
            },
            {
              "internalType": "string",
              "name": "name",
              "type": "string"
            },
            {
              "internalType": "string",
              "name": "title",
              "type": "string"
            },
            {
              "internalType": "string",
              "name": "description",
              "type": "string"
            },
            {
              "components": [
                {
                  "internalType": "bytes32",
                  "name": "hash",
                  "type": "bytes32"
                },
                {
                  "internalType": "bytes[]",
                  "name": "uris",
                  "type": "bytes[]"
                }
              ],
              "internalType": "struct DappletRegistry.StorageRef",
              "name": "icon",
              "type": "tuple"
            },
            {
              "internalType": "address",
              "name": "owner",
              "type": "address"
            },
            {
              "internalType": "uint256",
              "name": "flags",
              "type": "uint256"
            }
          ],
          "stateMutability": "view",
          "type": "function"
        },
        {
          "inputs": [
            {
              "internalType": "string",
              "name": "mod_name",
              "type": "string"
            },
            {
              "internalType": "string",
              "name": "contextId",
              "type": "string"
            }
          ],
          "name": "removeContextId",
          "outputs": [],
          "stateMutability": "nonpayable",
          "type": "function"
        },
        {
          "inputs": [
            {
              "internalType": "string",
              "name": "mod_name",
              "type": "string"
            },
            {
              "internalType": "address",
              "name": "newUserId",
              "type": "address"
            },
            {
              "internalType": "uint256",
              "name": "oldOwnerArrIdx",
              "type": "uint256"
            }
          ],
          "name": "transferOwnership",
          "outputs": [],
          "stateMutability": "nonpayable",
          "type": "function"
        },
        {
          "inputs": [
            {
              "internalType": "bytes32",
              "name": "",
              "type": "bytes32"
            }
          ],
          "name": "versionNumbers",
          "outputs": [
            {
              "internalType": "bytes",
              "name": "",
              "type": "bytes"
            }
          ],
          "stateMutability": "view",
          "type": "function"
        },
        {
          "inputs": [
            {
              "internalType": "bytes32",
              "name": "",
              "type": "bytes32"
            }
          ],
          "name": "versions",
          "outputs": [
            {
              "internalType": "uint256",
              "name": "modIdx",
              "type": "uint256"
            },
            {
              "internalType": "string",
              "name": "branch",
              "type": "string"
            },
            {
              "internalType": "uint8",
              "name": "major",
              "type": "uint8"
            },
            {
              "internalType": "uint8",
              "name": "minor",
              "type": "uint8"
            },
            {
              "internalType": "uint8",
              "name": "patch",
              "type": "uint8"
            },
            {
              "components": [
                {
                  "internalType": "bytes32",
                  "name": "hash",
                  "type": "bytes32"
                },
                {
                  "internalType": "bytes[]",
                  "name": "uris",
                  "type": "bytes[]"
                }
              ],
              "internalType": "struct DappletRegistry.StorageRef",
              "name": "binary",
              "type": "tuple"
            },
            {
              "internalType": "uint8",
              "name": "flags",
              "type": "uint8"
            }
          ],
          "stateMutability": "view",
          "type": "function"
        }
      ],
      "evm": {
        "bytecode": {
          "linkReferences": {},
          "object": "608060405234801561001057600080fd5b50600580546001018155600052615d8c806200002d6000396000f3fe608060405234801561001057600080fd5b50600436106101515760003560e01c806381b2248a116100cd578063c907ef8011610081578063df090e4c11610066578063df090e4c14610314578063e88324d014610327578063f96c7aab1461033a57600080fd5b8063c907ef80146102db578063ded5a7b91461030157600080fd5b8063a24aadf4116100b2578063a24aadf41461028f578063b394c178146102a2578063c7cec7f8146102b557600080fd5b806381b2248a14610256578063979e119a1461027c57600080fd5b80634eda60051161012457806355c8045b1161010957806355c8045b1461020f57806355f0a672146102225780637ad679661461024357600080fd5b80634eda6005146101cf5780635146bd64146101ef57600080fd5b80630fc86036146101565780632ac43f9d1461016b5780633765e118146101945780634a3ef7a8146101bc575b600080fd5b610169610164366004614ec2565b61035a565b005b61017e610179366004614f26565b6104a0565b60405161018b9190615141565b60405180910390f35b6101a76101a2366004615154565b610934565b60405163ffffffff909116815260200161018b565b6101696101ca36600461528d565b61097d565b6101e26101dd366004615478565b610d3d565b60405161018b9190615534565b6102026101fd366004615547565b611247565b60405161018b9190615560565b6101a761021d366004615573565b6112e1565b61023561023036600461559d565b6112fd565b60405161018b9291906156ca565b61016961025136600461579e565b61265e565b610269610264366004615547565b612750565b60405161018b9796959493929190615837565b61016961028a3660046158ad565b612a2f565b61016961029d366004615907565b612c2c565b6102026102b03660046158ad565b612f4d565b6102c86102c3366004615547565b613020565b60405161018b979695949392919061595e565b6101a76102e9366004615547565b60036020526000908152604090205463ffffffff1681565b61016961030f3660046159bc565b6131d3565b6101696103223660046158ad565b613281565b6101e2610335366004615a16565b613392565b61034d610348366004615a31565b6138b7565b60405161018b9190615a6a565b60008260405160200161036d9190615acc565b60408051601f198184030181529181528151602092830120600081815260039093529082205490925063ffffffff16908190036103f15760405162461bcd60e51b815260206004820152601960248201527f546865206d6f64756c6520646f6573206e6f742065786973740000000000000060448201526064015b60405180910390fd5b600060058263ffffffff168154811061040c5761040c615ae8565b600091825260209091206006600990920201908101549091506001600160a01b031633146104885760405162461bcd60e51b8152602060048201526024808201527f596f7520617265206e6f7420746865206f776e6572206f662074686973206d6f60448201526364756c6560e01b60648201526084016103e8565b6104998263ffffffff16868661396f565b5050505050565b6104a86147e8565b6000826040516020016104bb9190615acc565b60408051601f198184030181529181528151602092830120600081815260039093529082205490925063ffffffff1690036105385760405162461bcd60e51b815260206004820152601960248201527f546865206d6f64756c6520646f6573206e6f742065786973740000000000000060448201526064016103e8565b60008181526003602052604090205460058054909163ffffffff1690811061056257610562615ae8565b6000918252602091829020604080516101008101909152600990920201805460ff168252600181018054929391929184019161059d90615afe565b80601f01602080910402602001604051908101604052809291908181526020018280546105c990615afe565b80156106165780601f106105eb57610100808354040283529160200191610616565b820191906000526020600020905b8154815290600101906020018083116105f957829003601f168201915b5050505050815260200160028201805461062f90615afe565b80601f016020809104026020016040519081016040528092919081815260200182805461065b90615afe565b80156106a85780601f1061067d576101008083540402835291602001916106a8565b820191906000526020600020905b81548152906001019060200180831161068b57829003601f168201915b505050505081526020016003820180546106c190615afe565b80601f01602080910402602001604051908101604052809291908181526020018280546106ed90615afe565b801561073a5780601f1061070f5761010080835404028352916020019161073a565b820191906000526020600020905b81548152906001019060200180831161071d57829003601f168201915b50505050508152602001600482016040518060400160405290816000820154815260200160018201805480602002602001604051908101604052809291908181526020016000905b8282101561082e5783829060005260206000200180546107a190615afe565b80601f01602080910402602001604051908101604052809291908181526020018280546107cd90615afe565b801561081a5780601f106107ef5761010080835404028352916020019161081a565b820191906000526020600020905b8154815290600101906020018083116107fd57829003601f168201915b505050505081526020019060010190610782565b50505091525050815260068201546001600160a01b0316602080830191909152600783018054604080518285028101850182528281529401939260009084015b8282101561091a57838290600052602060002001805461088d90615afe565b80601f01602080910402602001604051908101604052809291908181526020018280546108b990615afe565b80156109065780601f106108db57610100808354040283529160200191610906565b820191906000526020600020905b8154815290600101906020018083116108e957829003601f168201915b50505050508152602001906001019061086e565b505050508152602001600882015481525050915050919050565b6002602052816000526040600020818154811061095057600080fd5b9060005260206000209060089182820401919006600402915091509054906101000a900463ffffffff1681565b600082602001516040516020016109949190615acc565b60408051601f1981840301815291815281516020928301206000818152600390935291205490915063ffffffff1615610a0f5760405162461bcd60e51b815260206004820152601960248201527f546865206d6f64756c6520616c7265616479206578697374730000000000000060448201526064016103e8565b3360a08401819052825115610a2c5760e084015160011916610a35565b60e08401516001175b60e08501526005805460018101825560009190915284517f036b6384b5eca791c62761152d0c79bb0604c104a5fb6f4eb0703f3154bb3db06009909202918201805460ff191660ff90921691909117815560208087015180518894610ac0937f036b6384b5eca791c62761152d0c79bb0604c104a5fb6f4eb0703f3154bb3db1909101920190614857565b5060408201518051610adc916002840191602090910190614857565b5060608201518051610af8916003840191602090910190614857565b5060808201518051600483019081556020808301518051610b1f92600587019201906148db565b50505060a08201516006820180547fffffffffffffffffffffffff0000000000000000000000000000000000000000166001600160a01b0390921691909117905560c08201518051610b7b916007840191602090910190614934565b5060e09190910151600890910155600554600090610b9b90600190615b4e565b6000848152600360209081526040808320805463ffffffff191663ffffffff8681169182179092556001600160a01b0388168552600480855292852080546001810182559086529385206008850401805460079095169093026101000a9182021990931692029190911790559091505b8651811015610cae576000878281518110610c2857610c28615ae8565b602002602001015184604051602001610c42929190615b65565b60408051808303601f19018152918152815160209283012060009081526002835290812080546001810182559082529190206008820401805460079092166004026101000a63ffffffff818102199093169286160291909117905550610ca781615baf565b9050610c0b565b507f7a7dd469a361bac8e6dedfe3aa3602390958e6f690d40629327529e20d0de958868383604051610ce293929190615bc8565b60405180910390a160005b8451811015610d3457610d248263ffffffff168760200151878481518110610d1757610d17615ae8565b602002602001015161396f565b610d2d81615baf565b9050610ced565b50505050505050565b60606000808363ffffffff1611610d56576103e8610d58565b825b63ffffffff1667ffffffffffffffff811115610d7657610d76614a53565b604051908082528060200260200182016040528015610d9f578160200160208202803683370190505b5090506000610db186868460006141f0565b90508067ffffffffffffffff811115610dcc57610dcc614a53565b604051908082528060200260200182016040528015610e0557816020015b610df26147e8565b815260200190600190039081610dea5790505b50925060005b8181101561123d576000838281518110610e2757610e27615ae8565b6020026020010151905060058181548110610e4457610e44615ae8565b6000918252602091829020604080516101008101909152600990920201805460ff1682526001810180549293919291840191610e7f90615afe565b80601f0160208091040260200160405190810160405280929190818152602001828054610eab90615afe565b8015610ef85780601f10610ecd57610100808354040283529160200191610ef8565b820191906000526020600020905b815481529060010190602001808311610edb57829003601f168201915b50505050508152602001600282018054610f1190615afe565b80601f0160208091040260200160405190810160405280929190818152602001828054610f3d90615afe565b8015610f8a5780601f10610f5f57610100808354040283529160200191610f8a565b820191906000526020600020905b815481529060010190602001808311610f6d57829003601f168201915b50505050508152602001600382018054610fa390615afe565b80601f0160208091040260200160405190810160405280929190818152602001828054610fcf90615afe565b801561101c5780601f10610ff15761010080835404028352916020019161101c565b820191906000526020600020905b815481529060010190602001808311610fff57829003601f168201915b50505050508152602001600482016040518060400160405290816000820154815260200160018201805480602002602001604051908101604052809291908181526020016000905b8282101561111057838290600052602060002001805461108390615afe565b80601f01602080910402602001604051908101604052809291908181526020018280546110af90615afe565b80156110fc5780601f106110d1576101008083540402835291602001916110fc565b820191906000526020600020905b8154815290600101906020018083116110df57829003601f168201915b505050505081526020019060010190611064565b50505091525050815260068201546001600160a01b0316602080830191909152600783018054604080518285028101850182528281529401939260009084015b828210156111fc57838290600052602060002001805461116f90615afe565b80601f016020809104026020016040519081016040528092919081815260200182805461119b90615afe565b80156111e85780601f106111bd576101008083540402835291602001916111e8565b820191906000526020600020905b8154815290600101906020018083116111cb57829003601f168201915b505050505081526020019060010190611150565b50505050815260200160088201548152505085838151811061122057611220615ae8565b6020026020010181905250508061123690615baf565b9050610e0b565b5050509392505050565b6000602081905290815260409020805461126090615afe565b80601f016020809104026020016040519081016040528092919081815260200182805461128c90615afe565b80156112d95780601f106112ae576101008083540402835291602001916112d9565b820191906000526020600020905b8154815290600101906020018083116112bc57829003601f168201915b505050505081565b6004602052816000526040600020818154811061095057600080fd5b61135460408051610100810182526060808252600060208084018290528385018290528284018290528451808601909552908452830152906080820190815260606020820181905260408201819052600091015290565b6000808787878787604051602001611370959493929190615c00565b60408051601f1981840301815282825280516020918201206000818152600180845284822061012087019095528454865284018054929650909493928401916113b890615afe565b80601f01602080910402602001604051908101604052809291908181526020018280546113e490615afe565b80156114315780601f1061140657610100808354040283529160200191611431565b820191906000526020600020905b81548152906001019060200180831161141457829003601f168201915b5050509183525050600282015460ff8082166020808501919091526101008304821660408086019190915262010000909304909116606084015281518083018352600385018054825260048601805485518186028101860190965280865260809096019592949193858101939060009084015b828210156115505783829060005260206000200180546114c390615afe565b80601f01602080910402602001604051908101604052809291908181526020018280546114ef90615afe565b801561153c5780601f106115115761010080835404028352916020019161153c565b820191906000526020600020905b81548152906001019060200180831161151f57829003601f168201915b5050505050815260200190600101906114a4565b50505050815250508152602001600582018054806020026020016040519081016040528092919081815260200182805480156115ab57602002820191906000526020600020905b815481526020019060010190808311611597575b505050505081526020016006820180548060200260200160405190810160405280929190818152602001828054801561160357602002820191906000526020600020905b8154815260200190600101908083116115ef575b50505091835250506007919091015460ff16602090910152805190915060000361166f5760405162461bcd60e51b815260206004820152601560248201527f56657273696f6e20646f65736e2774206578697374000000000000000000000060448201526064016103e8565b60008160c001515167ffffffffffffffff81111561168f5761168f614a53565b6040519080825280602002602001820160405280156116eb57816020015b6040805160a0810182526060808252602082018190526000928201839052810182905260808101919091528152602001906001900390816116ad5790505b50905060005b8260c0015151811015611e16576000600160008560c00151848151811061171a5761171a615ae8565b60200260200101518152602001908152602001600020604051806101200160405290816000820154815260200160018201805461175690615afe565b80601f016020809104026020016040519081016040528092919081815260200182805461178290615afe565b80156117cf5780601f106117a4576101008083540402835291602001916117cf565b820191906000526020600020905b8154815290600101906020018083116117b257829003601f168201915b5050509183525050600282015460ff8082166020808501919091526101008304821660408086019190915262010000909304909116606084015281518083018352600385018054825260048601805485518186028101860190965280865260809096019592949193858101939060009084015b828210156118ee57838290600052602060002001805461186190615afe565b80601f016020809104026020016040519081016040528092919081815260200182805461188d90615afe565b80156118da5780601f106118af576101008083540402835291602001916118da565b820191906000526020600020905b8154815290600101906020018083116118bd57829003601f168201915b505050505081526020019060010190611842565b505050508152505081526020016005820180548060200260200160405190810160405280929190818152602001828054801561194957602002820191906000526020600020905b815481526020019060010190808311611935575b50505050508152602001600682018054806020026020016040519081016040528092919081815260200182805480156119a157602002820191906000526020600020905b81548152602001906001019080831161198d575b50505091835250506007919091015460ff1660209091015280516005805492935060009290919081106119d6576119d6615ae8565b6000918252602091829020604080516101008101909152600990920201805460ff1682526001810180549293919291840191611a1190615afe565b80601f0160208091040260200160405190810160405280929190818152602001828054611a3d90615afe565b8015611a8a5780601f10611a5f57610100808354040283529160200191611a8a565b820191906000526020600020905b815481529060010190602001808311611a6d57829003601f168201915b50505050508152602001600282018054611aa390615afe565b80601f0160208091040260200160405190810160405280929190818152602001828054611acf90615afe565b8015611b1c5780601f10611af157610100808354040283529160200191611b1c565b820191906000526020600020905b815481529060010190602001808311611aff57829003601f168201915b50505050508152602001600382018054611b3590615afe565b80601f0160208091040260200160405190810160405280929190818152602001828054611b6190615afe565b8015611bae5780601f10611b8357610100808354040283529160200191611bae565b820191906000526020600020905b815481529060010190602001808311611b9157829003601f168201915b50505050508152602001600482016040518060400160405290816000820154815260200160018201805480602002602001604051908101604052809291908181526020016000905b82821015611ca2578382906000526020600020018054611c1590615afe565b80601f0160208091040260200160405190810160405280929190818152602001828054611c4190615afe565b8015611c8e5780601f10611c6357610100808354040283529160200191611c8e565b820191906000526020600020905b815481529060010190602001808311611c7157829003601f168201915b505050505081526020019060010190611bf6565b50505091525050815260068201546001600160a01b0316602080830191909152600783018054604080518285028101850182528281529401939260009084015b82821015611d8e578382906000526020600020018054611d0190615afe565b80601f0160208091040260200160405190810160405280929190818152602001828054611d2d90615afe565b8015611d7a5780601f10611d4f57610100808354040283529160200191611d7a565b820191906000526020600020905b815481529060010190602001808311611d5d57829003601f168201915b505050505081526020019060010190611ce2565b50505050815260200160088201548152505090506040518060a001604052808260200151815260200183602001518152602001836040015160ff168152602001836060015160ff168152602001836080015160ff16815250848481518110611df857611df8615ae8565b6020026020010181905250505080611e0f90615baf565b90506116f1565b5060008260e001515167ffffffffffffffff811115611e3757611e37614a53565b604051908082528060200260200182016040528015611e9357816020015b6040805160a081018252606080825260208201819052600092820183905281018290526080810191909152815260200190600190039081611e555790505b50905060005b8360e00151518110156125be576000600160008660e001518481518110611ec257611ec2615ae8565b602002602001015181526020019081526020016000206040518061012001604052908160008201548152602001600182018054611efe90615afe565b80601f0160208091040260200160405190810160405280929190818152602001828054611f2a90615afe565b8015611f775780601f10611f4c57610100808354040283529160200191611f77565b820191906000526020600020905b815481529060010190602001808311611f5a57829003601f168201915b5050509183525050600282015460ff8082166020808501919091526101008304821660408086019190915262010000909304909116606084015281518083018352600385018054825260048601805485518186028101860190965280865260809096019592949193858101939060009084015b8282101561209657838290600052602060002001805461200990615afe565b80601f016020809104026020016040519081016040528092919081815260200182805461203590615afe565b80156120825780601f1061205757610100808354040283529160200191612082565b820191906000526020600020905b81548152906001019060200180831161206557829003601f168201915b505050505081526020019060010190611fea565b50505050815250508152602001600582018054806020026020016040519081016040528092919081815260200182805480156120f157602002820191906000526020600020905b8154815260200190600101908083116120dd575b505050505081526020016006820180548060200260200160405190810160405280929190818152602001828054801561214957602002820191906000526020600020905b815481526020019060010190808311612135575b50505091835250506007919091015460ff16602090910152805160058054929350600092909190811061217e5761217e615ae8565b6000918252602091829020604080516101008101909152600990920201805460ff16825260018101805492939192918401916121b990615afe565b80601f01602080910402602001604051908101604052809291908181526020018280546121e590615afe565b80156122325780601f1061220757610100808354040283529160200191612232565b820191906000526020600020905b81548152906001019060200180831161221557829003601f168201915b5050505050815260200160028201805461224b90615afe565b80601f016020809104026020016040519081016040528092919081815260200182805461227790615afe565b80156122c45780601f10612299576101008083540402835291602001916122c4565b820191906000526020600020905b8154815290600101906020018083116122a757829003601f168201915b505050505081526020016003820180546122dd90615afe565b80601f016020809104026020016040519081016040528092919081815260200182805461230990615afe565b80156123565780601f1061232b57610100808354040283529160200191612356565b820191906000526020600020905b81548152906001019060200180831161233957829003601f168201915b50505050508152602001600482016040518060400160405290816000820154815260200160018201805480602002602001604051908101604052809291908181526020016000905b8282101561244a5783829060005260206000200180546123bd90615afe565b80601f01602080910402602001604051908101604052809291908181526020018280546123e990615afe565b80156124365780601f1061240b57610100808354040283529160200191612436565b820191906000526020600020905b81548152906001019060200180831161241957829003601f168201915b50505050508152602001906001019061239e565b50505091525050815260068201546001600160a01b0316602080830191909152600783018054604080518285028101850182528281529401939260009084015b828210156125365783829060005260206000200180546124a990615afe565b80601f01602080910402602001604051908101604052809291908181526020018280546124d590615afe565b80156125225780601f106124f757610100808354040283529160200191612522565b820191906000526020600020905b81548152906001019060200180831161250557829003601f168201915b50505050508152602001906001019061248a565b50505050815260200160088201548152505090506040518060a001604052808260200151815260200183602001518152602001836040015160ff168152602001836060015160ff168152602001836080015160ff168152508484815181106125a0576125a0615ae8565b60200260200101819052505050806125b790615baf565b9050611e99565b5060405180610100016040528084602001518152602001846040015160ff168152602001846060015160ff168152602001846080015160ff1681526020018460a00151815260200183815260200182815260200184610100015160ff168152509550600583600001518154811061263757612637615ae8565b6000918252602090912060099091020154959b60ff9096169a509498505050505050505050565b600060058563ffffffff168154811061267957612679615ae8565b600091825260209091206006600990920201908101549091506001600160a01b031633146126f55760405162461bcd60e51b8152602060048201526024808201527f596f7520617265206e6f7420746865206f776e6572206f662074686973206d6f60448201526364756c6560e01b60648201526084016103e8565b835161270a9060028301906020870190614857565b5082516127209060038301906020860190614857565b5081516004820190815560208084015180518593926127469260058701929101906148db565b5050505050505050565b6005818154811061276057600080fd5b60009182526020909120600990910201805460018201805460ff90921693509061278990615afe565b80601f01602080910402602001604051908101604052809291908181526020018280546127b590615afe565b80156128025780601f106127d757610100808354040283529160200191612802565b820191906000526020600020905b8154815290600101906020018083116127e557829003601f168201915b50505050509080600201805461281790615afe565b80601f016020809104026020016040519081016040528092919081815260200182805461284390615afe565b80156128905780601f1061286557610100808354040283529160200191612890565b820191906000526020600020905b81548152906001019060200180831161287357829003601f168201915b5050505050908060030180546128a590615afe565b80601f01602080910402602001604051908101604052809291908181526020018280546128d190615afe565b801561291e5780601f106128f35761010080835404028352916020019161291e565b820191906000526020600020905b81548152906001019060200180831161290157829003601f168201915b505050505090806004016040518060400160405290816000820154815260200160018201805480602002602001604051908101604052809291908181526020016000905b82821015612a0e57838290600052602060002001805461298190615afe565b80601f01602080910402602001604051908101604052809291908181526020018280546129ad90615afe565b80156129fa5780601f106129cf576101008083540402835291602001916129fa565b820191906000526020600020905b8154815290600101906020018083116129dd57829003601f168201915b505050505081526020019060010190612962565b50505091525050600682015460089092015490916001600160a01b03169087565b600082604051602001612a429190615acc565b60408051601f198184030181529181528151602092830120600081815260039093529082205490925063ffffffff1690819003612ac15760405162461bcd60e51b815260206004820152601960248201527f546865206d6f64756c6520646f6573206e6f742065786973740000000000000060448201526064016103e8565b6040513390600090612ad99086908490602001615b65565b60408051601f19818403018152918152815160209283012060008181526002909352908220909250905b8154811015612746578463ffffffff16828281548110612b2557612b25615ae8565b6000918252602090912060088204015460079091166004026101000a900463ffffffff1603612c1c5781548290612b5e90600190615b4e565b81548110612b6e57612b6e615ae8565b90600052602060002090600891828204019190066004029054906101000a900463ffffffff16828281548110612ba657612ba6615ae8565b90600052602060002090600891828204019190066004026101000a81548163ffffffff021916908363ffffffff16021790555081805480612be957612be9615c76565b600082815260209020600860001990920191820401805463ffffffff600460078516026101000a02191690559055612746565b612c2581615baf565b9050612b03565b600083604051602001612c3f9190615acc565b60408051601f198184030181529181528151602092830120600081815260039093529082205490925063ffffffff1690819003612cbe5760405162461bcd60e51b815260206004820152601960248201527f546865206d6f64756c6520646f6573206e6f742065786973740000000000000060448201526064016103e8565b600060058263ffffffff1681548110612cd957612cd9615ae8565b600091825260209091206006600990920201908101549091506001600160a01b03163314612d555760405162461bcd60e51b8152602060048201526024808201527f596f7520617265206e6f7420746865206f776e6572206f662074686973206d6f60448201526364756c6560e01b60648201526084016103e8565b60068101546001600160a01b03166000908152600460205260409020805463ffffffff841690829087908110612d8d57612d8d615ae8565b6000918252602090912060088204015460079091166004026101000a900463ffffffff1614612dfe5760405162461bcd60e51b815260206004820181905260248201527f496e76616c696420696e646578206f66206172726179206f776e6572206d617060448201526064016103e8565b80548190612e0e90600190615b4e565b81548110612e1e57612e1e615ae8565b90600052602060002090600891828204019190066004029054906101000a900463ffffffff16818681548110612e5657612e56615ae8565b90600052602060002090600891828204019190066004026101000a81548163ffffffff021916908363ffffffff16021790555080805480612e9957612e99615c76565b600082815260208082206008600019909401848104909101805463ffffffff60046007808616820261010090810a84021990941690945593909755600690980180546001600160a01b03909d167fffffffffffffffffffffffff0000000000000000000000000000000000000000909d168d1790559a8352808252604083208054600181018255908452919092209281049092018054968416929099160290930a9283029202199092161790935550505050565b606060008383604051602001612f64929190615c8c565b6040516020818303038152906040528051906020012090506000808281526020019081526020016000208054612f9990615afe565b80601f0160208091040260200160405190810160405280929190818152602001828054612fc590615afe565b80156130125780601f10612fe757610100808354040283529160200191613012565b820191906000526020600020905b815481529060010190602001808311612ff557829003601f168201915b505050505091505092915050565b60016020819052600091825260409091208054918101805461304190615afe565b80601f016020809104026020016040519081016040528092919081815260200182805461306d90615afe565b80156130ba5780601f1061308f576101008083540402835291602001916130ba565b820191906000526020600020905b81548152906001019060200180831161309d57829003601f168201915b50505050600283015460408051808201825260038601805482526004870180548451602080830282018101909652818152979860ff8088169961010089048216995062010000909804169690958086019391929060009084015b828210156131c057838290600052602060002001805461313390615afe565b80601f016020809104026020016040519081016040528092919081815260200182805461315f90615afe565b80156131ac5780601f10613181576101008083540402835291602001916131ac565b820191906000526020600020905b81548152906001019060200180831161318f57829003601f168201915b505050505081526020019060010190613114565b5050509152505060079091015460ff1687565b80518251146132245760405162461bcd60e51b815260206004820181905260248201527f4e756d626572206f6620656c656d656e7473206d75737420626520657175616c60448201526064016103e8565b60005b825181101561327c5761326c83828151811061324557613245615ae8565b602002602001015183838151811061325f5761325f615ae8565b602002602001015161035a565b61327581615baf565b9050613227565b505050565b6000826040516020016132949190615acc565b60408051601f198184030181529181528151602092830120600081815260039093529082205490925063ffffffff16908190036133135760405162461bcd60e51b815260206004820152601960248201527f546865206d6f64756c6520646f6573206e6f742065786973740000000000000060448201526064016103e8565b604051339060009061332b9086908490602001615b65565b60408051808303601f19018152918152815160209283012060009081526002835290812080546001810182559082529190206008820401805460079092166004026101000a63ffffffff818102199093169590921691909102939093179092555050505050565b6001600160a01b038116600090815260046020908152604080832080548251818502810185019093528083526060949383018282801561341d57602002820191906000526020600020906000905b82829054906101000a900463ffffffff1663ffffffff16815260200190600401906020826003010492830192600103820291508084116133e05790505b50505050509050805167ffffffffffffffff81111561343e5761343e614a53565b60405190808252806020026020018201604052801561347757816020015b6134646147e8565b81526020019060019003908161345c5790505b50915060005b81518110156138b057600582828151811061349a5761349a615ae8565b602002602001015163ffffffff16815481106134b8576134b8615ae8565b6000918252602091829020604080516101008101909152600990920201805460ff16825260018101805492939192918401916134f390615afe565b80601f016020809104026020016040519081016040528092919081815260200182805461351f90615afe565b801561356c5780601f106135415761010080835404028352916020019161356c565b820191906000526020600020905b81548152906001019060200180831161354f57829003601f168201915b5050505050815260200160028201805461358590615afe565b80601f01602080910402602001604051908101604052809291908181526020018280546135b190615afe565b80156135fe5780601f106135d3576101008083540402835291602001916135fe565b820191906000526020600020905b8154815290600101906020018083116135e157829003601f168201915b5050505050815260200160038201805461361790615afe565b80601f016020809104026020016040519081016040528092919081815260200182805461364390615afe565b80156136905780601f1061366557610100808354040283529160200191613690565b820191906000526020600020905b81548152906001019060200180831161367357829003601f168201915b50505050508152602001600482016040518060400160405290816000820154815260200160018201805480602002602001604051908101604052809291908181526020016000905b828210156137845783829060005260206000200180546136f790615afe565b80601f016020809104026020016040519081016040528092919081815260200182805461372390615afe565b80156137705780601f1061374557610100808354040283529160200191613770565b820191906000526020600020905b81548152906001019060200180831161375357829003601f168201915b5050505050815260200190600101906136d8565b50505091525050815260068201546001600160a01b0316602080830191909152600783018054604080518285028101850182528281529401939260009084015b828210156138705783829060005260206000200180546137e390615afe565b80601f016020809104026020016040519081016040528092919081815260200182805461380f90615afe565b801561385c5780601f106138315761010080835404028352916020019161385c565b820191906000526020600020905b81548152906001019060200180831161383f57829003601f168201915b5050505050815260200190600101906137c4565b50505050815260200160088201548152505083828151811061389457613894615ae8565b6020026020010181905250806138a990615baf565b905061347d565b5050919050565b6060835167ffffffffffffffff8111156138d3576138d3614a53565b60405190808252806020026020018201604052801561390657816020015b60608152602001906001900390816138f15790505b50905060005b84518110156139675761393985828151811061392a5761392a615ae8565b60200260200101518585610d3d565b82828151811061394b5761394b615ae8565b60200260200101819052508061396090615baf565b905061390c565b509392505050565b60008160a001515167ffffffffffffffff81111561398f5761398f614a53565b6040519080825280602002602001820160405280156139b8578160200160208202803683370190505b50905060005b8260a0015151811015613ac55760008360a0015182815181106139e3576139e3615ae8565b60200260200101519050600081600001518260200151836040015184606001518560800151604051602001613a1c959493929190615c00565b60408051601f19818403018152918152815160209283012060008181526001909352908220549092509003613a935760405162461bcd60e51b815260206004820152601860248201527f446570656e64656e637920646f65736e2774206578697374000000000000000060448201526064016103e8565b80848481518110613aa657613aa6615ae8565b602002602001018181525050505080613abe90615baf565b90506139be565b5060008260c001515167ffffffffffffffff811115613ae657613ae6614a53565b604051908082528060200260200182016040528015613b0f578160200160208202803683370190505b50905060005b8360c0015151811015613d545760008460c001518281518110613b3a57613b3a615ae8565b60200260200101519050600081600001518260200151836040015184606001518560800151604051602001613b73959493929190615c00565b60408051601f19818403018152918152815160209283012060008181526001909352908220549092509003613bea5760405162461bcd60e51b815260206004820152601760248201527f496e7465726661636520646f65736e277420657869737400000000000000000060448201526064016103e8565b80848481518110613bfd57613bfd615ae8565b6020026020010181815250506000805b60058a81548110613c2057613c20615ae8565b906000526020600020906009020160070180549050811015613ce7578351604051613c4e9190602001615acc565b6040516020818303038152906040528051906020012060058b81548110613c7757613c77615ae8565b90600052602060002090600902016007018281548110613c9957613c99615ae8565b90600052602060002001604051602001613cb39190615cbb565b6040516020818303038152906040528051906020012003613cd75760019150613ce7565b613ce081615baf565b9050613c0d565b50801515600003613d405760058981548110613d0557613d05615ae8565b600091825260208083208651600993909302016007018054600181018255908452928190208251613d3e94919091019290910190614857565b505b50505080613d4d90615baf565b9050613b15565b50600060405180610120016040528087815260200185600001518152602001856020015160ff168152602001856040015160ff168152602001856060015160ff168152602001856080015181526020018481526020018381526020018560e0015160ff1681525090506000858560000151866020015187604001518860600151604051602001613de8959493929190615c00565b60408051601f198184030181529181528151602092830120600081815260018085529290208551815585840151805192955086949193613e3093908501929190910190614857565b5060408201516002820180546060850151608086015160ff908116620100000262ff0000199282166101000261ffff199094169190951617919091171691909117905560a08201518051600383019081556020808301518051613e9992600487019201906148db565b50505060c08201518051613eb791600584019160209091019061498d565b5060e08201518051613ed391600684019160209091019061498d565b5061010091909101516007909101805460ff191660ff909216919091179055602082810151604051600092613f0c928a92909101615c8c565b604051602081830303815290604052805190602001209050600080828152602001908152602001600020836040015160f81b9080805480613f4c90615afe565b80601f8103613f6b5783600052602060002060ff1984168155603f9350505b50600291909101909155815460011615613f945790600052602060002090602091828204019190065b909190919091601f036101000a81548160ff02191690600160f81b84040217905550600080828152602001908152602001600020836060015160f81b9080805480613fde90615afe565b80601f8103613ffd5783600052602060002060ff1984168155603f9350505b506002919091019091558154600116156140265790600052602060002090602091828204019190065b909190919091601f036101000a81548160ff02191690600160f81b84040217905550600080828152602001908152602001600020836080015160f81b908080548061407090615afe565b80601f810361408f5783600052602060002060ff1984168155603f9350505b506002919091019091558154600116156140b85790600052602060002090602091828204019190065b815460ff601f929092036101000a9182021916600160f81b909304029190911790556000818152602081905260408120805481906140f581615afe565b80601f81036141145783600052602060002060ff1984168155603f9350505b5060029190910190915581546001161561413d5790600052602060002090602091828204019190065b909190919091601f036101000a81548160ff02191690600160f81b840402179055506001600060058a8154811061417657614176615ae8565b906000526020600020906009020160080154901c16600103612746576005805460011991908a9081106141ab576141ab615ae8565b90600052602060002090600902016008015416600589815481106141d1576141d1615ae8565b9060005260206000209060090201600801819055505050505050505050565b600081815b85518110156147995760008787838151811061421357614213615ae8565b602002602001015160405160200161422c929190615b65565b60408051601f198184030181528282528051602091820120600081815260028352838120805480850287018501909552848652919550939290918301828280156142c157602002820191906000526020600020906000905b82829054906101000a900463ffffffff1663ffffffff16815260200190600401906020826003010492830192600103820291508084116142845790505b50505050509050600084905060005b82518110156147845760008382815181106142ed576142ed615ae8565b602002602001015163ffffffff16905060005b8381101561433957818b828151811061431b5761431b615ae8565b602002602001015103156143395761433281615baf565b9050614300565b83810361477157818b8961434c81615baf565b9a508151811061435e5761435e615ae8565b60200260200101818152505060006005838154811061437f5761437f615ae8565b6000918252602091829020604080516101008101909152600990920201805460ff16825260018101805492939192918401916143ba90615afe565b80601f01602080910402602001604051908101604052809291908181526020018280546143e690615afe565b80156144335780601f1061440857610100808354040283529160200191614433565b820191906000526020600020905b81548152906001019060200180831161441657829003601f168201915b5050505050815260200160028201805461444c90615afe565b80601f016020809104026020016040519081016040528092919081815260200182805461447890615afe565b80156144c55780601f1061449a576101008083540402835291602001916144c5565b820191906000526020600020905b8154815290600101906020018083116144a857829003601f168201915b505050505081526020016003820180546144de90615afe565b80601f016020809104026020016040519081016040528092919081815260200182805461450a90615afe565b80156145575780601f1061452c57610100808354040283529160200191614557565b820191906000526020600020905b81548152906001019060200180831161453a57829003601f168201915b50505050508152602001600482016040518060400160405290816000820154815260200160018201805480602002602001604051908101604052809291908181526020016000905b8282101561464b5783829060005260206000200180546145be90615afe565b80601f01602080910402602001604051908101604052809291908181526020018280546145ea90615afe565b80156146375780601f1061460c57610100808354040283529160200191614637565b820191906000526020600020905b81548152906001019060200180831161461a57829003601f168201915b50505050508152602001906001019061459f565b50505091525050815260068201546001600160a01b0316602080830191909152600783018054604080518285028101850182528281529401939260009084015b828210156147375783829060005260206000200180546146aa90615afe565b80601f01602080910402602001604051908101604052809291908181526020018280546146d690615afe565b80156147235780601f106146f857610100808354040283529160200191614723565b820191906000526020600020905b81548152906001019060200180831161470657829003601f168201915b50505050508152602001906001019061468b565b505050508152602001600882015481525050905061475b81602001518e8e8c6141f0565b985061476d8160c001518e8e8c6147a3565b9850505b50508061477d90615baf565b90506142d0565b505050508061479290615baf565b90506141f5565b5095945050505050565b600081815b8651811015614799576147d68782815181106147c6576147c6615ae8565b60200260200101518787856141f0565b91506147e181615baf565b90506147a8565b604051806101000160405280600060ff168152602001606081526020016060815260200160608152602001614833604051806040016040528060008019168152602001606081525090565b815260200160006001600160a01b0316815260200160608152602001600081525090565b82805461486390615afe565b90600052602060002090601f01602090048101928261488557600085556148cb565b82601f1061489e57805160ff19168380011785556148cb565b828001600101855582156148cb579182015b828111156148cb5782518255916020019190600101906148b0565b506148d79291506149c7565b5090565b828054828255906000526020600020908101928215614928579160200282015b828111156149285782518051614918918491602090910190614857565b50916020019190600101906148fb565b506148d79291506149dc565b828054828255906000526020600020908101928215614981579160200282015b828111156149815782518051614971918491602090910190614857565b5091602001919060010190614954565b506148d79291506149f9565b8280548282559060005260206000209081019282156148cb57916020028201828111156148cb5782518255916020019190600101906148b0565b5b808211156148d757600081556001016149c8565b808211156148d75760006149f08282614a16565b506001016149dc565b808211156148d7576000614a0d8282614a16565b506001016149f9565b508054614a2290615afe565b6000825580601f10614a32575050565b601f016020900490600052602060002090810190614a5091906149c7565b50565b634e487b7160e01b600052604160045260246000fd5b6040805190810167ffffffffffffffff81118282101715614a8c57614a8c614a53565b60405290565b60405160a0810167ffffffffffffffff81118282101715614a8c57614a8c614a53565b604051610100810167ffffffffffffffff81118282101715614a8c57614a8c614a53565b604051601f8201601f1916810167ffffffffffffffff81118282101715614b0257614b02614a53565b604052919050565b600067ffffffffffffffff831115614b2457614b24614a53565b614b37601f8401601f1916602001614ad9565b9050828152838383011115614b4b57600080fd5b828260208301376000602084830101529392505050565b600082601f830112614b7357600080fd5b614b8283833560208501614b0a565b9392505050565b803560ff81168114614b9a57600080fd5b919050565b600067ffffffffffffffff821115614bb957614bb9614a53565b5060051b60200190565b60006040808385031215614bd657600080fd5b614bde614a69565b91508235825260208084013567ffffffffffffffff80821115614c0057600080fd5b818601915086601f830112614c1457600080fd5b8135614c27614c2282614b9f565b614ad9565b81815260059190911b83018401908481019089831115614c4657600080fd5b8585015b83811015614c9257803585811115614c625760008081fd5b8601603f81018c13614c745760008081fd5b614c848c898301358b8401614b0a565b845250918601918601614c4a565b5080868901525050505050505092915050565b600082601f830112614cb657600080fd5b81356020614cc6614c2283614b9f565b82815260059290921b84018101918181019086841115614ce557600080fd5b8286015b84811015614db957803567ffffffffffffffff80821115614d0a5760008081fd5b9088019060a0828b03601f1901811315614d245760008081fd5b614d2c614a92565b8784013583811115614d3e5760008081fd5b614d4c8d8a83880101614b62565b82525060408085013584811115614d635760008081fd5b614d718e8b83890101614b62565b8a8401525060609350614d85848601614b89565b908201526080614d96858201614b89565b84830152614da5838601614b89565b908201528652505050918301918301614ce9565b509695505050505050565b60006101008284031215614dd757600080fd5b614ddf614ab5565b9050813567ffffffffffffffff80821115614df957600080fd5b614e0585838601614b62565b8352614e1360208501614b89565b6020840152614e2460408501614b89565b6040840152614e3560608501614b89565b60608401526080840135915080821115614e4e57600080fd5b614e5a85838601614bc3565b608084015260a0840135915080821115614e7357600080fd5b614e7f85838601614ca5565b60a084015260c0840135915080821115614e9857600080fd5b50614ea584828501614ca5565b60c083015250614eb760e08301614b89565b60e082015292915050565b60008060408385031215614ed557600080fd5b823567ffffffffffffffff80821115614eed57600080fd5b614ef986838701614b62565b93506020850135915080821115614f0f57600080fd5b50614f1c85828601614dc4565b9150509250929050565b600060208284031215614f3857600080fd5b813567ffffffffffffffff811115614f4f57600080fd5b614f5b84828501614b62565b949350505050565b60005b83811015614f7e578181015183820152602001614f66565b83811115614f8d576000848401525b50505050565b60008151808452614fab816020860160208601614f63565b601f01601f19169290920160200192915050565b6000604083018251845260208084015160408287015282815180855260608801915060608160051b8901019450838301925060005b8181101561502257605f19898703018352615010868551614f93565b95509284019291840191600101614ff4565b5093979650505050505050565b600081518084526020808501808196508360051b8101915082860160005b85811015615077578284038952615065848351614f93565b9885019893509084019060010161504d565b5091979650505050505050565b805160ff168252600061010060208301518160208601526150a782860182614f93565b915050604083015184820360408601526150c18282614f93565b915050606083015184820360608601526150db8282614f93565b915050608083015184820360808601526150f58282614fbf565b91505060a083015161511260a08601826001600160a01b03169052565b5060c083015184820360c086015261512a828261502f565b91505060e083015160e08501528091505092915050565b602081526000614b826020830184615084565b6000806040838503121561516757600080fd5b50508035926020909101359150565b600082601f83011261518757600080fd5b81356020615197614c2283614b9f565b82815260059290921b840181019181810190868411156151b657600080fd5b8286015b84811015614db957803567ffffffffffffffff8111156151da5760008081fd5b6151e88986838b0101614b62565b8452509183019183016151ba565b80356001600160a01b0381168114614b9a57600080fd5b600082601f83011261521e57600080fd5b8135602061522e614c2283614b9f565b82815260059290921b8401810191818101908684111561524d57600080fd5b8286015b84811015614db957803567ffffffffffffffff8111156152715760008081fd5b61527f8986838b0101614dc4565b845250918301918301615251565b6000806000606084860312156152a257600080fd5b833567ffffffffffffffff808211156152ba57600080fd5b6152c687838801615176565b945060208601359150808211156152dc57600080fd5b9085019061010082880312156152f157600080fd5b6152f9614ab5565b61530283614b89565b815260208301358281111561531657600080fd5b61532289828601614b62565b60208301525060408301358281111561533a57600080fd5b61534689828601614b62565b60408301525060608301358281111561535e57600080fd5b61536a89828601614b62565b60608301525060808301358281111561538257600080fd5b61538e89828601614bc3565b6080830152506153a060a084016151f6565b60a082015260c0830135828111156153b757600080fd5b6153c389828601615176565b60c08301525060e083013560e08201528094505060408601359150808211156153eb57600080fd5b506153f88682870161520d565b9150509250925092565b600082601f83011261541357600080fd5b81356020615423614c2283614b9f565b82815260059290921b8401810191818101908684111561544257600080fd5b8286015b84811015614db957615457816151f6565b8352918301918301615446565b803563ffffffff81168114614b9a57600080fd5b60008060006060848603121561548d57600080fd5b833567ffffffffffffffff808211156154a557600080fd5b6154b187838801614b62565b945060208601359150808211156154c757600080fd5b506154d486828701615402565b9250506154e360408501615464565b90509250925092565b600081518084526020808501808196508360051b8101915082860160005b85811015615077578284038952615522848351615084565b9885019893509084019060010161550a565b602081526000614b8260208301846154ec565b60006020828403121561555957600080fd5b5035919050565b602081526000614b826020830184614f93565b6000806040838503121561558657600080fd5b61558f836151f6565b946020939093013593505050565b600080600080600060a086880312156155b557600080fd5b853567ffffffffffffffff808211156155cd57600080fd5b6155d989838a01614b62565b965060208801359150808211156155ef57600080fd5b506155fc88828901614b62565b94505061560b60408701614b89565b925061561960608701614b89565b915061562760808701614b89565b90509295509295909350565b600081518084526020808501808196508360051b8101915082860160005b85811015615077578284038952815160a0815181875261567382880182614f93565b915050868201518682038888015261568b8282614f93565b60408481015160ff908116918a01919091526060808601518216908a015260809485015116939097019290925250509784019790840190600101615651565b60408152600083516101008060408501526156e9610140850183614f93565b915060208601516156ff606086018260ff169052565b50604086015160ff8116608086015250606086015160ff811660a0860152506080860151603f19808685030160c087015261573a8483614fbf565b935060a08801519150808685030160e08701526157578483615633565b935060c08801519150808685030183870152506157748382615633565b9250505060e085015161578d61012085018260ff169052565b5060ff841660208401529050614b82565b600080600080608085870312156157b457600080fd5b6157bd85615464565b9350602085013567ffffffffffffffff808211156157da57600080fd5b6157e688838901614b62565b945060408701359150808211156157fc57600080fd5b61580888838901614b62565b9350606087013591508082111561581e57600080fd5b5061582b87828801614bc3565b91505092959194509250565b60ff8816815260e06020820152600061585360e0830189614f93565b82810360408401526158658189614f93565b905082810360608401526158798188614f93565b9050828103608084015261588d8187614fbf565b6001600160a01b039590951660a0840152505060c0015295945050505050565b600080604083850312156158c057600080fd5b823567ffffffffffffffff808211156158d857600080fd5b6158e486838701614b62565b935060208501359150808211156158fa57600080fd5b50614f1c85828601614b62565b60008060006060848603121561591c57600080fd5b833567ffffffffffffffff81111561593357600080fd5b61593f86828701614b62565b93505061594e602085016151f6565b9150604084013590509250925092565b87815260e06020820152600061597760e0830189614f93565b60ff8816604084015260ff8716606084015260ff8616608084015282810360a08401526159a48186614fbf565b91505060ff831660c083015298975050505050505050565b600080604083850312156159cf57600080fd5b823567ffffffffffffffff808211156159e757600080fd5b6159f386838701615176565b93506020850135915080821115615a0957600080fd5b50614f1c8582860161520d565b600060208284031215615a2857600080fd5b614b82826151f6565b600080600060608486031215615a4657600080fd5b833567ffffffffffffffff80821115615a5e57600080fd5b6154b187838801615176565b6000602080830181845280855180835260408601915060408160051b870101925083870160005b82811015615abf57603f19888603018452615aad8583516154ec565b94509285019290850190600101615a91565b5092979650505050505050565b60008251615ade818460208701614f63565b9190910192915050565b634e487b7160e01b600052603260045260246000fd5b600181811c90821680615b1257607f821691505b602082108103615b3257634e487b7160e01b600052602260045260246000fd5b50919050565b634e487b7160e01b600052601160045260246000fd5b600082821015615b6057615b60615b38565b500390565b60008351615b77818460208801614f63565b60609390931b7fffffffffffffffffffffffffffffffffffffffff000000000000000000000000169190920190815260140192915050565b600060018201615bc157615bc1615b38565b5060010190565b606081526000615bdb606083018661502f565b90506001600160a01b038416602083015263ffffffff83166040830152949350505050565b60008651615c12818460208b01614f63565b865190830190615c26818360208b01614f63565b7fff0000000000000000000000000000000000000000000000000000000000000060f897881b81169190920190815294861b811660018601529290941b9091166002830152506003019392505050565b634e487b7160e01b600052603160045260246000fd5b60008351615c9e818460208801614f63565b835190830190615cb2818360208801614f63565b01949350505050565b600080835481600182811c915080831680615cd757607f831692505b60208084108203615cf657634e487b7160e01b86526022600452602486fd5b818015615d0a5760018114615d1b57615d48565b60ff19861689528489019650615d48565b60008a81526020902060005b86811015615d405781548b820152908501908301615d27565b505084890196505b50949897505050505050505056fea2646970667358221220e672b83926965f269dac882098b5b018907f7899556f8c9a42a526249e399be164736f6c634300080d0033",
          "opcodes": "PUSH1 0x80 PUSH1 0x40 MSTORE CALLVALUE DUP1 ISZERO PUSH2 0x10 JUMPI PUSH1 0x0 DUP1 REVERT JUMPDEST POP PUSH1 0x5 DUP1 SLOAD PUSH1 0x1 ADD DUP2 SSTORE PUSH1 0x0 MSTORE PUSH2 0x5D8C DUP1 PUSH3 0x2D PUSH1 0x0 CODECOPY PUSH1 0x0 RETURN INVALID PUSH1 0x80 PUSH1 0x40 MSTORE CALLVALUE DUP1 ISZERO PUSH2 0x10 JUMPI PUSH1 0x0 DUP1 REVERT JUMPDEST POP PUSH1 0x4 CALLDATASIZE LT PUSH2 0x151 JUMPI PUSH1 0x0 CALLDATALOAD PUSH1 0xE0 SHR DUP1 PUSH4 0x81B2248A GT PUSH2 0xCD JUMPI DUP1 PUSH4 0xC907EF80 GT PUSH2 0x81 JUMPI DUP1 PUSH4 0xDF090E4C GT PUSH2 0x66 JUMPI DUP1 PUSH4 0xDF090E4C EQ PUSH2 0x314 JUMPI DUP1 PUSH4 0xE88324D0 EQ PUSH2 0x327 JUMPI DUP1 PUSH4 0xF96C7AAB EQ PUSH2 0x33A JUMPI PUSH1 0x0 DUP1 REVERT JUMPDEST DUP1 PUSH4 0xC907EF80 EQ PUSH2 0x2DB JUMPI DUP1 PUSH4 0xDED5A7B9 EQ PUSH2 0x301 JUMPI PUSH1 0x0 DUP1 REVERT JUMPDEST DUP1 PUSH4 0xA24AADF4 GT PUSH2 0xB2 JUMPI DUP1 PUSH4 0xA24AADF4 EQ PUSH2 0x28F JUMPI DUP1 PUSH4 0xB394C178 EQ PUSH2 0x2A2 JUMPI DUP1 PUSH4 0xC7CEC7F8 EQ PUSH2 0x2B5 JUMPI PUSH1 0x0 DUP1 REVERT JUMPDEST DUP1 PUSH4 0x81B2248A EQ PUSH2 0x256 JUMPI DUP1 PUSH4 0x979E119A EQ PUSH2 0x27C JUMPI PUSH1 0x0 DUP1 REVERT JUMPDEST DUP1 PUSH4 0x4EDA6005 GT PUSH2 0x124 JUMPI DUP1 PUSH4 0x55C8045B GT PUSH2 0x109 JUMPI DUP1 PUSH4 0x55C8045B EQ PUSH2 0x20F JUMPI DUP1 PUSH4 0x55F0A672 EQ PUSH2 0x222 JUMPI DUP1 PUSH4 0x7AD67966 EQ PUSH2 0x243 JUMPI PUSH1 0x0 DUP1 REVERT JUMPDEST DUP1 PUSH4 0x4EDA6005 EQ PUSH2 0x1CF JUMPI DUP1 PUSH4 0x5146BD64 EQ PUSH2 0x1EF JUMPI PUSH1 0x0 DUP1 REVERT JUMPDEST DUP1 PUSH4 0xFC86036 EQ PUSH2 0x156 JUMPI DUP1 PUSH4 0x2AC43F9D EQ PUSH2 0x16B JUMPI DUP1 PUSH4 0x3765E118 EQ PUSH2 0x194 JUMPI DUP1 PUSH4 0x4A3EF7A8 EQ PUSH2 0x1BC JUMPI JUMPDEST PUSH1 0x0 DUP1 REVERT JUMPDEST PUSH2 0x169 PUSH2 0x164 CALLDATASIZE PUSH1 0x4 PUSH2 0x4EC2 JUMP JUMPDEST PUSH2 0x35A JUMP JUMPDEST STOP JUMPDEST PUSH2 0x17E PUSH2 0x179 CALLDATASIZE PUSH1 0x4 PUSH2 0x4F26 JUMP JUMPDEST PUSH2 0x4A0 JUMP JUMPDEST PUSH1 0x40 MLOAD PUSH2 0x18B SWAP2 SWAP1 PUSH2 0x5141 JUMP JUMPDEST PUSH1 0x40 MLOAD DUP1 SWAP2 SUB SWAP1 RETURN JUMPDEST PUSH2 0x1A7 PUSH2 0x1A2 CALLDATASIZE PUSH1 0x4 PUSH2 0x5154 JUMP JUMPDEST PUSH2 0x934 JUMP JUMPDEST PUSH1 0x40 MLOAD PUSH4 0xFFFFFFFF SWAP1 SWAP2 AND DUP2 MSTORE PUSH1 0x20 ADD PUSH2 0x18B JUMP JUMPDEST PUSH2 0x169 PUSH2 0x1CA CALLDATASIZE PUSH1 0x4 PUSH2 0x528D JUMP JUMPDEST PUSH2 0x97D JUMP JUMPDEST PUSH2 0x1E2 PUSH2 0x1DD CALLDATASIZE PUSH1 0x4 PUSH2 0x5478 JUMP JUMPDEST PUSH2 0xD3D JUMP JUMPDEST PUSH1 0x40 MLOAD PUSH2 0x18B SWAP2 SWAP1 PUSH2 0x5534 JUMP JUMPDEST PUSH2 0x202 PUSH2 0x1FD CALLDATASIZE PUSH1 0x4 PUSH2 0x5547 JUMP JUMPDEST PUSH2 0x1247 JUMP JUMPDEST PUSH1 0x40 MLOAD PUSH2 0x18B SWAP2 SWAP1 PUSH2 0x5560 JUMP JUMPDEST PUSH2 0x1A7 PUSH2 0x21D CALLDATASIZE PUSH1 0x4 PUSH2 0x5573 JUMP JUMPDEST PUSH2 0x12E1 JUMP JUMPDEST PUSH2 0x235 PUSH2 0x230 CALLDATASIZE PUSH1 0x4 PUSH2 0x559D JUMP JUMPDEST PUSH2 0x12FD JUMP JUMPDEST PUSH1 0x40 MLOAD PUSH2 0x18B SWAP3 SWAP2 SWAP1 PUSH2 0x56CA JUMP JUMPDEST PUSH2 0x169 PUSH2 0x251 CALLDATASIZE PUSH1 0x4 PUSH2 0x579E JUMP JUMPDEST PUSH2 0x265E JUMP JUMPDEST PUSH2 0x269 PUSH2 0x264 CALLDATASIZE PUSH1 0x4 PUSH2 0x5547 JUMP JUMPDEST PUSH2 0x2750 JUMP JUMPDEST PUSH1 0x40 MLOAD PUSH2 0x18B SWAP8 SWAP7 SWAP6 SWAP5 SWAP4 SWAP3 SWAP2 SWAP1 PUSH2 0x5837 JUMP JUMPDEST PUSH2 0x169 PUSH2 0x28A CALLDATASIZE PUSH1 0x4 PUSH2 0x58AD JUMP JUMPDEST PUSH2 0x2A2F JUMP JUMPDEST PUSH2 0x169 PUSH2 0x29D CALLDATASIZE PUSH1 0x4 PUSH2 0x5907 JUMP JUMPDEST PUSH2 0x2C2C JUMP JUMPDEST PUSH2 0x202 PUSH2 0x2B0 CALLDATASIZE PUSH1 0x4 PUSH2 0x58AD JUMP JUMPDEST PUSH2 0x2F4D JUMP JUMPDEST PUSH2 0x2C8 PUSH2 0x2C3 CALLDATASIZE PUSH1 0x4 PUSH2 0x5547 JUMP JUMPDEST PUSH2 0x3020 JUMP JUMPDEST PUSH1 0x40 MLOAD PUSH2 0x18B SWAP8 SWAP7 SWAP6 SWAP5 SWAP4 SWAP3 SWAP2 SWAP1 PUSH2 0x595E JUMP JUMPDEST PUSH2 0x1A7 PUSH2 0x2E9 CALLDATASIZE PUSH1 0x4 PUSH2 0x5547 JUMP JUMPDEST PUSH1 0x3 PUSH1 0x20 MSTORE PUSH1 0x0 SWAP1 DUP2 MSTORE PUSH1 0x40 SWAP1 KECCAK256 SLOAD PUSH4 0xFFFFFFFF AND DUP2 JUMP JUMPDEST PUSH2 0x169 PUSH2 0x30F CALLDATASIZE PUSH1 0x4 PUSH2 0x59BC JUMP JUMPDEST PUSH2 0x31D3 JUMP JUMPDEST PUSH2 0x169 PUSH2 0x322 CALLDATASIZE PUSH1 0x4 PUSH2 0x58AD JUMP JUMPDEST PUSH2 0x3281 JUMP JUMPDEST PUSH2 0x1E2 PUSH2 0x335 CALLDATASIZE PUSH1 0x4 PUSH2 0x5A16 JUMP JUMPDEST PUSH2 0x3392 JUMP JUMPDEST PUSH2 0x34D PUSH2 0x348 CALLDATASIZE PUSH1 0x4 PUSH2 0x5A31 JUMP JUMPDEST PUSH2 0x38B7 JUMP JUMPDEST PUSH1 0x40 MLOAD PUSH2 0x18B SWAP2 SWAP1 PUSH2 0x5A6A JUMP JUMPDEST PUSH1 0x0 DUP3 PUSH1 0x40 MLOAD PUSH1 0x20 ADD PUSH2 0x36D SWAP2 SWAP1 PUSH2 0x5ACC JUMP JUMPDEST PUSH1 0x40 DUP1 MLOAD PUSH1 0x1F NOT DUP2 DUP5 SUB ADD DUP2 MSTORE SWAP2 DUP2 MSTORE DUP2 MLOAD PUSH1 0x20 SWAP3 DUP4 ADD KECCAK256 PUSH1 0x0 DUP2 DUP2 MSTORE PUSH1 0x3 SWAP1 SWAP4 MSTORE SWAP1 DUP3 KECCAK256 SLOAD SWAP1 SWAP3 POP PUSH4 0xFFFFFFFF AND SWAP1 DUP2 SWAP1 SUB PUSH2 0x3F1 JUMPI PUSH1 0x40 MLOAD PUSH3 0x461BCD PUSH1 0xE5 SHL DUP2 MSTORE PUSH1 0x20 PUSH1 0x4 DUP3 ADD MSTORE PUSH1 0x19 PUSH1 0x24 DUP3 ADD MSTORE PUSH32 0x546865206D6F64756C6520646F6573206E6F7420657869737400000000000000 PUSH1 0x44 DUP3 ADD MSTORE PUSH1 0x64 ADD JUMPDEST PUSH1 0x40 MLOAD DUP1 SWAP2 SUB SWAP1 REVERT JUMPDEST PUSH1 0x0 PUSH1 0x5 DUP3 PUSH4 0xFFFFFFFF AND DUP2 SLOAD DUP2 LT PUSH2 0x40C JUMPI PUSH2 0x40C PUSH2 0x5AE8 JUMP JUMPDEST PUSH1 0x0 SWAP2 DUP3 MSTORE PUSH1 0x20 SWAP1 SWAP2 KECCAK256 PUSH1 0x6 PUSH1 0x9 SWAP1 SWAP3 MUL ADD SWAP1 DUP2 ADD SLOAD SWAP1 SWAP2 POP PUSH1 0x1 PUSH1 0x1 PUSH1 0xA0 SHL SUB AND CALLER EQ PUSH2 0x488 JUMPI PUSH1 0x40 MLOAD PUSH3 0x461BCD PUSH1 0xE5 SHL DUP2 MSTORE PUSH1 0x20 PUSH1 0x4 DUP3 ADD MSTORE PUSH1 0x24 DUP1 DUP3 ADD MSTORE PUSH32 0x596F7520617265206E6F7420746865206F776E6572206F662074686973206D6F PUSH1 0x44 DUP3 ADD MSTORE PUSH4 0x64756C65 PUSH1 0xE0 SHL PUSH1 0x64 DUP3 ADD MSTORE PUSH1 0x84 ADD PUSH2 0x3E8 JUMP JUMPDEST PUSH2 0x499 DUP3 PUSH4 0xFFFFFFFF AND DUP7 DUP7 PUSH2 0x396F JUMP JUMPDEST POP POP POP POP POP JUMP JUMPDEST PUSH2 0x4A8 PUSH2 0x47E8 JUMP JUMPDEST PUSH1 0x0 DUP3 PUSH1 0x40 MLOAD PUSH1 0x20 ADD PUSH2 0x4BB SWAP2 SWAP1 PUSH2 0x5ACC JUMP JUMPDEST PUSH1 0x40 DUP1 MLOAD PUSH1 0x1F NOT DUP2 DUP5 SUB ADD DUP2 MSTORE SWAP2 DUP2 MSTORE DUP2 MLOAD PUSH1 0x20 SWAP3 DUP4 ADD KECCAK256 PUSH1 0x0 DUP2 DUP2 MSTORE PUSH1 0x3 SWAP1 SWAP4 MSTORE SWAP1 DUP3 KECCAK256 SLOAD SWAP1 SWAP3 POP PUSH4 0xFFFFFFFF AND SWAP1 SUB PUSH2 0x538 JUMPI PUSH1 0x40 MLOAD PUSH3 0x461BCD PUSH1 0xE5 SHL DUP2 MSTORE PUSH1 0x20 PUSH1 0x4 DUP3 ADD MSTORE PUSH1 0x19 PUSH1 0x24 DUP3 ADD MSTORE PUSH32 0x546865206D6F64756C6520646F6573206E6F7420657869737400000000000000 PUSH1 0x44 DUP3 ADD MSTORE PUSH1 0x64 ADD PUSH2 0x3E8 JUMP JUMPDEST PUSH1 0x0 DUP2 DUP2 MSTORE PUSH1 0x3 PUSH1 0x20 MSTORE PUSH1 0x40 SWAP1 KECCAK256 SLOAD PUSH1 0x5 DUP1 SLOAD SWAP1 SWAP2 PUSH4 0xFFFFFFFF AND SWAP1 DUP2 LT PUSH2 0x562 JUMPI PUSH2 0x562 PUSH2 0x5AE8 JUMP JUMPDEST PUSH1 0x0 SWAP2 DUP3 MSTORE PUSH1 0x20 SWAP2 DUP3 SWAP1 KECCAK256 PUSH1 0x40 DUP1 MLOAD PUSH2 0x100 DUP2 ADD SWAP1 SWAP2 MSTORE PUSH1 0x9 SWAP1 SWAP3 MUL ADD DUP1 SLOAD PUSH1 0xFF AND DUP3 MSTORE PUSH1 0x1 DUP2 ADD DUP1 SLOAD SWAP3 SWAP4 SWAP2 SWAP3 SWAP2 DUP5 ADD SWAP2 PUSH2 0x59D SWAP1 PUSH2 0x5AFE JUMP JUMPDEST DUP1 PUSH1 0x1F ADD PUSH1 0x20 DUP1 SWAP2 DIV MUL PUSH1 0x20 ADD PUSH1 0x40 MLOAD SWAP1 DUP2 ADD PUSH1 0x40 MSTORE DUP1 SWAP3 SWAP2 SWAP1 DUP2 DUP2 MSTORE PUSH1 0x20 ADD DUP3 DUP1 SLOAD PUSH2 0x5C9 SWAP1 PUSH2 0x5AFE JUMP JUMPDEST DUP1 ISZERO PUSH2 0x616 JUMPI DUP1 PUSH1 0x1F LT PUSH2 0x5EB JUMPI PUSH2 0x100 DUP1 DUP4 SLOAD DIV MUL DUP4 MSTORE SWAP2 PUSH1 0x20 ADD SWAP2 PUSH2 0x616 JUMP JUMPDEST DUP3 ADD SWAP2 SWAP1 PUSH1 0x0 MSTORE PUSH1 0x20 PUSH1 0x0 KECCAK256 SWAP1 JUMPDEST DUP2 SLOAD DUP2 MSTORE SWAP1 PUSH1 0x1 ADD SWAP1 PUSH1 0x20 ADD DUP1 DUP4 GT PUSH2 0x5F9 JUMPI DUP3 SWAP1 SUB PUSH1 0x1F AND DUP3 ADD SWAP2 JUMPDEST POP POP POP POP POP DUP2 MSTORE PUSH1 0x20 ADD PUSH1 0x2 DUP3 ADD DUP1 SLOAD PUSH2 0x62F SWAP1 PUSH2 0x5AFE JUMP JUMPDEST DUP1 PUSH1 0x1F ADD PUSH1 0x20 DUP1 SWAP2 DIV MUL PUSH1 0x20 ADD PUSH1 0x40 MLOAD SWAP1 DUP2 ADD PUSH1 0x40 MSTORE DUP1 SWAP3 SWAP2 SWAP1 DUP2 DUP2 MSTORE PUSH1 0x20 ADD DUP3 DUP1 SLOAD PUSH2 0x65B SWAP1 PUSH2 0x5AFE JUMP JUMPDEST DUP1 ISZERO PUSH2 0x6A8 JUMPI DUP1 PUSH1 0x1F LT PUSH2 0x67D JUMPI PUSH2 0x100 DUP1 DUP4 SLOAD DIV MUL DUP4 MSTORE SWAP2 PUSH1 0x20 ADD SWAP2 PUSH2 0x6A8 JUMP JUMPDEST DUP3 ADD SWAP2 SWAP1 PUSH1 0x0 MSTORE PUSH1 0x20 PUSH1 0x0 KECCAK256 SWAP1 JUMPDEST DUP2 SLOAD DUP2 MSTORE SWAP1 PUSH1 0x1 ADD SWAP1 PUSH1 0x20 ADD DUP1 DUP4 GT PUSH2 0x68B JUMPI DUP3 SWAP1 SUB PUSH1 0x1F AND DUP3 ADD SWAP2 JUMPDEST POP POP POP POP POP DUP2 MSTORE PUSH1 0x20 ADD PUSH1 0x3 DUP3 ADD DUP1 SLOAD PUSH2 0x6C1 SWAP1 PUSH2 0x5AFE JUMP JUMPDEST DUP1 PUSH1 0x1F ADD PUSH1 0x20 DUP1 SWAP2 DIV MUL PUSH1 0x20 ADD PUSH1 0x40 MLOAD SWAP1 DUP2 ADD PUSH1 0x40 MSTORE DUP1 SWAP3 SWAP2 SWAP1 DUP2 DUP2 MSTORE PUSH1 0x20 ADD DUP3 DUP1 SLOAD PUSH2 0x6ED SWAP1 PUSH2 0x5AFE JUMP JUMPDEST DUP1 ISZERO PUSH2 0x73A JUMPI DUP1 PUSH1 0x1F LT PUSH2 0x70F JUMPI PUSH2 0x100 DUP1 DUP4 SLOAD DIV MUL DUP4 MSTORE SWAP2 PUSH1 0x20 ADD SWAP2 PUSH2 0x73A JUMP JUMPDEST DUP3 ADD SWAP2 SWAP1 PUSH1 0x0 MSTORE PUSH1 0x20 PUSH1 0x0 KECCAK256 SWAP1 JUMPDEST DUP2 SLOAD DUP2 MSTORE SWAP1 PUSH1 0x1 ADD SWAP1 PUSH1 0x20 ADD DUP1 DUP4 GT PUSH2 0x71D JUMPI DUP3 SWAP1 SUB PUSH1 0x1F AND DUP3 ADD SWAP2 JUMPDEST POP POP POP POP POP DUP2 MSTORE PUSH1 0x20 ADD PUSH1 0x4 DUP3 ADD PUSH1 0x40 MLOAD DUP1 PUSH1 0x40 ADD PUSH1 0x40 MSTORE SWAP1 DUP2 PUSH1 0x0 DUP3 ADD SLOAD DUP2 MSTORE PUSH1 0x20 ADD PUSH1 0x1 DUP3 ADD DUP1 SLOAD DUP1 PUSH1 0x20 MUL PUSH1 0x20 ADD PUSH1 0x40 MLOAD SWAP1 DUP2 ADD PUSH1 0x40 MSTORE DUP1 SWAP3 SWAP2 SWAP1 DUP2 DUP2 MSTORE PUSH1 0x20 ADD PUSH1 0x0 SWAP1 JUMPDEST DUP3 DUP3 LT ISZERO PUSH2 0x82E JUMPI DUP4 DUP3 SWAP1 PUSH1 0x0 MSTORE PUSH1 0x20 PUSH1 0x0 KECCAK256 ADD DUP1 SLOAD PUSH2 0x7A1 SWAP1 PUSH2 0x5AFE JUMP JUMPDEST DUP1 PUSH1 0x1F ADD PUSH1 0x20 DUP1 SWAP2 DIV MUL PUSH1 0x20 ADD PUSH1 0x40 MLOAD SWAP1 DUP2 ADD PUSH1 0x40 MSTORE DUP1 SWAP3 SWAP2 SWAP1 DUP2 DUP2 MSTORE PUSH1 0x20 ADD DUP3 DUP1 SLOAD PUSH2 0x7CD SWAP1 PUSH2 0x5AFE JUMP JUMPDEST DUP1 ISZERO PUSH2 0x81A JUMPI DUP1 PUSH1 0x1F LT PUSH2 0x7EF JUMPI PUSH2 0x100 DUP1 DUP4 SLOAD DIV MUL DUP4 MSTORE SWAP2 PUSH1 0x20 ADD SWAP2 PUSH2 0x81A JUMP JUMPDEST DUP3 ADD SWAP2 SWAP1 PUSH1 0x0 MSTORE PUSH1 0x20 PUSH1 0x0 KECCAK256 SWAP1 JUMPDEST DUP2 SLOAD DUP2 MSTORE SWAP1 PUSH1 0x1 ADD SWAP1 PUSH1 0x20 ADD DUP1 DUP4 GT PUSH2 0x7FD JUMPI DUP3 SWAP1 SUB PUSH1 0x1F AND DUP3 ADD SWAP2 JUMPDEST POP POP POP POP POP DUP2 MSTORE PUSH1 0x20 ADD SWAP1 PUSH1 0x1 ADD SWAP1 PUSH2 0x782 JUMP JUMPDEST POP POP POP SWAP2 MSTORE POP POP DUP2 MSTORE PUSH1 0x6 DUP3 ADD SLOAD PUSH1 0x1 PUSH1 0x1 PUSH1 0xA0 SHL SUB AND PUSH1 0x20 DUP1 DUP4 ADD SWAP2 SWAP1 SWAP2 MSTORE PUSH1 0x7 DUP4 ADD DUP1 SLOAD PUSH1 0x40 DUP1 MLOAD DUP3 DUP6 MUL DUP2 ADD DUP6 ADD DUP3 MSTORE DUP3 DUP2 MSTORE SWAP5 ADD SWAP4 SWAP3 PUSH1 0x0 SWAP1 DUP5 ADD JUMPDEST DUP3 DUP3 LT ISZERO PUSH2 0x91A JUMPI DUP4 DUP3 SWAP1 PUSH1 0x0 MSTORE PUSH1 0x20 PUSH1 0x0 KECCAK256 ADD DUP1 SLOAD PUSH2 0x88D SWAP1 PUSH2 0x5AFE JUMP JUMPDEST DUP1 PUSH1 0x1F ADD PUSH1 0x20 DUP1 SWAP2 DIV MUL PUSH1 0x20 ADD PUSH1 0x40 MLOAD SWAP1 DUP2 ADD PUSH1 0x40 MSTORE DUP1 SWAP3 SWAP2 SWAP1 DUP2 DUP2 MSTORE PUSH1 0x20 ADD DUP3 DUP1 SLOAD PUSH2 0x8B9 SWAP1 PUSH2 0x5AFE JUMP JUMPDEST DUP1 ISZERO PUSH2 0x906 JUMPI DUP1 PUSH1 0x1F LT PUSH2 0x8DB JUMPI PUSH2 0x100 DUP1 DUP4 SLOAD DIV MUL DUP4 MSTORE SWAP2 PUSH1 0x20 ADD SWAP2 PUSH2 0x906 JUMP JUMPDEST DUP3 ADD SWAP2 SWAP1 PUSH1 0x0 MSTORE PUSH1 0x20 PUSH1 0x0 KECCAK256 SWAP1 JUMPDEST DUP2 SLOAD DUP2 MSTORE SWAP1 PUSH1 0x1 ADD SWAP1 PUSH1 0x20 ADD DUP1 DUP4 GT PUSH2 0x8E9 JUMPI DUP3 SWAP1 SUB PUSH1 0x1F AND DUP3 ADD SWAP2 JUMPDEST POP POP POP POP POP DUP2 MSTORE PUSH1 0x20 ADD SWAP1 PUSH1 0x1 ADD SWAP1 PUSH2 0x86E JUMP JUMPDEST POP POP POP POP DUP2 MSTORE PUSH1 0x20 ADD PUSH1 0x8 DUP3 ADD SLOAD DUP2 MSTORE POP POP SWAP2 POP POP SWAP2 SWAP1 POP JUMP JUMPDEST PUSH1 0x2 PUSH1 0x20 MSTORE DUP2 PUSH1 0x0 MSTORE PUSH1 0x40 PUSH1 0x0 KECCAK256 DUP2 DUP2 SLOAD DUP2 LT PUSH2 0x950 JUMPI PUSH1 0x0 DUP1 REVERT JUMPDEST SWAP1 PUSH1 0x0 MSTORE PUSH1 0x20 PUSH1 0x0 KECCAK256 SWAP1 PUSH1 0x8 SWAP2 DUP3 DUP3 DIV ADD SWAP2 SWAP1 MOD PUSH1 0x4 MUL SWAP2 POP SWAP2 POP SWAP1 SLOAD SWAP1 PUSH2 0x100 EXP SWAP1 DIV PUSH4 0xFFFFFFFF AND DUP2 JUMP JUMPDEST PUSH1 0x0 DUP3 PUSH1 0x20 ADD MLOAD PUSH1 0x40 MLOAD PUSH1 0x20 ADD PUSH2 0x994 SWAP2 SWAP1 PUSH2 0x5ACC JUMP JUMPDEST PUSH1 0x40 DUP1 MLOAD PUSH1 0x1F NOT DUP2 DUP5 SUB ADD DUP2 MSTORE SWAP2 DUP2 MSTORE DUP2 MLOAD PUSH1 0x20 SWAP3 DUP4 ADD KECCAK256 PUSH1 0x0 DUP2 DUP2 MSTORE PUSH1 0x3 SWAP1 SWAP4 MSTORE SWAP2 KECCAK256 SLOAD SWAP1 SWAP2 POP PUSH4 0xFFFFFFFF AND ISZERO PUSH2 0xA0F JUMPI PUSH1 0x40 MLOAD PUSH3 0x461BCD PUSH1 0xE5 SHL DUP2 MSTORE PUSH1 0x20 PUSH1 0x4 DUP3 ADD MSTORE PUSH1 0x19 PUSH1 0x24 DUP3 ADD MSTORE PUSH32 0x546865206D6F64756C6520616C72656164792065786973747300000000000000 PUSH1 0x44 DUP3 ADD MSTORE PUSH1 0x64 ADD PUSH2 0x3E8 JUMP JUMPDEST CALLER PUSH1 0xA0 DUP5 ADD DUP2 SWAP1 MSTORE DUP3 MLOAD ISZERO PUSH2 0xA2C JUMPI PUSH1 0xE0 DUP5 ADD MLOAD PUSH1 0x1 NOT AND PUSH2 0xA35 JUMP JUMPDEST PUSH1 0xE0 DUP5 ADD MLOAD PUSH1 0x1 OR JUMPDEST PUSH1 0xE0 DUP6 ADD MSTORE PUSH1 0x5 DUP1 SLOAD PUSH1 0x1 DUP2 ADD DUP3 SSTORE PUSH1 0x0 SWAP2 SWAP1 SWAP2 MSTORE DUP5 MLOAD PUSH32 0x36B6384B5ECA791C62761152D0C79BB0604C104A5FB6F4EB0703F3154BB3DB0 PUSH1 0x9 SWAP1 SWAP3 MUL SWAP2 DUP3 ADD DUP1 SLOAD PUSH1 0xFF NOT AND PUSH1 0xFF SWAP1 SWAP3 AND SWAP2 SWAP1 SWAP2 OR DUP2 SSTORE PUSH1 0x20 DUP1 DUP8 ADD MLOAD DUP1 MLOAD DUP9 SWAP5 PUSH2 0xAC0 SWAP4 PUSH32 0x36B6384B5ECA791C62761152D0C79BB0604C104A5FB6F4EB0703F3154BB3DB1 SWAP1 SWAP2 ADD SWAP3 ADD SWAP1 PUSH2 0x4857 JUMP JUMPDEST POP PUSH1 0x40 DUP3 ADD MLOAD DUP1 MLOAD PUSH2 0xADC SWAP2 PUSH1 0x2 DUP5 ADD SWAP2 PUSH1 0x20 SWAP1 SWAP2 ADD SWAP1 PUSH2 0x4857 JUMP JUMPDEST POP PUSH1 0x60 DUP3 ADD MLOAD DUP1 MLOAD PUSH2 0xAF8 SWAP2 PUSH1 0x3 DUP5 ADD SWAP2 PUSH1 0x20 SWAP1 SWAP2 ADD SWAP1 PUSH2 0x4857 JUMP JUMPDEST POP PUSH1 0x80 DUP3 ADD MLOAD DUP1 MLOAD PUSH1 0x4 DUP4 ADD SWAP1 DUP2 SSTORE PUSH1 0x20 DUP1 DUP4 ADD MLOAD DUP1 MLOAD PUSH2 0xB1F SWAP3 PUSH1 0x5 DUP8 ADD SWAP3 ADD SWAP1 PUSH2 0x48DB JUMP JUMPDEST POP POP POP PUSH1 0xA0 DUP3 ADD MLOAD PUSH1 0x6 DUP3 ADD DUP1 SLOAD PUSH32 0xFFFFFFFFFFFFFFFFFFFFFFFF0000000000000000000000000000000000000000 AND PUSH1 0x1 PUSH1 0x1 PUSH1 0xA0 SHL SUB SWAP1 SWAP3 AND SWAP2 SWAP1 SWAP2 OR SWAP1 SSTORE PUSH1 0xC0 DUP3 ADD MLOAD DUP1 MLOAD PUSH2 0xB7B SWAP2 PUSH1 0x7 DUP5 ADD SWAP2 PUSH1 0x20 SWAP1 SWAP2 ADD SWAP1 PUSH2 0x4934 JUMP JUMPDEST POP PUSH1 0xE0 SWAP2 SWAP1 SWAP2 ADD MLOAD PUSH1 0x8 SWAP1 SWAP2 ADD SSTORE PUSH1 0x5 SLOAD PUSH1 0x0 SWAP1 PUSH2 0xB9B SWAP1 PUSH1 0x1 SWAP1 PUSH2 0x5B4E JUMP JUMPDEST PUSH1 0x0 DUP5 DUP2 MSTORE PUSH1 0x3 PUSH1 0x20 SWAP1 DUP2 MSTORE PUSH1 0x40 DUP1 DUP4 KECCAK256 DUP1 SLOAD PUSH4 0xFFFFFFFF NOT AND PUSH4 0xFFFFFFFF DUP7 DUP2 AND SWAP2 DUP3 OR SWAP1 SWAP3 SSTORE PUSH1 0x1 PUSH1 0x1 PUSH1 0xA0 SHL SUB DUP9 AND DUP6 MSTORE PUSH1 0x4 DUP1 DUP6 MSTORE SWAP3 DUP6 KECCAK256 DUP1 SLOAD PUSH1 0x1 DUP2 ADD DUP3 SSTORE SWAP1 DUP7 MSTORE SWAP4 DUP6 KECCAK256 PUSH1 0x8 DUP6 DIV ADD DUP1 SLOAD PUSH1 0x7 SWAP1 SWAP6 AND SWAP1 SWAP4 MUL PUSH2 0x100 EXP SWAP2 DUP3 MUL NOT SWAP1 SWAP4 AND SWAP3 MUL SWAP2 SWAP1 SWAP2 OR SWAP1 SSTORE SWAP1 SWAP2 POP JUMPDEST DUP7 MLOAD DUP2 LT ISZERO PUSH2 0xCAE JUMPI PUSH1 0x0 DUP8 DUP3 DUP2 MLOAD DUP2 LT PUSH2 0xC28 JUMPI PUSH2 0xC28 PUSH2 0x5AE8 JUMP JUMPDEST PUSH1 0x20 MUL PUSH1 0x20 ADD ADD MLOAD DUP5 PUSH1 0x40 MLOAD PUSH1 0x20 ADD PUSH2 0xC42 SWAP3 SWAP2 SWAP1 PUSH2 0x5B65 JUMP JUMPDEST PUSH1 0x40 DUP1 MLOAD DUP1 DUP4 SUB PUSH1 0x1F NOT ADD DUP2 MSTORE SWAP2 DUP2 MSTORE DUP2 MLOAD PUSH1 0x20 SWAP3 DUP4 ADD KECCAK256 PUSH1 0x0 SWAP1 DUP2 MSTORE PUSH1 0x2 DUP4 MSTORE SWAP1 DUP2 KECCAK256 DUP1 SLOAD PUSH1 0x1 DUP2 ADD DUP3 SSTORE SWAP1 DUP3 MSTORE SWAP2 SWAP1 KECCAK256 PUSH1 0x8 DUP3 DIV ADD DUP1 SLOAD PUSH1 0x7 SWAP1 SWAP3 AND PUSH1 0x4 MUL PUSH2 0x100 EXP PUSH4 0xFFFFFFFF DUP2 DUP2 MUL NOT SWAP1 SWAP4 AND SWAP3 DUP7 AND MUL SWAP2 SWAP1 SWAP2 OR SWAP1 SSTORE POP PUSH2 0xCA7 DUP2 PUSH2 0x5BAF JUMP JUMPDEST SWAP1 POP PUSH2 0xC0B JUMP JUMPDEST POP PUSH32 0x7A7DD469A361BAC8E6DEDFE3AA3602390958E6F690D40629327529E20D0DE958 DUP7 DUP4 DUP4 PUSH1 0x40 MLOAD PUSH2 0xCE2 SWAP4 SWAP3 SWAP2 SWAP1 PUSH2 0x5BC8 JUMP JUMPDEST PUSH1 0x40 MLOAD DUP1 SWAP2 SUB SWAP1 LOG1 PUSH1 0x0 JUMPDEST DUP5 MLOAD DUP2 LT ISZERO PUSH2 0xD34 JUMPI PUSH2 0xD24 DUP3 PUSH4 0xFFFFFFFF AND DUP8 PUSH1 0x20 ADD MLOAD DUP8 DUP5 DUP2 MLOAD DUP2 LT PUSH2 0xD17 JUMPI PUSH2 0xD17 PUSH2 0x5AE8 JUMP JUMPDEST PUSH1 0x20 MUL PUSH1 0x20 ADD ADD MLOAD PUSH2 0x396F JUMP JUMPDEST PUSH2 0xD2D DUP2 PUSH2 0x5BAF JUMP JUMPDEST SWAP1 POP PUSH2 0xCED JUMP JUMPDEST POP POP POP POP POP POP POP JUMP JUMPDEST PUSH1 0x60 PUSH1 0x0 DUP1 DUP4 PUSH4 0xFFFFFFFF AND GT PUSH2 0xD56 JUMPI PUSH2 0x3E8 PUSH2 0xD58 JUMP JUMPDEST DUP3 JUMPDEST PUSH4 0xFFFFFFFF AND PUSH8 0xFFFFFFFFFFFFFFFF DUP2 GT ISZERO PUSH2 0xD76 JUMPI PUSH2 0xD76 PUSH2 0x4A53 JUMP JUMPDEST PUSH1 0x40 MLOAD SWAP1 DUP1 DUP3 MSTORE DUP1 PUSH1 0x20 MUL PUSH1 0x20 ADD DUP3 ADD PUSH1 0x40 MSTORE DUP1 ISZERO PUSH2 0xD9F JUMPI DUP2 PUSH1 0x20 ADD PUSH1 0x20 DUP3 MUL DUP1 CALLDATASIZE DUP4 CALLDATACOPY ADD SWAP1 POP JUMPDEST POP SWAP1 POP PUSH1 0x0 PUSH2 0xDB1 DUP7 DUP7 DUP5 PUSH1 0x0 PUSH2 0x41F0 JUMP JUMPDEST SWAP1 POP DUP1 PUSH8 0xFFFFFFFFFFFFFFFF DUP2 GT ISZERO PUSH2 0xDCC JUMPI PUSH2 0xDCC PUSH2 0x4A53 JUMP JUMPDEST PUSH1 0x40 MLOAD SWAP1 DUP1 DUP3 MSTORE DUP1 PUSH1 0x20 MUL PUSH1 0x20 ADD DUP3 ADD PUSH1 0x40 MSTORE DUP1 ISZERO PUSH2 0xE05 JUMPI DUP2 PUSH1 0x20 ADD JUMPDEST PUSH2 0xDF2 PUSH2 0x47E8 JUMP JUMPDEST DUP2 MSTORE PUSH1 0x20 ADD SWAP1 PUSH1 0x1 SWAP1 SUB SWAP1 DUP2 PUSH2 0xDEA JUMPI SWAP1 POP JUMPDEST POP SWAP3 POP PUSH1 0x0 JUMPDEST DUP2 DUP2 LT ISZERO PUSH2 0x123D JUMPI PUSH1 0x0 DUP4 DUP3 DUP2 MLOAD DUP2 LT PUSH2 0xE27 JUMPI PUSH2 0xE27 PUSH2 0x5AE8 JUMP JUMPDEST PUSH1 0x20 MUL PUSH1 0x20 ADD ADD MLOAD SWAP1 POP PUSH1 0x5 DUP2 DUP2 SLOAD DUP2 LT PUSH2 0xE44 JUMPI PUSH2 0xE44 PUSH2 0x5AE8 JUMP JUMPDEST PUSH1 0x0 SWAP2 DUP3 MSTORE PUSH1 0x20 SWAP2 DUP3 SWAP1 KECCAK256 PUSH1 0x40 DUP1 MLOAD PUSH2 0x100 DUP2 ADD SWAP1 SWAP2 MSTORE PUSH1 0x9 SWAP1 SWAP3 MUL ADD DUP1 SLOAD PUSH1 0xFF AND DUP3 MSTORE PUSH1 0x1 DUP2 ADD DUP1 SLOAD SWAP3 SWAP4 SWAP2 SWAP3 SWAP2 DUP5 ADD SWAP2 PUSH2 0xE7F SWAP1 PUSH2 0x5AFE JUMP JUMPDEST DUP1 PUSH1 0x1F ADD PUSH1 0x20 DUP1 SWAP2 DIV MUL PUSH1 0x20 ADD PUSH1 0x40 MLOAD SWAP1 DUP2 ADD PUSH1 0x40 MSTORE DUP1 SWAP3 SWAP2 SWAP1 DUP2 DUP2 MSTORE PUSH1 0x20 ADD DUP3 DUP1 SLOAD PUSH2 0xEAB SWAP1 PUSH2 0x5AFE JUMP JUMPDEST DUP1 ISZERO PUSH2 0xEF8 JUMPI DUP1 PUSH1 0x1F LT PUSH2 0xECD JUMPI PUSH2 0x100 DUP1 DUP4 SLOAD DIV MUL DUP4 MSTORE SWAP2 PUSH1 0x20 ADD SWAP2 PUSH2 0xEF8 JUMP JUMPDEST DUP3 ADD SWAP2 SWAP1 PUSH1 0x0 MSTORE PUSH1 0x20 PUSH1 0x0 KECCAK256 SWAP1 JUMPDEST DUP2 SLOAD DUP2 MSTORE SWAP1 PUSH1 0x1 ADD SWAP1 PUSH1 0x20 ADD DUP1 DUP4 GT PUSH2 0xEDB JUMPI DUP3 SWAP1 SUB PUSH1 0x1F AND DUP3 ADD SWAP2 JUMPDEST POP POP POP POP POP DUP2 MSTORE PUSH1 0x20 ADD PUSH1 0x2 DUP3 ADD DUP1 SLOAD PUSH2 0xF11 SWAP1 PUSH2 0x5AFE JUMP JUMPDEST DUP1 PUSH1 0x1F ADD PUSH1 0x20 DUP1 SWAP2 DIV MUL PUSH1 0x20 ADD PUSH1 0x40 MLOAD SWAP1 DUP2 ADD PUSH1 0x40 MSTORE DUP1 SWAP3 SWAP2 SWAP1 DUP2 DUP2 MSTORE PUSH1 0x20 ADD DUP3 DUP1 SLOAD PUSH2 0xF3D SWAP1 PUSH2 0x5AFE JUMP JUMPDEST DUP1 ISZERO PUSH2 0xF8A JUMPI DUP1 PUSH1 0x1F LT PUSH2 0xF5F JUMPI PUSH2 0x100 DUP1 DUP4 SLOAD DIV MUL DUP4 MSTORE SWAP2 PUSH1 0x20 ADD SWAP2 PUSH2 0xF8A JUMP JUMPDEST DUP3 ADD SWAP2 SWAP1 PUSH1 0x0 MSTORE PUSH1 0x20 PUSH1 0x0 KECCAK256 SWAP1 JUMPDEST DUP2 SLOAD DUP2 MSTORE SWAP1 PUSH1 0x1 ADD SWAP1 PUSH1 0x20 ADD DUP1 DUP4 GT PUSH2 0xF6D JUMPI DUP3 SWAP1 SUB PUSH1 0x1F AND DUP3 ADD SWAP2 JUMPDEST POP POP POP POP POP DUP2 MSTORE PUSH1 0x20 ADD PUSH1 0x3 DUP3 ADD DUP1 SLOAD PUSH2 0xFA3 SWAP1 PUSH2 0x5AFE JUMP JUMPDEST DUP1 PUSH1 0x1F ADD PUSH1 0x20 DUP1 SWAP2 DIV MUL PUSH1 0x20 ADD PUSH1 0x40 MLOAD SWAP1 DUP2 ADD PUSH1 0x40 MSTORE DUP1 SWAP3 SWAP2 SWAP1 DUP2 DUP2 MSTORE PUSH1 0x20 ADD DUP3 DUP1 SLOAD PUSH2 0xFCF SWAP1 PUSH2 0x5AFE JUMP JUMPDEST DUP1 ISZERO PUSH2 0x101C JUMPI DUP1 PUSH1 0x1F LT PUSH2 0xFF1 JUMPI PUSH2 0x100 DUP1 DUP4 SLOAD DIV MUL DUP4 MSTORE SWAP2 PUSH1 0x20 ADD SWAP2 PUSH2 0x101C JUMP JUMPDEST DUP3 ADD SWAP2 SWAP1 PUSH1 0x0 MSTORE PUSH1 0x20 PUSH1 0x0 KECCAK256 SWAP1 JUMPDEST DUP2 SLOAD DUP2 MSTORE SWAP1 PUSH1 0x1 ADD SWAP1 PUSH1 0x20 ADD DUP1 DUP4 GT PUSH2 0xFFF JUMPI DUP3 SWAP1 SUB PUSH1 0x1F AND DUP3 ADD SWAP2 JUMPDEST POP POP POP POP POP DUP2 MSTORE PUSH1 0x20 ADD PUSH1 0x4 DUP3 ADD PUSH1 0x40 MLOAD DUP1 PUSH1 0x40 ADD PUSH1 0x40 MSTORE SWAP1 DUP2 PUSH1 0x0 DUP3 ADD SLOAD DUP2 MSTORE PUSH1 0x20 ADD PUSH1 0x1 DUP3 ADD DUP1 SLOAD DUP1 PUSH1 0x20 MUL PUSH1 0x20 ADD PUSH1 0x40 MLOAD SWAP1 DUP2 ADD PUSH1 0x40 MSTORE DUP1 SWAP3 SWAP2 SWAP1 DUP2 DUP2 MSTORE PUSH1 0x20 ADD PUSH1 0x0 SWAP1 JUMPDEST DUP3 DUP3 LT ISZERO PUSH2 0x1110 JUMPI DUP4 DUP3 SWAP1 PUSH1 0x0 MSTORE PUSH1 0x20 PUSH1 0x0 KECCAK256 ADD DUP1 SLOAD PUSH2 0x1083 SWAP1 PUSH2 0x5AFE JUMP JUMPDEST DUP1 PUSH1 0x1F ADD PUSH1 0x20 DUP1 SWAP2 DIV MUL PUSH1 0x20 ADD PUSH1 0x40 MLOAD SWAP1 DUP2 ADD PUSH1 0x40 MSTORE DUP1 SWAP3 SWAP2 SWAP1 DUP2 DUP2 MSTORE PUSH1 0x20 ADD DUP3 DUP1 SLOAD PUSH2 0x10AF SWAP1 PUSH2 0x5AFE JUMP JUMPDEST DUP1 ISZERO PUSH2 0x10FC JUMPI DUP1 PUSH1 0x1F LT PUSH2 0x10D1 JUMPI PUSH2 0x100 DUP1 DUP4 SLOAD DIV MUL DUP4 MSTORE SWAP2 PUSH1 0x20 ADD SWAP2 PUSH2 0x10FC JUMP JUMPDEST DUP3 ADD SWAP2 SWAP1 PUSH1 0x0 MSTORE PUSH1 0x20 PUSH1 0x0 KECCAK256 SWAP1 JUMPDEST DUP2 SLOAD DUP2 MSTORE SWAP1 PUSH1 0x1 ADD SWAP1 PUSH1 0x20 ADD DUP1 DUP4 GT PUSH2 0x10DF JUMPI DUP3 SWAP1 SUB PUSH1 0x1F AND DUP3 ADD SWAP2 JUMPDEST POP POP POP POP POP DUP2 MSTORE PUSH1 0x20 ADD SWAP1 PUSH1 0x1 ADD SWAP1 PUSH2 0x1064 JUMP JUMPDEST POP POP POP SWAP2 MSTORE POP POP DUP2 MSTORE PUSH1 0x6 DUP3 ADD SLOAD PUSH1 0x1 PUSH1 0x1 PUSH1 0xA0 SHL SUB AND PUSH1 0x20 DUP1 DUP4 ADD SWAP2 SWAP1 SWAP2 MSTORE PUSH1 0x7 DUP4 ADD DUP1 SLOAD PUSH1 0x40 DUP1 MLOAD DUP3 DUP6 MUL DUP2 ADD DUP6 ADD DUP3 MSTORE DUP3 DUP2 MSTORE SWAP5 ADD SWAP4 SWAP3 PUSH1 0x0 SWAP1 DUP5 ADD JUMPDEST DUP3 DUP3 LT ISZERO PUSH2 0x11FC JUMPI DUP4 DUP3 SWAP1 PUSH1 0x0 MSTORE PUSH1 0x20 PUSH1 0x0 KECCAK256 ADD DUP1 SLOAD PUSH2 0x116F SWAP1 PUSH2 0x5AFE JUMP JUMPDEST DUP1 PUSH1 0x1F ADD PUSH1 0x20 DUP1 SWAP2 DIV MUL PUSH1 0x20 ADD PUSH1 0x40 MLOAD SWAP1 DUP2 ADD PUSH1 0x40 MSTORE DUP1 SWAP3 SWAP2 SWAP1 DUP2 DUP2 MSTORE PUSH1 0x20 ADD DUP3 DUP1 SLOAD PUSH2 0x119B SWAP1 PUSH2 0x5AFE JUMP JUMPDEST DUP1 ISZERO PUSH2 0x11E8 JUMPI DUP1 PUSH1 0x1F LT PUSH2 0x11BD JUMPI PUSH2 0x100 DUP1 DUP4 SLOAD DIV MUL DUP4 MSTORE SWAP2 PUSH1 0x20 ADD SWAP2 PUSH2 0x11E8 JUMP JUMPDEST DUP3 ADD SWAP2 SWAP1 PUSH1 0x0 MSTORE PUSH1 0x20 PUSH1 0x0 KECCAK256 SWAP1 JUMPDEST DUP2 SLOAD DUP2 MSTORE SWAP1 PUSH1 0x1 ADD SWAP1 PUSH1 0x20 ADD DUP1 DUP4 GT PUSH2 0x11CB JUMPI DUP3 SWAP1 SUB PUSH1 0x1F AND DUP3 ADD SWAP2 JUMPDEST POP POP POP POP POP DUP2 MSTORE PUSH1 0x20 ADD SWAP1 PUSH1 0x1 ADD SWAP1 PUSH2 0x1150 JUMP JUMPDEST POP POP POP POP DUP2 MSTORE PUSH1 0x20 ADD PUSH1 0x8 DUP3 ADD SLOAD DUP2 MSTORE POP POP DUP6 DUP4 DUP2 MLOAD DUP2 LT PUSH2 0x1220 JUMPI PUSH2 0x1220 PUSH2 0x5AE8 JUMP JUMPDEST PUSH1 0x20 MUL PUSH1 0x20 ADD ADD DUP2 SWAP1 MSTORE POP POP DUP1 PUSH2 0x1236 SWAP1 PUSH2 0x5BAF JUMP JUMPDEST SWAP1 POP PUSH2 0xE0B JUMP JUMPDEST POP POP POP SWAP4 SWAP3 POP POP POP JUMP JUMPDEST PUSH1 0x0 PUSH1 0x20 DUP2 SWAP1 MSTORE SWAP1 DUP2 MSTORE PUSH1 0x40 SWAP1 KECCAK256 DUP1 SLOAD PUSH2 0x1260 SWAP1 PUSH2 0x5AFE JUMP JUMPDEST DUP1 PUSH1 0x1F ADD PUSH1 0x20 DUP1 SWAP2 DIV MUL PUSH1 0x20 ADD PUSH1 0x40 MLOAD SWAP1 DUP2 ADD PUSH1 0x40 MSTORE DUP1 SWAP3 SWAP2 SWAP1 DUP2 DUP2 MSTORE PUSH1 0x20 ADD DUP3 DUP1 SLOAD PUSH2 0x128C SWAP1 PUSH2 0x5AFE JUMP JUMPDEST DUP1 ISZERO PUSH2 0x12D9 JUMPI DUP1 PUSH1 0x1F LT PUSH2 0x12AE JUMPI PUSH2 0x100 DUP1 DUP4 SLOAD DIV MUL DUP4 MSTORE SWAP2 PUSH1 0x20 ADD SWAP2 PUSH2 0x12D9 JUMP JUMPDEST DUP3 ADD SWAP2 SWAP1 PUSH1 0x0 MSTORE PUSH1 0x20 PUSH1 0x0 KECCAK256 SWAP1 JUMPDEST DUP2 SLOAD DUP2 MSTORE SWAP1 PUSH1 0x1 ADD SWAP1 PUSH1 0x20 ADD DUP1 DUP4 GT PUSH2 0x12BC JUMPI DUP3 SWAP1 SUB PUSH1 0x1F AND DUP3 ADD SWAP2 JUMPDEST POP POP POP POP POP DUP2 JUMP JUMPDEST PUSH1 0x4 PUSH1 0x20 MSTORE DUP2 PUSH1 0x0 MSTORE PUSH1 0x40 PUSH1 0x0 KECCAK256 DUP2 DUP2 SLOAD DUP2 LT PUSH2 0x950 JUMPI PUSH1 0x0 DUP1 REVERT JUMPDEST PUSH2 0x1354 PUSH1 0x40 DUP1 MLOAD PUSH2 0x100 DUP2 ADD DUP3 MSTORE PUSH1 0x60 DUP1 DUP3 MSTORE PUSH1 0x0 PUSH1 0x20 DUP1 DUP5 ADD DUP3 SWAP1 MSTORE DUP4 DUP6 ADD DUP3 SWAP1 MSTORE DUP3 DUP5 ADD DUP3 SWAP1 MSTORE DUP5 MLOAD DUP1 DUP7 ADD SWAP1 SWAP6 MSTORE SWAP1 DUP5 MSTORE DUP4 ADD MSTORE SWAP1 PUSH1 0x80 DUP3 ADD SWAP1 DUP2 MSTORE PUSH1 0x60 PUSH1 0x20 DUP3 ADD DUP2 SWAP1 MSTORE PUSH1 0x40 DUP3 ADD DUP2 SWAP1 MSTORE PUSH1 0x0 SWAP2 ADD MSTORE SWAP1 JUMP JUMPDEST PUSH1 0x0 DUP1 DUP8 DUP8 DUP8 DUP8 DUP8 PUSH1 0x40 MLOAD PUSH1 0x20 ADD PUSH2 0x1370 SWAP6 SWAP5 SWAP4 SWAP3 SWAP2 SWAP1 PUSH2 0x5C00 JUMP JUMPDEST PUSH1 0x40 DUP1 MLOAD PUSH1 0x1F NOT DUP2 DUP5 SUB ADD DUP2 MSTORE DUP3 DUP3 MSTORE DUP1 MLOAD PUSH1 0x20 SWAP2 DUP3 ADD KECCAK256 PUSH1 0x0 DUP2 DUP2 MSTORE PUSH1 0x1 DUP1 DUP5 MSTORE DUP5 DUP3 KECCAK256 PUSH2 0x120 DUP8 ADD SWAP1 SWAP6 MSTORE DUP5 SLOAD DUP7 MSTORE DUP5 ADD DUP1 SLOAD SWAP3 SWAP7 POP SWAP1 SWAP5 SWAP4 SWAP3 DUP5 ADD SWAP2 PUSH2 0x13B8 SWAP1 PUSH2 0x5AFE JUMP JUMPDEST DUP1 PUSH1 0x1F ADD PUSH1 0x20 DUP1 SWAP2 DIV MUL PUSH1 0x20 ADD PUSH1 0x40 MLOAD SWAP1 DUP2 ADD PUSH1 0x40 MSTORE DUP1 SWAP3 SWAP2 SWAP1 DUP2 DUP2 MSTORE PUSH1 0x20 ADD DUP3 DUP1 SLOAD PUSH2 0x13E4 SWAP1 PUSH2 0x5AFE JUMP JUMPDEST DUP1 ISZERO PUSH2 0x1431 JUMPI DUP1 PUSH1 0x1F LT PUSH2 0x1406 JUMPI PUSH2 0x100 DUP1 DUP4 SLOAD DIV MUL DUP4 MSTORE SWAP2 PUSH1 0x20 ADD SWAP2 PUSH2 0x1431 JUMP JUMPDEST DUP3 ADD SWAP2 SWAP1 PUSH1 0x0 MSTORE PUSH1 0x20 PUSH1 0x0 KECCAK256 SWAP1 JUMPDEST DUP2 SLOAD DUP2 MSTORE SWAP1 PUSH1 0x1 ADD SWAP1 PUSH1 0x20 ADD DUP1 DUP4 GT PUSH2 0x1414 JUMPI DUP3 SWAP1 SUB PUSH1 0x1F AND DUP3 ADD SWAP2 JUMPDEST POP POP POP SWAP2 DUP4 MSTORE POP POP PUSH1 0x2 DUP3 ADD SLOAD PUSH1 0xFF DUP1 DUP3 AND PUSH1 0x20 DUP1 DUP6 ADD SWAP2 SWAP1 SWAP2 MSTORE PUSH2 0x100 DUP4 DIV DUP3 AND PUSH1 0x40 DUP1 DUP7 ADD SWAP2 SWAP1 SWAP2 MSTORE PUSH3 0x10000 SWAP1 SWAP4 DIV SWAP1 SWAP2 AND PUSH1 0x60 DUP5 ADD MSTORE DUP2 MLOAD DUP1 DUP4 ADD DUP4 MSTORE PUSH1 0x3 DUP6 ADD DUP1 SLOAD DUP3 MSTORE PUSH1 0x4 DUP7 ADD DUP1 SLOAD DUP6 MLOAD DUP2 DUP7 MUL DUP2 ADD DUP7 ADD SWAP1 SWAP7 MSTORE DUP1 DUP7 MSTORE PUSH1 0x80 SWAP1 SWAP7 ADD SWAP6 SWAP3 SWAP5 SWAP2 SWAP4 DUP6 DUP2 ADD SWAP4 SWAP1 PUSH1 0x0 SWAP1 DUP5 ADD JUMPDEST DUP3 DUP3 LT ISZERO PUSH2 0x1550 JUMPI DUP4 DUP3 SWAP1 PUSH1 0x0 MSTORE PUSH1 0x20 PUSH1 0x0 KECCAK256 ADD DUP1 SLOAD PUSH2 0x14C3 SWAP1 PUSH2 0x5AFE JUMP JUMPDEST DUP1 PUSH1 0x1F ADD PUSH1 0x20 DUP1 SWAP2 DIV MUL PUSH1 0x20 ADD PUSH1 0x40 MLOAD SWAP1 DUP2 ADD PUSH1 0x40 MSTORE DUP1 SWAP3 SWAP2 SWAP1 DUP2 DUP2 MSTORE PUSH1 0x20 ADD DUP3 DUP1 SLOAD PUSH2 0x14EF SWAP1 PUSH2 0x5AFE JUMP JUMPDEST DUP1 ISZERO PUSH2 0x153C JUMPI DUP1 PUSH1 0x1F LT PUSH2 0x1511 JUMPI PUSH2 0x100 DUP1 DUP4 SLOAD DIV MUL DUP4 MSTORE SWAP2 PUSH1 0x20 ADD SWAP2 PUSH2 0x153C JUMP JUMPDEST DUP3 ADD SWAP2 SWAP1 PUSH1 0x0 MSTORE PUSH1 0x20 PUSH1 0x0 KECCAK256 SWAP1 JUMPDEST DUP2 SLOAD DUP2 MSTORE SWAP1 PUSH1 0x1 ADD SWAP1 PUSH1 0x20 ADD DUP1 DUP4 GT PUSH2 0x151F JUMPI DUP3 SWAP1 SUB PUSH1 0x1F AND DUP3 ADD SWAP2 JUMPDEST POP POP POP POP POP DUP2 MSTORE PUSH1 0x20 ADD SWAP1 PUSH1 0x1 ADD SWAP1 PUSH2 0x14A4 JUMP JUMPDEST POP POP POP POP DUP2 MSTORE POP POP DUP2 MSTORE PUSH1 0x20 ADD PUSH1 0x5 DUP3 ADD DUP1 SLOAD DUP1 PUSH1 0x20 MUL PUSH1 0x20 ADD PUSH1 0x40 MLOAD SWAP1 DUP2 ADD PUSH1 0x40 MSTORE DUP1 SWAP3 SWAP2 SWAP1 DUP2 DUP2 MSTORE PUSH1 0x20 ADD DUP3 DUP1 SLOAD DUP1 ISZERO PUSH2 0x15AB JUMPI PUSH1 0x20 MUL DUP3 ADD SWAP2 SWAP1 PUSH1 0x0 MSTORE PUSH1 0x20 PUSH1 0x0 KECCAK256 SWAP1 JUMPDEST DUP2 SLOAD DUP2 MSTORE PUSH1 0x20 ADD SWAP1 PUSH1 0x1 ADD SWAP1 DUP1 DUP4 GT PUSH2 0x1597 JUMPI JUMPDEST POP POP POP POP POP DUP2 MSTORE PUSH1 0x20 ADD PUSH1 0x6 DUP3 ADD DUP1 SLOAD DUP1 PUSH1 0x20 MUL PUSH1 0x20 ADD PUSH1 0x40 MLOAD SWAP1 DUP2 ADD PUSH1 0x40 MSTORE DUP1 SWAP3 SWAP2 SWAP1 DUP2 DUP2 MSTORE PUSH1 0x20 ADD DUP3 DUP1 SLOAD DUP1 ISZERO PUSH2 0x1603 JUMPI PUSH1 0x20 MUL DUP3 ADD SWAP2 SWAP1 PUSH1 0x0 MSTORE PUSH1 0x20 PUSH1 0x0 KECCAK256 SWAP1 JUMPDEST DUP2 SLOAD DUP2 MSTORE PUSH1 0x20 ADD SWAP1 PUSH1 0x1 ADD SWAP1 DUP1 DUP4 GT PUSH2 0x15EF JUMPI JUMPDEST POP POP POP SWAP2 DUP4 MSTORE POP POP PUSH1 0x7 SWAP2 SWAP1 SWAP2 ADD SLOAD PUSH1 0xFF AND PUSH1 0x20 SWAP1 SWAP2 ADD MSTORE DUP1 MLOAD SWAP1 SWAP2 POP PUSH1 0x0 SUB PUSH2 0x166F JUMPI PUSH1 0x40 MLOAD PUSH3 0x461BCD PUSH1 0xE5 SHL DUP2 MSTORE PUSH1 0x20 PUSH1 0x4 DUP3 ADD MSTORE PUSH1 0x15 PUSH1 0x24 DUP3 ADD MSTORE PUSH32 0x56657273696F6E20646F65736E27742065786973740000000000000000000000 PUSH1 0x44 DUP3 ADD MSTORE PUSH1 0x64 ADD PUSH2 0x3E8 JUMP JUMPDEST PUSH1 0x0 DUP2 PUSH1 0xC0 ADD MLOAD MLOAD PUSH8 0xFFFFFFFFFFFFFFFF DUP2 GT ISZERO PUSH2 0x168F JUMPI PUSH2 0x168F PUSH2 0x4A53 JUMP JUMPDEST PUSH1 0x40 MLOAD SWAP1 DUP1 DUP3 MSTORE DUP1 PUSH1 0x20 MUL PUSH1 0x20 ADD DUP3 ADD PUSH1 0x40 MSTORE DUP1 ISZERO PUSH2 0x16EB JUMPI DUP2 PUSH1 0x20 ADD JUMPDEST PUSH1 0x40 DUP1 MLOAD PUSH1 0xA0 DUP2 ADD DUP3 MSTORE PUSH1 0x60 DUP1 DUP3 MSTORE PUSH1 0x20 DUP3 ADD DUP2 SWAP1 MSTORE PUSH1 0x0 SWAP3 DUP3 ADD DUP4 SWAP1 MSTORE DUP2 ADD DUP3 SWAP1 MSTORE PUSH1 0x80 DUP2 ADD SWAP2 SWAP1 SWAP2 MSTORE DUP2 MSTORE PUSH1 0x20 ADD SWAP1 PUSH1 0x1 SWAP1 SUB SWAP1 DUP2 PUSH2 0x16AD JUMPI SWAP1 POP JUMPDEST POP SWAP1 POP PUSH1 0x0 JUMPDEST DUP3 PUSH1 0xC0 ADD MLOAD MLOAD DUP2 LT ISZERO PUSH2 0x1E16 JUMPI PUSH1 0x0 PUSH1 0x1 PUSH1 0x0 DUP6 PUSH1 0xC0 ADD MLOAD DUP5 DUP2 MLOAD DUP2 LT PUSH2 0x171A JUMPI PUSH2 0x171A PUSH2 0x5AE8 JUMP JUMPDEST PUSH1 0x20 MUL PUSH1 0x20 ADD ADD MLOAD DUP2 MSTORE PUSH1 0x20 ADD SWAP1 DUP2 MSTORE PUSH1 0x20 ADD PUSH1 0x0 KECCAK256 PUSH1 0x40 MLOAD DUP1 PUSH2 0x120 ADD PUSH1 0x40 MSTORE SWAP1 DUP2 PUSH1 0x0 DUP3 ADD SLOAD DUP2 MSTORE PUSH1 0x20 ADD PUSH1 0x1 DUP3 ADD DUP1 SLOAD PUSH2 0x1756 SWAP1 PUSH2 0x5AFE JUMP JUMPDEST DUP1 PUSH1 0x1F ADD PUSH1 0x20 DUP1 SWAP2 DIV MUL PUSH1 0x20 ADD PUSH1 0x40 MLOAD SWAP1 DUP2 ADD PUSH1 0x40 MSTORE DUP1 SWAP3 SWAP2 SWAP1 DUP2 DUP2 MSTORE PUSH1 0x20 ADD DUP3 DUP1 SLOAD PUSH2 0x1782 SWAP1 PUSH2 0x5AFE JUMP JUMPDEST DUP1 ISZERO PUSH2 0x17CF JUMPI DUP1 PUSH1 0x1F LT PUSH2 0x17A4 JUMPI PUSH2 0x100 DUP1 DUP4 SLOAD DIV MUL DUP4 MSTORE SWAP2 PUSH1 0x20 ADD SWAP2 PUSH2 0x17CF JUMP JUMPDEST DUP3 ADD SWAP2 SWAP1 PUSH1 0x0 MSTORE PUSH1 0x20 PUSH1 0x0 KECCAK256 SWAP1 JUMPDEST DUP2 SLOAD DUP2 MSTORE SWAP1 PUSH1 0x1 ADD SWAP1 PUSH1 0x20 ADD DUP1 DUP4 GT PUSH2 0x17B2 JUMPI DUP3 SWAP1 SUB PUSH1 0x1F AND DUP3 ADD SWAP2 JUMPDEST POP POP POP SWAP2 DUP4 MSTORE POP POP PUSH1 0x2 DUP3 ADD SLOAD PUSH1 0xFF DUP1 DUP3 AND PUSH1 0x20 DUP1 DUP6 ADD SWAP2 SWAP1 SWAP2 MSTORE PUSH2 0x100 DUP4 DIV DUP3 AND PUSH1 0x40 DUP1 DUP7 ADD SWAP2 SWAP1 SWAP2 MSTORE PUSH3 0x10000 SWAP1 SWAP4 DIV SWAP1 SWAP2 AND PUSH1 0x60 DUP5 ADD MSTORE DUP2 MLOAD DUP1 DUP4 ADD DUP4 MSTORE PUSH1 0x3 DUP6 ADD DUP1 SLOAD DUP3 MSTORE PUSH1 0x4 DUP7 ADD DUP1 SLOAD DUP6 MLOAD DUP2 DUP7 MUL DUP2 ADD DUP7 ADD SWAP1 SWAP7 MSTORE DUP1 DUP7 MSTORE PUSH1 0x80 SWAP1 SWAP7 ADD SWAP6 SWAP3 SWAP5 SWAP2 SWAP4 DUP6 DUP2 ADD SWAP4 SWAP1 PUSH1 0x0 SWAP1 DUP5 ADD JUMPDEST DUP3 DUP3 LT ISZERO PUSH2 0x18EE JUMPI DUP4 DUP3 SWAP1 PUSH1 0x0 MSTORE PUSH1 0x20 PUSH1 0x0 KECCAK256 ADD DUP1 SLOAD PUSH2 0x1861 SWAP1 PUSH2 0x5AFE JUMP JUMPDEST DUP1 PUSH1 0x1F ADD PUSH1 0x20 DUP1 SWAP2 DIV MUL PUSH1 0x20 ADD PUSH1 0x40 MLOAD SWAP1 DUP2 ADD PUSH1 0x40 MSTORE DUP1 SWAP3 SWAP2 SWAP1 DUP2 DUP2 MSTORE PUSH1 0x20 ADD DUP3 DUP1 SLOAD PUSH2 0x188D SWAP1 PUSH2 0x5AFE JUMP JUMPDEST DUP1 ISZERO PUSH2 0x18DA JUMPI DUP1 PUSH1 0x1F LT PUSH2 0x18AF JUMPI PUSH2 0x100 DUP1 DUP4 SLOAD DIV MUL DUP4 MSTORE SWAP2 PUSH1 0x20 ADD SWAP2 PUSH2 0x18DA JUMP JUMPDEST DUP3 ADD SWAP2 SWAP1 PUSH1 0x0 MSTORE PUSH1 0x20 PUSH1 0x0 KECCAK256 SWAP1 JUMPDEST DUP2 SLOAD DUP2 MSTORE SWAP1 PUSH1 0x1 ADD SWAP1 PUSH1 0x20 ADD DUP1 DUP4 GT PUSH2 0x18BD JUMPI DUP3 SWAP1 SUB PUSH1 0x1F AND DUP3 ADD SWAP2 JUMPDEST POP POP POP POP POP DUP2 MSTORE PUSH1 0x20 ADD SWAP1 PUSH1 0x1 ADD SWAP1 PUSH2 0x1842 JUMP JUMPDEST POP POP POP POP DUP2 MSTORE POP POP DUP2 MSTORE PUSH1 0x20 ADD PUSH1 0x5 DUP3 ADD DUP1 SLOAD DUP1 PUSH1 0x20 MUL PUSH1 0x20 ADD PUSH1 0x40 MLOAD SWAP1 DUP2 ADD PUSH1 0x40 MSTORE DUP1 SWAP3 SWAP2 SWAP1 DUP2 DUP2 MSTORE PUSH1 0x20 ADD DUP3 DUP1 SLOAD DUP1 ISZERO PUSH2 0x1949 JUMPI PUSH1 0x20 MUL DUP3 ADD SWAP2 SWAP1 PUSH1 0x0 MSTORE PUSH1 0x20 PUSH1 0x0 KECCAK256 SWAP1 JUMPDEST DUP2 SLOAD DUP2 MSTORE PUSH1 0x20 ADD SWAP1 PUSH1 0x1 ADD SWAP1 DUP1 DUP4 GT PUSH2 0x1935 JUMPI JUMPDEST POP POP POP POP POP DUP2 MSTORE PUSH1 0x20 ADD PUSH1 0x6 DUP3 ADD DUP1 SLOAD DUP1 PUSH1 0x20 MUL PUSH1 0x20 ADD PUSH1 0x40 MLOAD SWAP1 DUP2 ADD PUSH1 0x40 MSTORE DUP1 SWAP3 SWAP2 SWAP1 DUP2 DUP2 MSTORE PUSH1 0x20 ADD DUP3 DUP1 SLOAD DUP1 ISZERO PUSH2 0x19A1 JUMPI PUSH1 0x20 MUL DUP3 ADD SWAP2 SWAP1 PUSH1 0x0 MSTORE PUSH1 0x20 PUSH1 0x0 KECCAK256 SWAP1 JUMPDEST DUP2 SLOAD DUP2 MSTORE PUSH1 0x20 ADD SWAP1 PUSH1 0x1 ADD SWAP1 DUP1 DUP4 GT PUSH2 0x198D JUMPI JUMPDEST POP POP POP SWAP2 DUP4 MSTORE POP POP PUSH1 0x7 SWAP2 SWAP1 SWAP2 ADD SLOAD PUSH1 0xFF AND PUSH1 0x20 SWAP1 SWAP2 ADD MSTORE DUP1 MLOAD PUSH1 0x5 DUP1 SLOAD SWAP3 SWAP4 POP PUSH1 0x0 SWAP3 SWAP1 SWAP2 SWAP1 DUP2 LT PUSH2 0x19D6 JUMPI PUSH2 0x19D6 PUSH2 0x5AE8 JUMP JUMPDEST PUSH1 0x0 SWAP2 DUP3 MSTORE PUSH1 0x20 SWAP2 DUP3 SWAP1 KECCAK256 PUSH1 0x40 DUP1 MLOAD PUSH2 0x100 DUP2 ADD SWAP1 SWAP2 MSTORE PUSH1 0x9 SWAP1 SWAP3 MUL ADD DUP1 SLOAD PUSH1 0xFF AND DUP3 MSTORE PUSH1 0x1 DUP2 ADD DUP1 SLOAD SWAP3 SWAP4 SWAP2 SWAP3 SWAP2 DUP5 ADD SWAP2 PUSH2 0x1A11 SWAP1 PUSH2 0x5AFE JUMP JUMPDEST DUP1 PUSH1 0x1F ADD PUSH1 0x20 DUP1 SWAP2 DIV MUL PUSH1 0x20 ADD PUSH1 0x40 MLOAD SWAP1 DUP2 ADD PUSH1 0x40 MSTORE DUP1 SWAP3 SWAP2 SWAP1 DUP2 DUP2 MSTORE PUSH1 0x20 ADD DUP3 DUP1 SLOAD PUSH2 0x1A3D SWAP1 PUSH2 0x5AFE JUMP JUMPDEST DUP1 ISZERO PUSH2 0x1A8A JUMPI DUP1 PUSH1 0x1F LT PUSH2 0x1A5F JUMPI PUSH2 0x100 DUP1 DUP4 SLOAD DIV MUL DUP4 MSTORE SWAP2 PUSH1 0x20 ADD SWAP2 PUSH2 0x1A8A JUMP JUMPDEST DUP3 ADD SWAP2 SWAP1 PUSH1 0x0 MSTORE PUSH1 0x20 PUSH1 0x0 KECCAK256 SWAP1 JUMPDEST DUP2 SLOAD DUP2 MSTORE SWAP1 PUSH1 0x1 ADD SWAP1 PUSH1 0x20 ADD DUP1 DUP4 GT PUSH2 0x1A6D JUMPI DUP3 SWAP1 SUB PUSH1 0x1F AND DUP3 ADD SWAP2 JUMPDEST POP POP POP POP POP DUP2 MSTORE PUSH1 0x20 ADD PUSH1 0x2 DUP3 ADD DUP1 SLOAD PUSH2 0x1AA3 SWAP1 PUSH2 0x5AFE JUMP JUMPDEST DUP1 PUSH1 0x1F ADD PUSH1 0x20 DUP1 SWAP2 DIV MUL PUSH1 0x20 ADD PUSH1 0x40 MLOAD SWAP1 DUP2 ADD PUSH1 0x40 MSTORE DUP1 SWAP3 SWAP2 SWAP1 DUP2 DUP2 MSTORE PUSH1 0x20 ADD DUP3 DUP1 SLOAD PUSH2 0x1ACF SWAP1 PUSH2 0x5AFE JUMP JUMPDEST DUP1 ISZERO PUSH2 0x1B1C JUMPI DUP1 PUSH1 0x1F LT PUSH2 0x1AF1 JUMPI PUSH2 0x100 DUP1 DUP4 SLOAD DIV MUL DUP4 MSTORE SWAP2 PUSH1 0x20 ADD SWAP2 PUSH2 0x1B1C JUMP JUMPDEST DUP3 ADD SWAP2 SWAP1 PUSH1 0x0 MSTORE PUSH1 0x20 PUSH1 0x0 KECCAK256 SWAP1 JUMPDEST DUP2 SLOAD DUP2 MSTORE SWAP1 PUSH1 0x1 ADD SWAP1 PUSH1 0x20 ADD DUP1 DUP4 GT PUSH2 0x1AFF JUMPI DUP3 SWAP1 SUB PUSH1 0x1F AND DUP3 ADD SWAP2 JUMPDEST POP POP POP POP POP DUP2 MSTORE PUSH1 0x20 ADD PUSH1 0x3 DUP3 ADD DUP1 SLOAD PUSH2 0x1B35 SWAP1 PUSH2 0x5AFE JUMP JUMPDEST DUP1 PUSH1 0x1F ADD PUSH1 0x20 DUP1 SWAP2 DIV MUL PUSH1 0x20 ADD PUSH1 0x40 MLOAD SWAP1 DUP2 ADD PUSH1 0x40 MSTORE DUP1 SWAP3 SWAP2 SWAP1 DUP2 DUP2 MSTORE PUSH1 0x20 ADD DUP3 DUP1 SLOAD PUSH2 0x1B61 SWAP1 PUSH2 0x5AFE JUMP JUMPDEST DUP1 ISZERO PUSH2 0x1BAE JUMPI DUP1 PUSH1 0x1F LT PUSH2 0x1B83 JUMPI PUSH2 0x100 DUP1 DUP4 SLOAD DIV MUL DUP4 MSTORE SWAP2 PUSH1 0x20 ADD SWAP2 PUSH2 0x1BAE JUMP JUMPDEST DUP3 ADD SWAP2 SWAP1 PUSH1 0x0 MSTORE PUSH1 0x20 PUSH1 0x0 KECCAK256 SWAP1 JUMPDEST DUP2 SLOAD DUP2 MSTORE SWAP1 PUSH1 0x1 ADD SWAP1 PUSH1 0x20 ADD DUP1 DUP4 GT PUSH2 0x1B91 JUMPI DUP3 SWAP1 SUB PUSH1 0x1F AND DUP3 ADD SWAP2 JUMPDEST POP POP POP POP POP DUP2 MSTORE PUSH1 0x20 ADD PUSH1 0x4 DUP3 ADD PUSH1 0x40 MLOAD DUP1 PUSH1 0x40 ADD PUSH1 0x40 MSTORE SWAP1 DUP2 PUSH1 0x0 DUP3 ADD SLOAD DUP2 MSTORE PUSH1 0x20 ADD PUSH1 0x1 DUP3 ADD DUP1 SLOAD DUP1 PUSH1 0x20 MUL PUSH1 0x20 ADD PUSH1 0x40 MLOAD SWAP1 DUP2 ADD PUSH1 0x40 MSTORE DUP1 SWAP3 SWAP2 SWAP1 DUP2 DUP2 MSTORE PUSH1 0x20 ADD PUSH1 0x0 SWAP1 JUMPDEST DUP3 DUP3 LT ISZERO PUSH2 0x1CA2 JUMPI DUP4 DUP3 SWAP1 PUSH1 0x0 MSTORE PUSH1 0x20 PUSH1 0x0 KECCAK256 ADD DUP1 SLOAD PUSH2 0x1C15 SWAP1 PUSH2 0x5AFE JUMP JUMPDEST DUP1 PUSH1 0x1F ADD PUSH1 0x20 DUP1 SWAP2 DIV MUL PUSH1 0x20 ADD PUSH1 0x40 MLOAD SWAP1 DUP2 ADD PUSH1 0x40 MSTORE DUP1 SWAP3 SWAP2 SWAP1 DUP2 DUP2 MSTORE PUSH1 0x20 ADD DUP3 DUP1 SLOAD PUSH2 0x1C41 SWAP1 PUSH2 0x5AFE JUMP JUMPDEST DUP1 ISZERO PUSH2 0x1C8E JUMPI DUP1 PUSH1 0x1F LT PUSH2 0x1C63 JUMPI PUSH2 0x100 DUP1 DUP4 SLOAD DIV MUL DUP4 MSTORE SWAP2 PUSH1 0x20 ADD SWAP2 PUSH2 0x1C8E JUMP JUMPDEST DUP3 ADD SWAP2 SWAP1 PUSH1 0x0 MSTORE PUSH1 0x20 PUSH1 0x0 KECCAK256 SWAP1 JUMPDEST DUP2 SLOAD DUP2 MSTORE SWAP1 PUSH1 0x1 ADD SWAP1 PUSH1 0x20 ADD DUP1 DUP4 GT PUSH2 0x1C71 JUMPI DUP3 SWAP1 SUB PUSH1 0x1F AND DUP3 ADD SWAP2 JUMPDEST POP POP POP POP POP DUP2 MSTORE PUSH1 0x20 ADD SWAP1 PUSH1 0x1 ADD SWAP1 PUSH2 0x1BF6 JUMP JUMPDEST POP POP POP SWAP2 MSTORE POP POP DUP2 MSTORE PUSH1 0x6 DUP3 ADD SLOAD PUSH1 0x1 PUSH1 0x1 PUSH1 0xA0 SHL SUB AND PUSH1 0x20 DUP1 DUP4 ADD SWAP2 SWAP1 SWAP2 MSTORE PUSH1 0x7 DUP4 ADD DUP1 SLOAD PUSH1 0x40 DUP1 MLOAD DUP3 DUP6 MUL DUP2 ADD DUP6 ADD DUP3 MSTORE DUP3 DUP2 MSTORE SWAP5 ADD SWAP4 SWAP3 PUSH1 0x0 SWAP1 DUP5 ADD JUMPDEST DUP3 DUP3 LT ISZERO PUSH2 0x1D8E JUMPI DUP4 DUP3 SWAP1 PUSH1 0x0 MSTORE PUSH1 0x20 PUSH1 0x0 KECCAK256 ADD DUP1 SLOAD PUSH2 0x1D01 SWAP1 PUSH2 0x5AFE JUMP JUMPDEST DUP1 PUSH1 0x1F ADD PUSH1 0x20 DUP1 SWAP2 DIV MUL PUSH1 0x20 ADD PUSH1 0x40 MLOAD SWAP1 DUP2 ADD PUSH1 0x40 MSTORE DUP1 SWAP3 SWAP2 SWAP1 DUP2 DUP2 MSTORE PUSH1 0x20 ADD DUP3 DUP1 SLOAD PUSH2 0x1D2D SWAP1 PUSH2 0x5AFE JUMP JUMPDEST DUP1 ISZERO PUSH2 0x1D7A JUMPI DUP1 PUSH1 0x1F LT PUSH2 0x1D4F JUMPI PUSH2 0x100 DUP1 DUP4 SLOAD DIV MUL DUP4 MSTORE SWAP2 PUSH1 0x20 ADD SWAP2 PUSH2 0x1D7A JUMP JUMPDEST DUP3 ADD SWAP2 SWAP1 PUSH1 0x0 MSTORE PUSH1 0x20 PUSH1 0x0 KECCAK256 SWAP1 JUMPDEST DUP2 SLOAD DUP2 MSTORE SWAP1 PUSH1 0x1 ADD SWAP1 PUSH1 0x20 ADD DUP1 DUP4 GT PUSH2 0x1D5D JUMPI DUP3 SWAP1 SUB PUSH1 0x1F AND DUP3 ADD SWAP2 JUMPDEST POP POP POP POP POP DUP2 MSTORE PUSH1 0x20 ADD SWAP1 PUSH1 0x1 ADD SWAP1 PUSH2 0x1CE2 JUMP JUMPDEST POP POP POP POP DUP2 MSTORE PUSH1 0x20 ADD PUSH1 0x8 DUP3 ADD SLOAD DUP2 MSTORE POP POP SWAP1 POP PUSH1 0x40 MLOAD DUP1 PUSH1 0xA0 ADD PUSH1 0x40 MSTORE DUP1 DUP3 PUSH1 0x20 ADD MLOAD DUP2 MSTORE PUSH1 0x20 ADD DUP4 PUSH1 0x20 ADD MLOAD DUP2 MSTORE PUSH1 0x20 ADD DUP4 PUSH1 0x40 ADD MLOAD PUSH1 0xFF AND DUP2 MSTORE PUSH1 0x20 ADD DUP4 PUSH1 0x60 ADD MLOAD PUSH1 0xFF AND DUP2 MSTORE PUSH1 0x20 ADD DUP4 PUSH1 0x80 ADD MLOAD PUSH1 0xFF AND DUP2 MSTORE POP DUP5 DUP5 DUP2 MLOAD DUP2 LT PUSH2 0x1DF8 JUMPI PUSH2 0x1DF8 PUSH2 0x5AE8 JUMP JUMPDEST PUSH1 0x20 MUL PUSH1 0x20 ADD ADD DUP2 SWAP1 MSTORE POP POP POP DUP1 PUSH2 0x1E0F SWAP1 PUSH2 0x5BAF JUMP JUMPDEST SWAP1 POP PUSH2 0x16F1 JUMP JUMPDEST POP PUSH1 0x0 DUP3 PUSH1 0xE0 ADD MLOAD MLOAD PUSH8 0xFFFFFFFFFFFFFFFF DUP2 GT ISZERO PUSH2 0x1E37 JUMPI PUSH2 0x1E37 PUSH2 0x4A53 JUMP JUMPDEST PUSH1 0x40 MLOAD SWAP1 DUP1 DUP3 MSTORE DUP1 PUSH1 0x20 MUL PUSH1 0x20 ADD DUP3 ADD PUSH1 0x40 MSTORE DUP1 ISZERO PUSH2 0x1E93 JUMPI DUP2 PUSH1 0x20 ADD JUMPDEST PUSH1 0x40 DUP1 MLOAD PUSH1 0xA0 DUP2 ADD DUP3 MSTORE PUSH1 0x60 DUP1 DUP3 MSTORE PUSH1 0x20 DUP3 ADD DUP2 SWAP1 MSTORE PUSH1 0x0 SWAP3 DUP3 ADD DUP4 SWAP1 MSTORE DUP2 ADD DUP3 SWAP1 MSTORE PUSH1 0x80 DUP2 ADD SWAP2 SWAP1 SWAP2 MSTORE DUP2 MSTORE PUSH1 0x20 ADD SWAP1 PUSH1 0x1 SWAP1 SUB SWAP1 DUP2 PUSH2 0x1E55 JUMPI SWAP1 POP JUMPDEST POP SWAP1 POP PUSH1 0x0 JUMPDEST DUP4 PUSH1 0xE0 ADD MLOAD MLOAD DUP2 LT ISZERO PUSH2 0x25BE JUMPI PUSH1 0x0 PUSH1 0x1 PUSH1 0x0 DUP7 PUSH1 0xE0 ADD MLOAD DUP5 DUP2 MLOAD DUP2 LT PUSH2 0x1EC2 JUMPI PUSH2 0x1EC2 PUSH2 0x5AE8 JUMP JUMPDEST PUSH1 0x20 MUL PUSH1 0x20 ADD ADD MLOAD DUP2 MSTORE PUSH1 0x20 ADD SWAP1 DUP2 MSTORE PUSH1 0x20 ADD PUSH1 0x0 KECCAK256 PUSH1 0x40 MLOAD DUP1 PUSH2 0x120 ADD PUSH1 0x40 MSTORE SWAP1 DUP2 PUSH1 0x0 DUP3 ADD SLOAD DUP2 MSTORE PUSH1 0x20 ADD PUSH1 0x1 DUP3 ADD DUP1 SLOAD PUSH2 0x1EFE SWAP1 PUSH2 0x5AFE JUMP JUMPDEST DUP1 PUSH1 0x1F ADD PUSH1 0x20 DUP1 SWAP2 DIV MUL PUSH1 0x20 ADD PUSH1 0x40 MLOAD SWAP1 DUP2 ADD PUSH1 0x40 MSTORE DUP1 SWAP3 SWAP2 SWAP1 DUP2 DUP2 MSTORE PUSH1 0x20 ADD DUP3 DUP1 SLOAD PUSH2 0x1F2A SWAP1 PUSH2 0x5AFE JUMP JUMPDEST DUP1 ISZERO PUSH2 0x1F77 JUMPI DUP1 PUSH1 0x1F LT PUSH2 0x1F4C JUMPI PUSH2 0x100 DUP1 DUP4 SLOAD DIV MUL DUP4 MSTORE SWAP2 PUSH1 0x20 ADD SWAP2 PUSH2 0x1F77 JUMP JUMPDEST DUP3 ADD SWAP2 SWAP1 PUSH1 0x0 MSTORE PUSH1 0x20 PUSH1 0x0 KECCAK256 SWAP1 JUMPDEST DUP2 SLOAD DUP2 MSTORE SWAP1 PUSH1 0x1 ADD SWAP1 PUSH1 0x20 ADD DUP1 DUP4 GT PUSH2 0x1F5A JUMPI DUP3 SWAP1 SUB PUSH1 0x1F AND DUP3 ADD SWAP2 JUMPDEST POP POP POP SWAP2 DUP4 MSTORE POP POP PUSH1 0x2 DUP3 ADD SLOAD PUSH1 0xFF DUP1 DUP3 AND PUSH1 0x20 DUP1 DUP6 ADD SWAP2 SWAP1 SWAP2 MSTORE PUSH2 0x100 DUP4 DIV DUP3 AND PUSH1 0x40 DUP1 DUP7 ADD SWAP2 SWAP1 SWAP2 MSTORE PUSH3 0x10000 SWAP1 SWAP4 DIV SWAP1 SWAP2 AND PUSH1 0x60 DUP5 ADD MSTORE DUP2 MLOAD DUP1 DUP4 ADD DUP4 MSTORE PUSH1 0x3 DUP6 ADD DUP1 SLOAD DUP3 MSTORE PUSH1 0x4 DUP7 ADD DUP1 SLOAD DUP6 MLOAD DUP2 DUP7 MUL DUP2 ADD DUP7 ADD SWAP1 SWAP7 MSTORE DUP1 DUP7 MSTORE PUSH1 0x80 SWAP1 SWAP7 ADD SWAP6 SWAP3 SWAP5 SWAP2 SWAP4 DUP6 DUP2 ADD SWAP4 SWAP1 PUSH1 0x0 SWAP1 DUP5 ADD JUMPDEST DUP3 DUP3 LT ISZERO PUSH2 0x2096 JUMPI DUP4 DUP3 SWAP1 PUSH1 0x0 MSTORE PUSH1 0x20 PUSH1 0x0 KECCAK256 ADD DUP1 SLOAD PUSH2 0x2009 SWAP1 PUSH2 0x5AFE JUMP JUMPDEST DUP1 PUSH1 0x1F ADD PUSH1 0x20 DUP1 SWAP2 DIV MUL PUSH1 0x20 ADD PUSH1 0x40 MLOAD SWAP1 DUP2 ADD PUSH1 0x40 MSTORE DUP1 SWAP3 SWAP2 SWAP1 DUP2 DUP2 MSTORE PUSH1 0x20 ADD DUP3 DUP1 SLOAD PUSH2 0x2035 SWAP1 PUSH2 0x5AFE JUMP JUMPDEST DUP1 ISZERO PUSH2 0x2082 JUMPI DUP1 PUSH1 0x1F LT PUSH2 0x2057 JUMPI PUSH2 0x100 DUP1 DUP4 SLOAD DIV MUL DUP4 MSTORE SWAP2 PUSH1 0x20 ADD SWAP2 PUSH2 0x2082 JUMP JUMPDEST DUP3 ADD SWAP2 SWAP1 PUSH1 0x0 MSTORE PUSH1 0x20 PUSH1 0x0 KECCAK256 SWAP1 JUMPDEST DUP2 SLOAD DUP2 MSTORE SWAP1 PUSH1 0x1 ADD SWAP1 PUSH1 0x20 ADD DUP1 DUP4 GT PUSH2 0x2065 JUMPI DUP3 SWAP1 SUB PUSH1 0x1F AND DUP3 ADD SWAP2 JUMPDEST POP POP POP POP POP DUP2 MSTORE PUSH1 0x20 ADD SWAP1 PUSH1 0x1 ADD SWAP1 PUSH2 0x1FEA JUMP JUMPDEST POP POP POP POP DUP2 MSTORE POP POP DUP2 MSTORE PUSH1 0x20 ADD PUSH1 0x5 DUP3 ADD DUP1 SLOAD DUP1 PUSH1 0x20 MUL PUSH1 0x20 ADD PUSH1 0x40 MLOAD SWAP1 DUP2 ADD PUSH1 0x40 MSTORE DUP1 SWAP3 SWAP2 SWAP1 DUP2 DUP2 MSTORE PUSH1 0x20 ADD DUP3 DUP1 SLOAD DUP1 ISZERO PUSH2 0x20F1 JUMPI PUSH1 0x20 MUL DUP3 ADD SWAP2 SWAP1 PUSH1 0x0 MSTORE PUSH1 0x20 PUSH1 0x0 KECCAK256 SWAP1 JUMPDEST DUP2 SLOAD DUP2 MSTORE PUSH1 0x20 ADD SWAP1 PUSH1 0x1 ADD SWAP1 DUP1 DUP4 GT PUSH2 0x20DD JUMPI JUMPDEST POP POP POP POP POP DUP2 MSTORE PUSH1 0x20 ADD PUSH1 0x6 DUP3 ADD DUP1 SLOAD DUP1 PUSH1 0x20 MUL PUSH1 0x20 ADD PUSH1 0x40 MLOAD SWAP1 DUP2 ADD PUSH1 0x40 MSTORE DUP1 SWAP3 SWAP2 SWAP1 DUP2 DUP2 MSTORE PUSH1 0x20 ADD DUP3 DUP1 SLOAD DUP1 ISZERO PUSH2 0x2149 JUMPI PUSH1 0x20 MUL DUP3 ADD SWAP2 SWAP1 PUSH1 0x0 MSTORE PUSH1 0x20 PUSH1 0x0 KECCAK256 SWAP1 JUMPDEST DUP2 SLOAD DUP2 MSTORE PUSH1 0x20 ADD SWAP1 PUSH1 0x1 ADD SWAP1 DUP1 DUP4 GT PUSH2 0x2135 JUMPI JUMPDEST POP POP POP SWAP2 DUP4 MSTORE POP POP PUSH1 0x7 SWAP2 SWAP1 SWAP2 ADD SLOAD PUSH1 0xFF AND PUSH1 0x20 SWAP1 SWAP2 ADD MSTORE DUP1 MLOAD PUSH1 0x5 DUP1 SLOAD SWAP3 SWAP4 POP PUSH1 0x0 SWAP3 SWAP1 SWAP2 SWAP1 DUP2 LT PUSH2 0x217E JUMPI PUSH2 0x217E PUSH2 0x5AE8 JUMP JUMPDEST PUSH1 0x0 SWAP2 DUP3 MSTORE PUSH1 0x20 SWAP2 DUP3 SWAP1 KECCAK256 PUSH1 0x40 DUP1 MLOAD PUSH2 0x100 DUP2 ADD SWAP1 SWAP2 MSTORE PUSH1 0x9 SWAP1 SWAP3 MUL ADD DUP1 SLOAD PUSH1 0xFF AND DUP3 MSTORE PUSH1 0x1 DUP2 ADD DUP1 SLOAD SWAP3 SWAP4 SWAP2 SWAP3 SWAP2 DUP5 ADD SWAP2 PUSH2 0x21B9 SWAP1 PUSH2 0x5AFE JUMP JUMPDEST DUP1 PUSH1 0x1F ADD PUSH1 0x20 DUP1 SWAP2 DIV MUL PUSH1 0x20 ADD PUSH1 0x40 MLOAD SWAP1 DUP2 ADD PUSH1 0x40 MSTORE DUP1 SWAP3 SWAP2 SWAP1 DUP2 DUP2 MSTORE PUSH1 0x20 ADD DUP3 DUP1 SLOAD PUSH2 0x21E5 SWAP1 PUSH2 0x5AFE JUMP JUMPDEST DUP1 ISZERO PUSH2 0x2232 JUMPI DUP1 PUSH1 0x1F LT PUSH2 0x2207 JUMPI PUSH2 0x100 DUP1 DUP4 SLOAD DIV MUL DUP4 MSTORE SWAP2 PUSH1 0x20 ADD SWAP2 PUSH2 0x2232 JUMP JUMPDEST DUP3 ADD SWAP2 SWAP1 PUSH1 0x0 MSTORE PUSH1 0x20 PUSH1 0x0 KECCAK256 SWAP1 JUMPDEST DUP2 SLOAD DUP2 MSTORE SWAP1 PUSH1 0x1 ADD SWAP1 PUSH1 0x20 ADD DUP1 DUP4 GT PUSH2 0x2215 JUMPI DUP3 SWAP1 SUB PUSH1 0x1F AND DUP3 ADD SWAP2 JUMPDEST POP POP POP POP POP DUP2 MSTORE PUSH1 0x20 ADD PUSH1 0x2 DUP3 ADD DUP1 SLOAD PUSH2 0x224B SWAP1 PUSH2 0x5AFE JUMP JUMPDEST DUP1 PUSH1 0x1F ADD PUSH1 0x20 DUP1 SWAP2 DIV MUL PUSH1 0x20 ADD PUSH1 0x40 MLOAD SWAP1 DUP2 ADD PUSH1 0x40 MSTORE DUP1 SWAP3 SWAP2 SWAP1 DUP2 DUP2 MSTORE PUSH1 0x20 ADD DUP3 DUP1 SLOAD PUSH2 0x2277 SWAP1 PUSH2 0x5AFE JUMP JUMPDEST DUP1 ISZERO PUSH2 0x22C4 JUMPI DUP1 PUSH1 0x1F LT PUSH2 0x2299 JUMPI PUSH2 0x100 DUP1 DUP4 SLOAD DIV MUL DUP4 MSTORE SWAP2 PUSH1 0x20 ADD SWAP2 PUSH2 0x22C4 JUMP JUMPDEST DUP3 ADD SWAP2 SWAP1 PUSH1 0x0 MSTORE PUSH1 0x20 PUSH1 0x0 KECCAK256 SWAP1 JUMPDEST DUP2 SLOAD DUP2 MSTORE SWAP1 PUSH1 0x1 ADD SWAP1 PUSH1 0x20 ADD DUP1 DUP4 GT PUSH2 0x22A7 JUMPI DUP3 SWAP1 SUB PUSH1 0x1F AND DUP3 ADD SWAP2 JUMPDEST POP POP POP POP POP DUP2 MSTORE PUSH1 0x20 ADD PUSH1 0x3 DUP3 ADD DUP1 SLOAD PUSH2 0x22DD SWAP1 PUSH2 0x5AFE JUMP JUMPDEST DUP1 PUSH1 0x1F ADD PUSH1 0x20 DUP1 SWAP2 DIV MUL PUSH1 0x20 ADD PUSH1 0x40 MLOAD SWAP1 DUP2 ADD PUSH1 0x40 MSTORE DUP1 SWAP3 SWAP2 SWAP1 DUP2 DUP2 MSTORE PUSH1 0x20 ADD DUP3 DUP1 SLOAD PUSH2 0x2309 SWAP1 PUSH2 0x5AFE JUMP JUMPDEST DUP1 ISZERO PUSH2 0x2356 JUMPI DUP1 PUSH1 0x1F LT PUSH2 0x232B JUMPI PUSH2 0x100 DUP1 DUP4 SLOAD DIV MUL DUP4 MSTORE SWAP2 PUSH1 0x20 ADD SWAP2 PUSH2 0x2356 JUMP JUMPDEST DUP3 ADD SWAP2 SWAP1 PUSH1 0x0 MSTORE PUSH1 0x20 PUSH1 0x0 KECCAK256 SWAP1 JUMPDEST DUP2 SLOAD DUP2 MSTORE SWAP1 PUSH1 0x1 ADD SWAP1 PUSH1 0x20 ADD DUP1 DUP4 GT PUSH2 0x2339 JUMPI DUP3 SWAP1 SUB PUSH1 0x1F AND DUP3 ADD SWAP2 JUMPDEST POP POP POP POP POP DUP2 MSTORE PUSH1 0x20 ADD PUSH1 0x4 DUP3 ADD PUSH1 0x40 MLOAD DUP1 PUSH1 0x40 ADD PUSH1 0x40 MSTORE SWAP1 DUP2 PUSH1 0x0 DUP3 ADD SLOAD DUP2 MSTORE PUSH1 0x20 ADD PUSH1 0x1 DUP3 ADD DUP1 SLOAD DUP1 PUSH1 0x20 MUL PUSH1 0x20 ADD PUSH1 0x40 MLOAD SWAP1 DUP2 ADD PUSH1 0x40 MSTORE DUP1 SWAP3 SWAP2 SWAP1 DUP2 DUP2 MSTORE PUSH1 0x20 ADD PUSH1 0x0 SWAP1 JUMPDEST DUP3 DUP3 LT ISZERO PUSH2 0x244A JUMPI DUP4 DUP3 SWAP1 PUSH1 0x0 MSTORE PUSH1 0x20 PUSH1 0x0 KECCAK256 ADD DUP1 SLOAD PUSH2 0x23BD SWAP1 PUSH2 0x5AFE JUMP JUMPDEST DUP1 PUSH1 0x1F ADD PUSH1 0x20 DUP1 SWAP2 DIV MUL PUSH1 0x20 ADD PUSH1 0x40 MLOAD SWAP1 DUP2 ADD PUSH1 0x40 MSTORE DUP1 SWAP3 SWAP2 SWAP1 DUP2 DUP2 MSTORE PUSH1 0x20 ADD DUP3 DUP1 SLOAD PUSH2 0x23E9 SWAP1 PUSH2 0x5AFE JUMP JUMPDEST DUP1 ISZERO PUSH2 0x2436 JUMPI DUP1 PUSH1 0x1F LT PUSH2 0x240B JUMPI PUSH2 0x100 DUP1 DUP4 SLOAD DIV MUL DUP4 MSTORE SWAP2 PUSH1 0x20 ADD SWAP2 PUSH2 0x2436 JUMP JUMPDEST DUP3 ADD SWAP2 SWAP1 PUSH1 0x0 MSTORE PUSH1 0x20 PUSH1 0x0 KECCAK256 SWAP1 JUMPDEST DUP2 SLOAD DUP2 MSTORE SWAP1 PUSH1 0x1 ADD SWAP1 PUSH1 0x20 ADD DUP1 DUP4 GT PUSH2 0x2419 JUMPI DUP3 SWAP1 SUB PUSH1 0x1F AND DUP3 ADD SWAP2 JUMPDEST POP POP POP POP POP DUP2 MSTORE PUSH1 0x20 ADD SWAP1 PUSH1 0x1 ADD SWAP1 PUSH2 0x239E JUMP JUMPDEST POP POP POP SWAP2 MSTORE POP POP DUP2 MSTORE PUSH1 0x6 DUP3 ADD SLOAD PUSH1 0x1 PUSH1 0x1 PUSH1 0xA0 SHL SUB AND PUSH1 0x20 DUP1 DUP4 ADD SWAP2 SWAP1 SWAP2 MSTORE PUSH1 0x7 DUP4 ADD DUP1 SLOAD PUSH1 0x40 DUP1 MLOAD DUP3 DUP6 MUL DUP2 ADD DUP6 ADD DUP3 MSTORE DUP3 DUP2 MSTORE SWAP5 ADD SWAP4 SWAP3 PUSH1 0x0 SWAP1 DUP5 ADD JUMPDEST DUP3 DUP3 LT ISZERO PUSH2 0x2536 JUMPI DUP4 DUP3 SWAP1 PUSH1 0x0 MSTORE PUSH1 0x20 PUSH1 0x0 KECCAK256 ADD DUP1 SLOAD PUSH2 0x24A9 SWAP1 PUSH2 0x5AFE JUMP JUMPDEST DUP1 PUSH1 0x1F ADD PUSH1 0x20 DUP1 SWAP2 DIV MUL PUSH1 0x20 ADD PUSH1 0x40 MLOAD SWAP1 DUP2 ADD PUSH1 0x40 MSTORE DUP1 SWAP3 SWAP2 SWAP1 DUP2 DUP2 MSTORE PUSH1 0x20 ADD DUP3 DUP1 SLOAD PUSH2 0x24D5 SWAP1 PUSH2 0x5AFE JUMP JUMPDEST DUP1 ISZERO PUSH2 0x2522 JUMPI DUP1 PUSH1 0x1F LT PUSH2 0x24F7 JUMPI PUSH2 0x100 DUP1 DUP4 SLOAD DIV MUL DUP4 MSTORE SWAP2 PUSH1 0x20 ADD SWAP2 PUSH2 0x2522 JUMP JUMPDEST DUP3 ADD SWAP2 SWAP1 PUSH1 0x0 MSTORE PUSH1 0x20 PUSH1 0x0 KECCAK256 SWAP1 JUMPDEST DUP2 SLOAD DUP2 MSTORE SWAP1 PUSH1 0x1 ADD SWAP1 PUSH1 0x20 ADD DUP1 DUP4 GT PUSH2 0x2505 JUMPI DUP3 SWAP1 SUB PUSH1 0x1F AND DUP3 ADD SWAP2 JUMPDEST POP POP POP POP POP DUP2 MSTORE PUSH1 0x20 ADD SWAP1 PUSH1 0x1 ADD SWAP1 PUSH2 0x248A JUMP JUMPDEST POP POP POP POP DUP2 MSTORE PUSH1 0x20 ADD PUSH1 0x8 DUP3 ADD SLOAD DUP2 MSTORE POP POP SWAP1 POP PUSH1 0x40 MLOAD DUP1 PUSH1 0xA0 ADD PUSH1 0x40 MSTORE DUP1 DUP3 PUSH1 0x20 ADD MLOAD DUP2 MSTORE PUSH1 0x20 ADD DUP4 PUSH1 0x20 ADD MLOAD DUP2 MSTORE PUSH1 0x20 ADD DUP4 PUSH1 0x40 ADD MLOAD PUSH1 0xFF AND DUP2 MSTORE PUSH1 0x20 ADD DUP4 PUSH1 0x60 ADD MLOAD PUSH1 0xFF AND DUP2 MSTORE PUSH1 0x20 ADD DUP4 PUSH1 0x80 ADD MLOAD PUSH1 0xFF AND DUP2 MSTORE POP DUP5 DUP5 DUP2 MLOAD DUP2 LT PUSH2 0x25A0 JUMPI PUSH2 0x25A0 PUSH2 0x5AE8 JUMP JUMPDEST PUSH1 0x20 MUL PUSH1 0x20 ADD ADD DUP2 SWAP1 MSTORE POP POP POP DUP1 PUSH2 0x25B7 SWAP1 PUSH2 0x5BAF JUMP JUMPDEST SWAP1 POP PUSH2 0x1E99 JUMP JUMPDEST POP PUSH1 0x40 MLOAD DUP1 PUSH2 0x100 ADD PUSH1 0x40 MSTORE DUP1 DUP5 PUSH1 0x20 ADD MLOAD DUP2 MSTORE PUSH1 0x20 ADD DUP5 PUSH1 0x40 ADD MLOAD PUSH1 0xFF AND DUP2 MSTORE PUSH1 0x20 ADD DUP5 PUSH1 0x60 ADD MLOAD PUSH1 0xFF AND DUP2 MSTORE PUSH1 0x20 ADD DUP5 PUSH1 0x80 ADD MLOAD PUSH1 0xFF AND DUP2 MSTORE PUSH1 0x20 ADD DUP5 PUSH1 0xA0 ADD MLOAD DUP2 MSTORE PUSH1 0x20 ADD DUP4 DUP2 MSTORE PUSH1 0x20 ADD DUP3 DUP2 MSTORE PUSH1 0x20 ADD DUP5 PUSH2 0x100 ADD MLOAD PUSH1 0xFF AND DUP2 MSTORE POP SWAP6 POP PUSH1 0x5 DUP4 PUSH1 0x0 ADD MLOAD DUP2 SLOAD DUP2 LT PUSH2 0x2637 JUMPI PUSH2 0x2637 PUSH2 0x5AE8 JUMP JUMPDEST PUSH1 0x0 SWAP2 DUP3 MSTORE PUSH1 0x20 SWAP1 SWAP2 KECCAK256 PUSH1 0x9 SWAP1 SWAP2 MUL ADD SLOAD SWAP6 SWAP12 PUSH1 0xFF SWAP1 SWAP7 AND SWAP11 POP SWAP5 SWAP9 POP POP POP POP POP POP POP POP POP JUMP JUMPDEST PUSH1 0x0 PUSH1 0x5 DUP6 PUSH4 0xFFFFFFFF AND DUP2 SLOAD DUP2 LT PUSH2 0x2679 JUMPI PUSH2 0x2679 PUSH2 0x5AE8 JUMP JUMPDEST PUSH1 0x0 SWAP2 DUP3 MSTORE PUSH1 0x20 SWAP1 SWAP2 KECCAK256 PUSH1 0x6 PUSH1 0x9 SWAP1 SWAP3 MUL ADD SWAP1 DUP2 ADD SLOAD SWAP1 SWAP2 POP PUSH1 0x1 PUSH1 0x1 PUSH1 0xA0 SHL SUB AND CALLER EQ PUSH2 0x26F5 JUMPI PUSH1 0x40 MLOAD PUSH3 0x461BCD PUSH1 0xE5 SHL DUP2 MSTORE PUSH1 0x20 PUSH1 0x4 DUP3 ADD MSTORE PUSH1 0x24 DUP1 DUP3 ADD MSTORE PUSH32 0x596F7520617265206E6F7420746865206F776E6572206F662074686973206D6F PUSH1 0x44 DUP3 ADD MSTORE PUSH4 0x64756C65 PUSH1 0xE0 SHL PUSH1 0x64 DUP3 ADD MSTORE PUSH1 0x84 ADD PUSH2 0x3E8 JUMP JUMPDEST DUP4 MLOAD PUSH2 0x270A SWAP1 PUSH1 0x2 DUP4 ADD SWAP1 PUSH1 0x20 DUP8 ADD SWAP1 PUSH2 0x4857 JUMP JUMPDEST POP DUP3 MLOAD PUSH2 0x2720 SWAP1 PUSH1 0x3 DUP4 ADD SWAP1 PUSH1 0x20 DUP7 ADD SWAP1 PUSH2 0x4857 JUMP JUMPDEST POP DUP2 MLOAD PUSH1 0x4 DUP3 ADD SWAP1 DUP2 SSTORE PUSH1 0x20 DUP1 DUP5 ADD MLOAD DUP1 MLOAD DUP6 SWAP4 SWAP3 PUSH2 0x2746 SWAP3 PUSH1 0x5 DUP8 ADD SWAP3 SWAP2 ADD SWAP1 PUSH2 0x48DB JUMP JUMPDEST POP POP POP POP POP POP POP POP JUMP JUMPDEST PUSH1 0x5 DUP2 DUP2 SLOAD DUP2 LT PUSH2 0x2760 JUMPI PUSH1 0x0 DUP1 REVERT JUMPDEST PUSH1 0x0 SWAP2 DUP3 MSTORE PUSH1 0x20 SWAP1 SWAP2 KECCAK256 PUSH1 0x9 SWAP1 SWAP2 MUL ADD DUP1 SLOAD PUSH1 0x1 DUP3 ADD DUP1 SLOAD PUSH1 0xFF SWAP1 SWAP3 AND SWAP4 POP SWAP1 PUSH2 0x2789 SWAP1 PUSH2 0x5AFE JUMP JUMPDEST DUP1 PUSH1 0x1F ADD PUSH1 0x20 DUP1 SWAP2 DIV MUL PUSH1 0x20 ADD PUSH1 0x40 MLOAD SWAP1 DUP2 ADD PUSH1 0x40 MSTORE DUP1 SWAP3 SWAP2 SWAP1 DUP2 DUP2 MSTORE PUSH1 0x20 ADD DUP3 DUP1 SLOAD PUSH2 0x27B5 SWAP1 PUSH2 0x5AFE JUMP JUMPDEST DUP1 ISZERO PUSH2 0x2802 JUMPI DUP1 PUSH1 0x1F LT PUSH2 0x27D7 JUMPI PUSH2 0x100 DUP1 DUP4 SLOAD DIV MUL DUP4 MSTORE SWAP2 PUSH1 0x20 ADD SWAP2 PUSH2 0x2802 JUMP JUMPDEST DUP3 ADD SWAP2 SWAP1 PUSH1 0x0 MSTORE PUSH1 0x20 PUSH1 0x0 KECCAK256 SWAP1 JUMPDEST DUP2 SLOAD DUP2 MSTORE SWAP1 PUSH1 0x1 ADD SWAP1 PUSH1 0x20 ADD DUP1 DUP4 GT PUSH2 0x27E5 JUMPI DUP3 SWAP1 SUB PUSH1 0x1F AND DUP3 ADD SWAP2 JUMPDEST POP POP POP POP POP SWAP1 DUP1 PUSH1 0x2 ADD DUP1 SLOAD PUSH2 0x2817 SWAP1 PUSH2 0x5AFE JUMP JUMPDEST DUP1 PUSH1 0x1F ADD PUSH1 0x20 DUP1 SWAP2 DIV MUL PUSH1 0x20 ADD PUSH1 0x40 MLOAD SWAP1 DUP2 ADD PUSH1 0x40 MSTORE DUP1 SWAP3 SWAP2 SWAP1 DUP2 DUP2 MSTORE PUSH1 0x20 ADD DUP3 DUP1 SLOAD PUSH2 0x2843 SWAP1 PUSH2 0x5AFE JUMP JUMPDEST DUP1 ISZERO PUSH2 0x2890 JUMPI DUP1 PUSH1 0x1F LT PUSH2 0x2865 JUMPI PUSH2 0x100 DUP1 DUP4 SLOAD DIV MUL DUP4 MSTORE SWAP2 PUSH1 0x20 ADD SWAP2 PUSH2 0x2890 JUMP JUMPDEST DUP3 ADD SWAP2 SWAP1 PUSH1 0x0 MSTORE PUSH1 0x20 PUSH1 0x0 KECCAK256 SWAP1 JUMPDEST DUP2 SLOAD DUP2 MSTORE SWAP1 PUSH1 0x1 ADD SWAP1 PUSH1 0x20 ADD DUP1 DUP4 GT PUSH2 0x2873 JUMPI DUP3 SWAP1 SUB PUSH1 0x1F AND DUP3 ADD SWAP2 JUMPDEST POP POP POP POP POP SWAP1 DUP1 PUSH1 0x3 ADD DUP1 SLOAD PUSH2 0x28A5 SWAP1 PUSH2 0x5AFE JUMP JUMPDEST DUP1 PUSH1 0x1F ADD PUSH1 0x20 DUP1 SWAP2 DIV MUL PUSH1 0x20 ADD PUSH1 0x40 MLOAD SWAP1 DUP2 ADD PUSH1 0x40 MSTORE DUP1 SWAP3 SWAP2 SWAP1 DUP2 DUP2 MSTORE PUSH1 0x20 ADD DUP3 DUP1 SLOAD PUSH2 0x28D1 SWAP1 PUSH2 0x5AFE JUMP JUMPDEST DUP1 ISZERO PUSH2 0x291E JUMPI DUP1 PUSH1 0x1F LT PUSH2 0x28F3 JUMPI PUSH2 0x100 DUP1 DUP4 SLOAD DIV MUL DUP4 MSTORE SWAP2 PUSH1 0x20 ADD SWAP2 PUSH2 0x291E JUMP JUMPDEST DUP3 ADD SWAP2 SWAP1 PUSH1 0x0 MSTORE PUSH1 0x20 PUSH1 0x0 KECCAK256 SWAP1 JUMPDEST DUP2 SLOAD DUP2 MSTORE SWAP1 PUSH1 0x1 ADD SWAP1 PUSH1 0x20 ADD DUP1 DUP4 GT PUSH2 0x2901 JUMPI DUP3 SWAP1 SUB PUSH1 0x1F AND DUP3 ADD SWAP2 JUMPDEST POP POP POP POP POP SWAP1 DUP1 PUSH1 0x4 ADD PUSH1 0x40 MLOAD DUP1 PUSH1 0x40 ADD PUSH1 0x40 MSTORE SWAP1 DUP2 PUSH1 0x0 DUP3 ADD SLOAD DUP2 MSTORE PUSH1 0x20 ADD PUSH1 0x1 DUP3 ADD DUP1 SLOAD DUP1 PUSH1 0x20 MUL PUSH1 0x20 ADD PUSH1 0x40 MLOAD SWAP1 DUP2 ADD PUSH1 0x40 MSTORE DUP1 SWAP3 SWAP2 SWAP1 DUP2 DUP2 MSTORE PUSH1 0x20 ADD PUSH1 0x0 SWAP1 JUMPDEST DUP3 DUP3 LT ISZERO PUSH2 0x2A0E JUMPI DUP4 DUP3 SWAP1 PUSH1 0x0 MSTORE PUSH1 0x20 PUSH1 0x0 KECCAK256 ADD DUP1 SLOAD PUSH2 0x2981 SWAP1 PUSH2 0x5AFE JUMP JUMPDEST DUP1 PUSH1 0x1F ADD PUSH1 0x20 DUP1 SWAP2 DIV MUL PUSH1 0x20 ADD PUSH1 0x40 MLOAD SWAP1 DUP2 ADD PUSH1 0x40 MSTORE DUP1 SWAP3 SWAP2 SWAP1 DUP2 DUP2 MSTORE PUSH1 0x20 ADD DUP3 DUP1 SLOAD PUSH2 0x29AD SWAP1 PUSH2 0x5AFE JUMP JUMPDEST DUP1 ISZERO PUSH2 0x29FA JUMPI DUP1 PUSH1 0x1F LT PUSH2 0x29CF JUMPI PUSH2 0x100 DUP1 DUP4 SLOAD DIV MUL DUP4 MSTORE SWAP2 PUSH1 0x20 ADD SWAP2 PUSH2 0x29FA JUMP JUMPDEST DUP3 ADD SWAP2 SWAP1 PUSH1 0x0 MSTORE PUSH1 0x20 PUSH1 0x0 KECCAK256 SWAP1 JUMPDEST DUP2 SLOAD DUP2 MSTORE SWAP1 PUSH1 0x1 ADD SWAP1 PUSH1 0x20 ADD DUP1 DUP4 GT PUSH2 0x29DD JUMPI DUP3 SWAP1 SUB PUSH1 0x1F AND DUP3 ADD SWAP2 JUMPDEST POP POP POP POP POP DUP2 MSTORE PUSH1 0x20 ADD SWAP1 PUSH1 0x1 ADD SWAP1 PUSH2 0x2962 JUMP JUMPDEST POP POP POP SWAP2 MSTORE POP POP PUSH1 0x6 DUP3 ADD SLOAD PUSH1 0x8 SWAP1 SWAP3 ADD SLOAD SWAP1 SWAP2 PUSH1 0x1 PUSH1 0x1 PUSH1 0xA0 SHL SUB AND SWAP1 DUP8 JUMP JUMPDEST PUSH1 0x0 DUP3 PUSH1 0x40 MLOAD PUSH1 0x20 ADD PUSH2 0x2A42 SWAP2 SWAP1 PUSH2 0x5ACC JUMP JUMPDEST PUSH1 0x40 DUP1 MLOAD PUSH1 0x1F NOT DUP2 DUP5 SUB ADD DUP2 MSTORE SWAP2 DUP2 MSTORE DUP2 MLOAD PUSH1 0x20 SWAP3 DUP4 ADD KECCAK256 PUSH1 0x0 DUP2 DUP2 MSTORE PUSH1 0x3 SWAP1 SWAP4 MSTORE SWAP1 DUP3 KECCAK256 SLOAD SWAP1 SWAP3 POP PUSH4 0xFFFFFFFF AND SWAP1 DUP2 SWAP1 SUB PUSH2 0x2AC1 JUMPI PUSH1 0x40 MLOAD PUSH3 0x461BCD PUSH1 0xE5 SHL DUP2 MSTORE PUSH1 0x20 PUSH1 0x4 DUP3 ADD MSTORE PUSH1 0x19 PUSH1 0x24 DUP3 ADD MSTORE PUSH32 0x546865206D6F64756C6520646F6573206E6F7420657869737400000000000000 PUSH1 0x44 DUP3 ADD MSTORE PUSH1 0x64 ADD PUSH2 0x3E8 JUMP JUMPDEST PUSH1 0x40 MLOAD CALLER SWAP1 PUSH1 0x0 SWAP1 PUSH2 0x2AD9 SWAP1 DUP7 SWAP1 DUP5 SWAP1 PUSH1 0x20 ADD PUSH2 0x5B65 JUMP JUMPDEST PUSH1 0x40 DUP1 MLOAD PUSH1 0x1F NOT DUP2 DUP5 SUB ADD DUP2 MSTORE SWAP2 DUP2 MSTORE DUP2 MLOAD PUSH1 0x20 SWAP3 DUP4 ADD KECCAK256 PUSH1 0x0 DUP2 DUP2 MSTORE PUSH1 0x2 SWAP1 SWAP4 MSTORE SWAP1 DUP3 KECCAK256 SWAP1 SWAP3 POP SWAP1 JUMPDEST DUP2 SLOAD DUP2 LT ISZERO PUSH2 0x2746 JUMPI DUP5 PUSH4 0xFFFFFFFF AND DUP3 DUP3 DUP2 SLOAD DUP2 LT PUSH2 0x2B25 JUMPI PUSH2 0x2B25 PUSH2 0x5AE8 JUMP JUMPDEST PUSH1 0x0 SWAP2 DUP3 MSTORE PUSH1 0x20 SWAP1 SWAP2 KECCAK256 PUSH1 0x8 DUP3 DIV ADD SLOAD PUSH1 0x7 SWAP1 SWAP2 AND PUSH1 0x4 MUL PUSH2 0x100 EXP SWAP1 DIV PUSH4 0xFFFFFFFF AND SUB PUSH2 0x2C1C JUMPI DUP2 SLOAD DUP3 SWAP1 PUSH2 0x2B5E SWAP1 PUSH1 0x1 SWAP1 PUSH2 0x5B4E JUMP JUMPDEST DUP2 SLOAD DUP2 LT PUSH2 0x2B6E JUMPI PUSH2 0x2B6E PUSH2 0x5AE8 JUMP JUMPDEST SWAP1 PUSH1 0x0 MSTORE PUSH1 0x20 PUSH1 0x0 KECCAK256 SWAP1 PUSH1 0x8 SWAP2 DUP3 DUP3 DIV ADD SWAP2 SWAP1 MOD PUSH1 0x4 MUL SWAP1 SLOAD SWAP1 PUSH2 0x100 EXP SWAP1 DIV PUSH4 0xFFFFFFFF AND DUP3 DUP3 DUP2 SLOAD DUP2 LT PUSH2 0x2BA6 JUMPI PUSH2 0x2BA6 PUSH2 0x5AE8 JUMP JUMPDEST SWAP1 PUSH1 0x0 MSTORE PUSH1 0x20 PUSH1 0x0 KECCAK256 SWAP1 PUSH1 0x8 SWAP2 DUP3 DUP3 DIV ADD SWAP2 SWAP1 MOD PUSH1 0x4 MUL PUSH2 0x100 EXP DUP2 SLOAD DUP2 PUSH4 0xFFFFFFFF MUL NOT AND SWAP1 DUP4 PUSH4 0xFFFFFFFF AND MUL OR SWAP1 SSTORE POP DUP2 DUP1 SLOAD DUP1 PUSH2 0x2BE9 JUMPI PUSH2 0x2BE9 PUSH2 0x5C76 JUMP JUMPDEST PUSH1 0x0 DUP3 DUP2 MSTORE PUSH1 0x20 SWAP1 KECCAK256 PUSH1 0x8 PUSH1 0x0 NOT SWAP1 SWAP3 ADD SWAP2 DUP3 DIV ADD DUP1 SLOAD PUSH4 0xFFFFFFFF PUSH1 0x4 PUSH1 0x7 DUP6 AND MUL PUSH2 0x100 EXP MUL NOT AND SWAP1 SSTORE SWAP1 SSTORE PUSH2 0x2746 JUMP JUMPDEST PUSH2 0x2C25 DUP2 PUSH2 0x5BAF JUMP JUMPDEST SWAP1 POP PUSH2 0x2B03 JUMP JUMPDEST PUSH1 0x0 DUP4 PUSH1 0x40 MLOAD PUSH1 0x20 ADD PUSH2 0x2C3F SWAP2 SWAP1 PUSH2 0x5ACC JUMP JUMPDEST PUSH1 0x40 DUP1 MLOAD PUSH1 0x1F NOT DUP2 DUP5 SUB ADD DUP2 MSTORE SWAP2 DUP2 MSTORE DUP2 MLOAD PUSH1 0x20 SWAP3 DUP4 ADD KECCAK256 PUSH1 0x0 DUP2 DUP2 MSTORE PUSH1 0x3 SWAP1 SWAP4 MSTORE SWAP1 DUP3 KECCAK256 SLOAD SWAP1 SWAP3 POP PUSH4 0xFFFFFFFF AND SWAP1 DUP2 SWAP1 SUB PUSH2 0x2CBE JUMPI PUSH1 0x40 MLOAD PUSH3 0x461BCD PUSH1 0xE5 SHL DUP2 MSTORE PUSH1 0x20 PUSH1 0x4 DUP3 ADD MSTORE PUSH1 0x19 PUSH1 0x24 DUP3 ADD MSTORE PUSH32 0x546865206D6F64756C6520646F6573206E6F7420657869737400000000000000 PUSH1 0x44 DUP3 ADD MSTORE PUSH1 0x64 ADD PUSH2 0x3E8 JUMP JUMPDEST PUSH1 0x0 PUSH1 0x5 DUP3 PUSH4 0xFFFFFFFF AND DUP2 SLOAD DUP2 LT PUSH2 0x2CD9 JUMPI PUSH2 0x2CD9 PUSH2 0x5AE8 JUMP JUMPDEST PUSH1 0x0 SWAP2 DUP3 MSTORE PUSH1 0x20 SWAP1 SWAP2 KECCAK256 PUSH1 0x6 PUSH1 0x9 SWAP1 SWAP3 MUL ADD SWAP1 DUP2 ADD SLOAD SWAP1 SWAP2 POP PUSH1 0x1 PUSH1 0x1 PUSH1 0xA0 SHL SUB AND CALLER EQ PUSH2 0x2D55 JUMPI PUSH1 0x40 MLOAD PUSH3 0x461BCD PUSH1 0xE5 SHL DUP2 MSTORE PUSH1 0x20 PUSH1 0x4 DUP3 ADD MSTORE PUSH1 0x24 DUP1 DUP3 ADD MSTORE PUSH32 0x596F7520617265206E6F7420746865206F776E6572206F662074686973206D6F PUSH1 0x44 DUP3 ADD MSTORE PUSH4 0x64756C65 PUSH1 0xE0 SHL PUSH1 0x64 DUP3 ADD MSTORE PUSH1 0x84 ADD PUSH2 0x3E8 JUMP JUMPDEST PUSH1 0x6 DUP2 ADD SLOAD PUSH1 0x1 PUSH1 0x1 PUSH1 0xA0 SHL SUB AND PUSH1 0x0 SWAP1 DUP2 MSTORE PUSH1 0x4 PUSH1 0x20 MSTORE PUSH1 0x40 SWAP1 KECCAK256 DUP1 SLOAD PUSH4 0xFFFFFFFF DUP5 AND SWAP1 DUP3 SWAP1 DUP8 SWAP1 DUP2 LT PUSH2 0x2D8D JUMPI PUSH2 0x2D8D PUSH2 0x5AE8 JUMP JUMPDEST PUSH1 0x0 SWAP2 DUP3 MSTORE PUSH1 0x20 SWAP1 SWAP2 KECCAK256 PUSH1 0x8 DUP3 DIV ADD SLOAD PUSH1 0x7 SWAP1 SWAP2 AND PUSH1 0x4 MUL PUSH2 0x100 EXP SWAP1 DIV PUSH4 0xFFFFFFFF AND EQ PUSH2 0x2DFE JUMPI PUSH1 0x40 MLOAD PUSH3 0x461BCD PUSH1 0xE5 SHL DUP2 MSTORE PUSH1 0x20 PUSH1 0x4 DUP3 ADD DUP2 SWAP1 MSTORE PUSH1 0x24 DUP3 ADD MSTORE PUSH32 0x496E76616C696420696E646578206F66206172726179206F776E6572206D6170 PUSH1 0x44 DUP3 ADD MSTORE PUSH1 0x64 ADD PUSH2 0x3E8 JUMP JUMPDEST DUP1 SLOAD DUP2 SWAP1 PUSH2 0x2E0E SWAP1 PUSH1 0x1 SWAP1 PUSH2 0x5B4E JUMP JUMPDEST DUP2 SLOAD DUP2 LT PUSH2 0x2E1E JUMPI PUSH2 0x2E1E PUSH2 0x5AE8 JUMP JUMPDEST SWAP1 PUSH1 0x0 MSTORE PUSH1 0x20 PUSH1 0x0 KECCAK256 SWAP1 PUSH1 0x8 SWAP2 DUP3 DUP3 DIV ADD SWAP2 SWAP1 MOD PUSH1 0x4 MUL SWAP1 SLOAD SWAP1 PUSH2 0x100 EXP SWAP1 DIV PUSH4 0xFFFFFFFF AND DUP2 DUP7 DUP2 SLOAD DUP2 LT PUSH2 0x2E56 JUMPI PUSH2 0x2E56 PUSH2 0x5AE8 JUMP JUMPDEST SWAP1 PUSH1 0x0 MSTORE PUSH1 0x20 PUSH1 0x0 KECCAK256 SWAP1 PUSH1 0x8 SWAP2 DUP3 DUP3 DIV ADD SWAP2 SWAP1 MOD PUSH1 0x4 MUL PUSH2 0x100 EXP DUP2 SLOAD DUP2 PUSH4 0xFFFFFFFF MUL NOT AND SWAP1 DUP4 PUSH4 0xFFFFFFFF AND MUL OR SWAP1 SSTORE POP DUP1 DUP1 SLOAD DUP1 PUSH2 0x2E99 JUMPI PUSH2 0x2E99 PUSH2 0x5C76 JUMP JUMPDEST PUSH1 0x0 DUP3 DUP2 MSTORE PUSH1 0x20 DUP1 DUP3 KECCAK256 PUSH1 0x8 PUSH1 0x0 NOT SWAP1 SWAP5 ADD DUP5 DUP2 DIV SWAP1 SWAP2 ADD DUP1 SLOAD PUSH4 0xFFFFFFFF PUSH1 0x4 PUSH1 0x7 DUP1 DUP7 AND DUP3 MUL PUSH2 0x100 SWAP1 DUP2 EXP DUP5 MUL NOT SWAP1 SWAP5 AND SWAP1 SWAP5 SSTORE SWAP4 SWAP1 SWAP8 SSTORE PUSH1 0x6 SWAP1 SWAP9 ADD DUP1 SLOAD PUSH1 0x1 PUSH1 0x1 PUSH1 0xA0 SHL SUB SWAP1 SWAP14 AND PUSH32 0xFFFFFFFFFFFFFFFFFFFFFFFF0000000000000000000000000000000000000000 SWAP1 SWAP14 AND DUP14 OR SWAP1 SSTORE SWAP11 DUP4 MSTORE DUP1 DUP3 MSTORE PUSH1 0x40 DUP4 KECCAK256 DUP1 SLOAD PUSH1 0x1 DUP2 ADD DUP3 SSTORE SWAP1 DUP5 MSTORE SWAP2 SWAP1 SWAP3 KECCAK256 SWAP3 DUP2 DIV SWAP1 SWAP3 ADD DUP1 SLOAD SWAP7 DUP5 AND SWAP3 SWAP1 SWAP10 AND MUL SWAP1 SWAP4 EXP SWAP3 DUP4 MUL SWAP3 MUL NOT SWAP1 SWAP3 AND OR SWAP1 SWAP4 SSTORE POP POP POP POP JUMP JUMPDEST PUSH1 0x60 PUSH1 0x0 DUP4 DUP4 PUSH1 0x40 MLOAD PUSH1 0x20 ADD PUSH2 0x2F64 SWAP3 SWAP2 SWAP1 PUSH2 0x5C8C JUMP JUMPDEST PUSH1 0x40 MLOAD PUSH1 0x20 DUP2 DUP4 SUB SUB DUP2 MSTORE SWAP1 PUSH1 0x40 MSTORE DUP1 MLOAD SWAP1 PUSH1 0x20 ADD KECCAK256 SWAP1 POP PUSH1 0x0 DUP1 DUP3 DUP2 MSTORE PUSH1 0x20 ADD SWAP1 DUP2 MSTORE PUSH1 0x20 ADD PUSH1 0x0 KECCAK256 DUP1 SLOAD PUSH2 0x2F99 SWAP1 PUSH2 0x5AFE JUMP JUMPDEST DUP1 PUSH1 0x1F ADD PUSH1 0x20 DUP1 SWAP2 DIV MUL PUSH1 0x20 ADD PUSH1 0x40 MLOAD SWAP1 DUP2 ADD PUSH1 0x40 MSTORE DUP1 SWAP3 SWAP2 SWAP1 DUP2 DUP2 MSTORE PUSH1 0x20 ADD DUP3 DUP1 SLOAD PUSH2 0x2FC5 SWAP1 PUSH2 0x5AFE JUMP JUMPDEST DUP1 ISZERO PUSH2 0x3012 JUMPI DUP1 PUSH1 0x1F LT PUSH2 0x2FE7 JUMPI PUSH2 0x100 DUP1 DUP4 SLOAD DIV MUL DUP4 MSTORE SWAP2 PUSH1 0x20 ADD SWAP2 PUSH2 0x3012 JUMP JUMPDEST DUP3 ADD SWAP2 SWAP1 PUSH1 0x0 MSTORE PUSH1 0x20 PUSH1 0x0 KECCAK256 SWAP1 JUMPDEST DUP2 SLOAD DUP2 MSTORE SWAP1 PUSH1 0x1 ADD SWAP1 PUSH1 0x20 ADD DUP1 DUP4 GT PUSH2 0x2FF5 JUMPI DUP3 SWAP1 SUB PUSH1 0x1F AND DUP3 ADD SWAP2 JUMPDEST POP POP POP POP POP SWAP2 POP POP SWAP3 SWAP2 POP POP JUMP JUMPDEST PUSH1 0x1 PUSH1 0x20 DUP2 SWAP1 MSTORE PUSH1 0x0 SWAP2 DUP3 MSTORE PUSH1 0x40 SWAP1 SWAP2 KECCAK256 DUP1 SLOAD SWAP2 DUP2 ADD DUP1 SLOAD PUSH2 0x3041 SWAP1 PUSH2 0x5AFE JUMP JUMPDEST DUP1 PUSH1 0x1F ADD PUSH1 0x20 DUP1 SWAP2 DIV MUL PUSH1 0x20 ADD PUSH1 0x40 MLOAD SWAP1 DUP2 ADD PUSH1 0x40 MSTORE DUP1 SWAP3 SWAP2 SWAP1 DUP2 DUP2 MSTORE PUSH1 0x20 ADD DUP3 DUP1 SLOAD PUSH2 0x306D SWAP1 PUSH2 0x5AFE JUMP JUMPDEST DUP1 ISZERO PUSH2 0x30BA JUMPI DUP1 PUSH1 0x1F LT PUSH2 0x308F JUMPI PUSH2 0x100 DUP1 DUP4 SLOAD DIV MUL DUP4 MSTORE SWAP2 PUSH1 0x20 ADD SWAP2 PUSH2 0x30BA JUMP JUMPDEST DUP3 ADD SWAP2 SWAP1 PUSH1 0x0 MSTORE PUSH1 0x20 PUSH1 0x0 KECCAK256 SWAP1 JUMPDEST DUP2 SLOAD DUP2 MSTORE SWAP1 PUSH1 0x1 ADD SWAP1 PUSH1 0x20 ADD DUP1 DUP4 GT PUSH2 0x309D JUMPI DUP3 SWAP1 SUB PUSH1 0x1F AND DUP3 ADD SWAP2 JUMPDEST POP POP POP POP PUSH1 0x2 DUP4 ADD SLOAD PUSH1 0x40 DUP1 MLOAD DUP1 DUP3 ADD DUP3 MSTORE PUSH1 0x3 DUP7 ADD DUP1 SLOAD DUP3 MSTORE PUSH1 0x4 DUP8 ADD DUP1 SLOAD DUP5 MLOAD PUSH1 0x20 DUP1 DUP4 MUL DUP3 ADD DUP2 ADD SWAP1 SWAP7 MSTORE DUP2 DUP2 MSTORE SWAP8 SWAP9 PUSH1 0xFF DUP1 DUP9 AND SWAP10 PUSH2 0x100 DUP10 DIV DUP3 AND SWAP10 POP PUSH3 0x10000 SWAP1 SWAP9 DIV AND SWAP7 SWAP1 SWAP6 DUP1 DUP7 ADD SWAP4 SWAP2 SWAP3 SWAP1 PUSH1 0x0 SWAP1 DUP5 ADD JUMPDEST DUP3 DUP3 LT ISZERO PUSH2 0x31C0 JUMPI DUP4 DUP3 SWAP1 PUSH1 0x0 MSTORE PUSH1 0x20 PUSH1 0x0 KECCAK256 ADD DUP1 SLOAD PUSH2 0x3133 SWAP1 PUSH2 0x5AFE JUMP JUMPDEST DUP1 PUSH1 0x1F ADD PUSH1 0x20 DUP1 SWAP2 DIV MUL PUSH1 0x20 ADD PUSH1 0x40 MLOAD SWAP1 DUP2 ADD PUSH1 0x40 MSTORE DUP1 SWAP3 SWAP2 SWAP1 DUP2 DUP2 MSTORE PUSH1 0x20 ADD DUP3 DUP1 SLOAD PUSH2 0x315F SWAP1 PUSH2 0x5AFE JUMP JUMPDEST DUP1 ISZERO PUSH2 0x31AC JUMPI DUP1 PUSH1 0x1F LT PUSH2 0x3181 JUMPI PUSH2 0x100 DUP1 DUP4 SLOAD DIV MUL DUP4 MSTORE SWAP2 PUSH1 0x20 ADD SWAP2 PUSH2 0x31AC JUMP JUMPDEST DUP3 ADD SWAP2 SWAP1 PUSH1 0x0 MSTORE PUSH1 0x20 PUSH1 0x0 KECCAK256 SWAP1 JUMPDEST DUP2 SLOAD DUP2 MSTORE SWAP1 PUSH1 0x1 ADD SWAP1 PUSH1 0x20 ADD DUP1 DUP4 GT PUSH2 0x318F JUMPI DUP3 SWAP1 SUB PUSH1 0x1F AND DUP3 ADD SWAP2 JUMPDEST POP POP POP POP POP DUP2 MSTORE PUSH1 0x20 ADD SWAP1 PUSH1 0x1 ADD SWAP1 PUSH2 0x3114 JUMP JUMPDEST POP POP POP SWAP2 MSTORE POP POP PUSH1 0x7 SWAP1 SWAP2 ADD SLOAD PUSH1 0xFF AND DUP8 JUMP JUMPDEST DUP1 MLOAD DUP3 MLOAD EQ PUSH2 0x3224 JUMPI PUSH1 0x40 MLOAD PUSH3 0x461BCD PUSH1 0xE5 SHL DUP2 MSTORE PUSH1 0x20 PUSH1 0x4 DUP3 ADD DUP2 SWAP1 MSTORE PUSH1 0x24 DUP3 ADD MSTORE PUSH32 0x4E756D626572206F6620656C656D656E7473206D75737420626520657175616C PUSH1 0x44 DUP3 ADD MSTORE PUSH1 0x64 ADD PUSH2 0x3E8 JUMP JUMPDEST PUSH1 0x0 JUMPDEST DUP3 MLOAD DUP2 LT ISZERO PUSH2 0x327C JUMPI PUSH2 0x326C DUP4 DUP3 DUP2 MLOAD DUP2 LT PUSH2 0x3245 JUMPI PUSH2 0x3245 PUSH2 0x5AE8 JUMP JUMPDEST PUSH1 0x20 MUL PUSH1 0x20 ADD ADD MLOAD DUP4 DUP4 DUP2 MLOAD DUP2 LT PUSH2 0x325F JUMPI PUSH2 0x325F PUSH2 0x5AE8 JUMP JUMPDEST PUSH1 0x20 MUL PUSH1 0x20 ADD ADD MLOAD PUSH2 0x35A JUMP JUMPDEST PUSH2 0x3275 DUP2 PUSH2 0x5BAF JUMP JUMPDEST SWAP1 POP PUSH2 0x3227 JUMP JUMPDEST POP POP POP JUMP JUMPDEST PUSH1 0x0 DUP3 PUSH1 0x40 MLOAD PUSH1 0x20 ADD PUSH2 0x3294 SWAP2 SWAP1 PUSH2 0x5ACC JUMP JUMPDEST PUSH1 0x40 DUP1 MLOAD PUSH1 0x1F NOT DUP2 DUP5 SUB ADD DUP2 MSTORE SWAP2 DUP2 MSTORE DUP2 MLOAD PUSH1 0x20 SWAP3 DUP4 ADD KECCAK256 PUSH1 0x0 DUP2 DUP2 MSTORE PUSH1 0x3 SWAP1 SWAP4 MSTORE SWAP1 DUP3 KECCAK256 SLOAD SWAP1 SWAP3 POP PUSH4 0xFFFFFFFF AND SWAP1 DUP2 SWAP1 SUB PUSH2 0x3313 JUMPI PUSH1 0x40 MLOAD PUSH3 0x461BCD PUSH1 0xE5 SHL DUP2 MSTORE PUSH1 0x20 PUSH1 0x4 DUP3 ADD MSTORE PUSH1 0x19 PUSH1 0x24 DUP3 ADD MSTORE PUSH32 0x546865206D6F64756C6520646F6573206E6F7420657869737400000000000000 PUSH1 0x44 DUP3 ADD MSTORE PUSH1 0x64 ADD PUSH2 0x3E8 JUMP JUMPDEST PUSH1 0x40 MLOAD CALLER SWAP1 PUSH1 0x0 SWAP1 PUSH2 0x332B SWAP1 DUP7 SWAP1 DUP5 SWAP1 PUSH1 0x20 ADD PUSH2 0x5B65 JUMP JUMPDEST PUSH1 0x40 DUP1 MLOAD DUP1 DUP4 SUB PUSH1 0x1F NOT ADD DUP2 MSTORE SWAP2 DUP2 MSTORE DUP2 MLOAD PUSH1 0x20 SWAP3 DUP4 ADD KECCAK256 PUSH1 0x0 SWAP1 DUP2 MSTORE PUSH1 0x2 DUP4 MSTORE SWAP1 DUP2 KECCAK256 DUP1 SLOAD PUSH1 0x1 DUP2 ADD DUP3 SSTORE SWAP1 DUP3 MSTORE SWAP2 SWAP1 KECCAK256 PUSH1 0x8 DUP3 DIV ADD DUP1 SLOAD PUSH1 0x7 SWAP1 SWAP3 AND PUSH1 0x4 MUL PUSH2 0x100 EXP PUSH4 0xFFFFFFFF DUP2 DUP2 MUL NOT SWAP1 SWAP4 AND SWAP6 SWAP1 SWAP3 AND SWAP2 SWAP1 SWAP2 MUL SWAP4 SWAP1 SWAP4 OR SWAP1 SWAP3 SSTORE POP POP POP POP POP JUMP JUMPDEST PUSH1 0x1 PUSH1 0x1 PUSH1 0xA0 SHL SUB DUP2 AND PUSH1 0x0 SWAP1 DUP2 MSTORE PUSH1 0x4 PUSH1 0x20 SWAP1 DUP2 MSTORE PUSH1 0x40 DUP1 DUP4 KECCAK256 DUP1 SLOAD DUP3 MLOAD DUP2 DUP6 MUL DUP2 ADD DUP6 ADD SWAP1 SWAP4 MSTORE DUP1 DUP4 MSTORE PUSH1 0x60 SWAP5 SWAP4 DUP4 ADD DUP3 DUP3 DUP1 ISZERO PUSH2 0x341D JUMPI PUSH1 0x20 MUL DUP3 ADD SWAP2 SWAP1 PUSH1 0x0 MSTORE PUSH1 0x20 PUSH1 0x0 KECCAK256 SWAP1 PUSH1 0x0 SWAP1 JUMPDEST DUP3 DUP3 SWAP1 SLOAD SWAP1 PUSH2 0x100 EXP SWAP1 DIV PUSH4 0xFFFFFFFF AND PUSH4 0xFFFFFFFF AND DUP2 MSTORE PUSH1 0x20 ADD SWAP1 PUSH1 0x4 ADD SWAP1 PUSH1 0x20 DUP3 PUSH1 0x3 ADD DIV SWAP3 DUP4 ADD SWAP3 PUSH1 0x1 SUB DUP3 MUL SWAP2 POP DUP1 DUP5 GT PUSH2 0x33E0 JUMPI SWAP1 POP JUMPDEST POP POP POP POP POP SWAP1 POP DUP1 MLOAD PUSH8 0xFFFFFFFFFFFFFFFF DUP2 GT ISZERO PUSH2 0x343E JUMPI PUSH2 0x343E PUSH2 0x4A53 JUMP JUMPDEST PUSH1 0x40 MLOAD SWAP1 DUP1 DUP3 MSTORE DUP1 PUSH1 0x20 MUL PUSH1 0x20 ADD DUP3 ADD PUSH1 0x40 MSTORE DUP1 ISZERO PUSH2 0x3477 JUMPI DUP2 PUSH1 0x20 ADD JUMPDEST PUSH2 0x3464 PUSH2 0x47E8 JUMP JUMPDEST DUP2 MSTORE PUSH1 0x20 ADD SWAP1 PUSH1 0x1 SWAP1 SUB SWAP1 DUP2 PUSH2 0x345C JUMPI SWAP1 POP JUMPDEST POP SWAP2 POP PUSH1 0x0 JUMPDEST DUP2 MLOAD DUP2 LT ISZERO PUSH2 0x38B0 JUMPI PUSH1 0x5 DUP3 DUP3 DUP2 MLOAD DUP2 LT PUSH2 0x349A JUMPI PUSH2 0x349A PUSH2 0x5AE8 JUMP JUMPDEST PUSH1 0x20 MUL PUSH1 0x20 ADD ADD MLOAD PUSH4 0xFFFFFFFF AND DUP2 SLOAD DUP2 LT PUSH2 0x34B8 JUMPI PUSH2 0x34B8 PUSH2 0x5AE8 JUMP JUMPDEST PUSH1 0x0 SWAP2 DUP3 MSTORE PUSH1 0x20 SWAP2 DUP3 SWAP1 KECCAK256 PUSH1 0x40 DUP1 MLOAD PUSH2 0x100 DUP2 ADD SWAP1 SWAP2 MSTORE PUSH1 0x9 SWAP1 SWAP3 MUL ADD DUP1 SLOAD PUSH1 0xFF AND DUP3 MSTORE PUSH1 0x1 DUP2 ADD DUP1 SLOAD SWAP3 SWAP4 SWAP2 SWAP3 SWAP2 DUP5 ADD SWAP2 PUSH2 0x34F3 SWAP1 PUSH2 0x5AFE JUMP JUMPDEST DUP1 PUSH1 0x1F ADD PUSH1 0x20 DUP1 SWAP2 DIV MUL PUSH1 0x20 ADD PUSH1 0x40 MLOAD SWAP1 DUP2 ADD PUSH1 0x40 MSTORE DUP1 SWAP3 SWAP2 SWAP1 DUP2 DUP2 MSTORE PUSH1 0x20 ADD DUP3 DUP1 SLOAD PUSH2 0x351F SWAP1 PUSH2 0x5AFE JUMP JUMPDEST DUP1 ISZERO PUSH2 0x356C JUMPI DUP1 PUSH1 0x1F LT PUSH2 0x3541 JUMPI PUSH2 0x100 DUP1 DUP4 SLOAD DIV MUL DUP4 MSTORE SWAP2 PUSH1 0x20 ADD SWAP2 PUSH2 0x356C JUMP JUMPDEST DUP3 ADD SWAP2 SWAP1 PUSH1 0x0 MSTORE PUSH1 0x20 PUSH1 0x0 KECCAK256 SWAP1 JUMPDEST DUP2 SLOAD DUP2 MSTORE SWAP1 PUSH1 0x1 ADD SWAP1 PUSH1 0x20 ADD DUP1 DUP4 GT PUSH2 0x354F JUMPI DUP3 SWAP1 SUB PUSH1 0x1F AND DUP3 ADD SWAP2 JUMPDEST POP POP POP POP POP DUP2 MSTORE PUSH1 0x20 ADD PUSH1 0x2 DUP3 ADD DUP1 SLOAD PUSH2 0x3585 SWAP1 PUSH2 0x5AFE JUMP JUMPDEST DUP1 PUSH1 0x1F ADD PUSH1 0x20 DUP1 SWAP2 DIV MUL PUSH1 0x20 ADD PUSH1 0x40 MLOAD SWAP1 DUP2 ADD PUSH1 0x40 MSTORE DUP1 SWAP3 SWAP2 SWAP1 DUP2 DUP2 MSTORE PUSH1 0x20 ADD DUP3 DUP1 SLOAD PUSH2 0x35B1 SWAP1 PUSH2 0x5AFE JUMP JUMPDEST DUP1 ISZERO PUSH2 0x35FE JUMPI DUP1 PUSH1 0x1F LT PUSH2 0x35D3 JUMPI PUSH2 0x100 DUP1 DUP4 SLOAD DIV MUL DUP4 MSTORE SWAP2 PUSH1 0x20 ADD SWAP2 PUSH2 0x35FE JUMP JUMPDEST DUP3 ADD SWAP2 SWAP1 PUSH1 0x0 MSTORE PUSH1 0x20 PUSH1 0x0 KECCAK256 SWAP1 JUMPDEST DUP2 SLOAD DUP2 MSTORE SWAP1 PUSH1 0x1 ADD SWAP1 PUSH1 0x20 ADD DUP1 DUP4 GT PUSH2 0x35E1 JUMPI DUP3 SWAP1 SUB PUSH1 0x1F AND DUP3 ADD SWAP2 JUMPDEST POP POP POP POP POP DUP2 MSTORE PUSH1 0x20 ADD PUSH1 0x3 DUP3 ADD DUP1 SLOAD PUSH2 0x3617 SWAP1 PUSH2 0x5AFE JUMP JUMPDEST DUP1 PUSH1 0x1F ADD PUSH1 0x20 DUP1 SWAP2 DIV MUL PUSH1 0x20 ADD PUSH1 0x40 MLOAD SWAP1 DUP2 ADD PUSH1 0x40 MSTORE DUP1 SWAP3 SWAP2 SWAP1 DUP2 DUP2 MSTORE PUSH1 0x20 ADD DUP3 DUP1 SLOAD PUSH2 0x3643 SWAP1 PUSH2 0x5AFE JUMP JUMPDEST DUP1 ISZERO PUSH2 0x3690 JUMPI DUP1 PUSH1 0x1F LT PUSH2 0x3665 JUMPI PUSH2 0x100 DUP1 DUP4 SLOAD DIV MUL DUP4 MSTORE SWAP2 PUSH1 0x20 ADD SWAP2 PUSH2 0x3690 JUMP JUMPDEST DUP3 ADD SWAP2 SWAP1 PUSH1 0x0 MSTORE PUSH1 0x20 PUSH1 0x0 KECCAK256 SWAP1 JUMPDEST DUP2 SLOAD DUP2 MSTORE SWAP1 PUSH1 0x1 ADD SWAP1 PUSH1 0x20 ADD DUP1 DUP4 GT PUSH2 0x3673 JUMPI DUP3 SWAP1 SUB PUSH1 0x1F AND DUP3 ADD SWAP2 JUMPDEST POP POP POP POP POP DUP2 MSTORE PUSH1 0x20 ADD PUSH1 0x4 DUP3 ADD PUSH1 0x40 MLOAD DUP1 PUSH1 0x40 ADD PUSH1 0x40 MSTORE SWAP1 DUP2 PUSH1 0x0 DUP3 ADD SLOAD DUP2 MSTORE PUSH1 0x20 ADD PUSH1 0x1 DUP3 ADD DUP1 SLOAD DUP1 PUSH1 0x20 MUL PUSH1 0x20 ADD PUSH1 0x40 MLOAD SWAP1 DUP2 ADD PUSH1 0x40 MSTORE DUP1 SWAP3 SWAP2 SWAP1 DUP2 DUP2 MSTORE PUSH1 0x20 ADD PUSH1 0x0 SWAP1 JUMPDEST DUP3 DUP3 LT ISZERO PUSH2 0x3784 JUMPI DUP4 DUP3 SWAP1 PUSH1 0x0 MSTORE PUSH1 0x20 PUSH1 0x0 KECCAK256 ADD DUP1 SLOAD PUSH2 0x36F7 SWAP1 PUSH2 0x5AFE JUMP JUMPDEST DUP1 PUSH1 0x1F ADD PUSH1 0x20 DUP1 SWAP2 DIV MUL PUSH1 0x20 ADD PUSH1 0x40 MLOAD SWAP1 DUP2 ADD PUSH1 0x40 MSTORE DUP1 SWAP3 SWAP2 SWAP1 DUP2 DUP2 MSTORE PUSH1 0x20 ADD DUP3 DUP1 SLOAD PUSH2 0x3723 SWAP1 PUSH2 0x5AFE JUMP JUMPDEST DUP1 ISZERO PUSH2 0x3770 JUMPI DUP1 PUSH1 0x1F LT PUSH2 0x3745 JUMPI PUSH2 0x100 DUP1 DUP4 SLOAD DIV MUL DUP4 MSTORE SWAP2 PUSH1 0x20 ADD SWAP2 PUSH2 0x3770 JUMP JUMPDEST DUP3 ADD SWAP2 SWAP1 PUSH1 0x0 MSTORE PUSH1 0x20 PUSH1 0x0 KECCAK256 SWAP1 JUMPDEST DUP2 SLOAD DUP2 MSTORE SWAP1 PUSH1 0x1 ADD SWAP1 PUSH1 0x20 ADD DUP1 DUP4 GT PUSH2 0x3753 JUMPI DUP3 SWAP1 SUB PUSH1 0x1F AND DUP3 ADD SWAP2 JUMPDEST POP POP POP POP POP DUP2 MSTORE PUSH1 0x20 ADD SWAP1 PUSH1 0x1 ADD SWAP1 PUSH2 0x36D8 JUMP JUMPDEST POP POP POP SWAP2 MSTORE POP POP DUP2 MSTORE PUSH1 0x6 DUP3 ADD SLOAD PUSH1 0x1 PUSH1 0x1 PUSH1 0xA0 SHL SUB AND PUSH1 0x20 DUP1 DUP4 ADD SWAP2 SWAP1 SWAP2 MSTORE PUSH1 0x7 DUP4 ADD DUP1 SLOAD PUSH1 0x40 DUP1 MLOAD DUP3 DUP6 MUL DUP2 ADD DUP6 ADD DUP3 MSTORE DUP3 DUP2 MSTORE SWAP5 ADD SWAP4 SWAP3 PUSH1 0x0 SWAP1 DUP5 ADD JUMPDEST DUP3 DUP3 LT ISZERO PUSH2 0x3870 JUMPI DUP4 DUP3 SWAP1 PUSH1 0x0 MSTORE PUSH1 0x20 PUSH1 0x0 KECCAK256 ADD DUP1 SLOAD PUSH2 0x37E3 SWAP1 PUSH2 0x5AFE JUMP JUMPDEST DUP1 PUSH1 0x1F ADD PUSH1 0x20 DUP1 SWAP2 DIV MUL PUSH1 0x20 ADD PUSH1 0x40 MLOAD SWAP1 DUP2 ADD PUSH1 0x40 MSTORE DUP1 SWAP3 SWAP2 SWAP1 DUP2 DUP2 MSTORE PUSH1 0x20 ADD DUP3 DUP1 SLOAD PUSH2 0x380F SWAP1 PUSH2 0x5AFE JUMP JUMPDEST DUP1 ISZERO PUSH2 0x385C JUMPI DUP1 PUSH1 0x1F LT PUSH2 0x3831 JUMPI PUSH2 0x100 DUP1 DUP4 SLOAD DIV MUL DUP4 MSTORE SWAP2 PUSH1 0x20 ADD SWAP2 PUSH2 0x385C JUMP JUMPDEST DUP3 ADD SWAP2 SWAP1 PUSH1 0x0 MSTORE PUSH1 0x20 PUSH1 0x0 KECCAK256 SWAP1 JUMPDEST DUP2 SLOAD DUP2 MSTORE SWAP1 PUSH1 0x1 ADD SWAP1 PUSH1 0x20 ADD DUP1 DUP4 GT PUSH2 0x383F JUMPI DUP3 SWAP1 SUB PUSH1 0x1F AND DUP3 ADD SWAP2 JUMPDEST POP POP POP POP POP DUP2 MSTORE PUSH1 0x20 ADD SWAP1 PUSH1 0x1 ADD SWAP1 PUSH2 0x37C4 JUMP JUMPDEST POP POP POP POP DUP2 MSTORE PUSH1 0x20 ADD PUSH1 0x8 DUP3 ADD SLOAD DUP2 MSTORE POP POP DUP4 DUP3 DUP2 MLOAD DUP2 LT PUSH2 0x3894 JUMPI PUSH2 0x3894 PUSH2 0x5AE8 JUMP JUMPDEST PUSH1 0x20 MUL PUSH1 0x20 ADD ADD DUP2 SWAP1 MSTORE POP DUP1 PUSH2 0x38A9 SWAP1 PUSH2 0x5BAF JUMP JUMPDEST SWAP1 POP PUSH2 0x347D JUMP JUMPDEST POP POP SWAP2 SWAP1 POP JUMP JUMPDEST PUSH1 0x60 DUP4 MLOAD PUSH8 0xFFFFFFFFFFFFFFFF DUP2 GT ISZERO PUSH2 0x38D3 JUMPI PUSH2 0x38D3 PUSH2 0x4A53 JUMP JUMPDEST PUSH1 0x40 MLOAD SWAP1 DUP1 DUP3 MSTORE DUP1 PUSH1 0x20 MUL PUSH1 0x20 ADD DUP3 ADD PUSH1 0x40 MSTORE DUP1 ISZERO PUSH2 0x3906 JUMPI DUP2 PUSH1 0x20 ADD JUMPDEST PUSH1 0x60 DUP2 MSTORE PUSH1 0x20 ADD SWAP1 PUSH1 0x1 SWAP1 SUB SWAP1 DUP2 PUSH2 0x38F1 JUMPI SWAP1 POP JUMPDEST POP SWAP1 POP PUSH1 0x0 JUMPDEST DUP5 MLOAD DUP2 LT ISZERO PUSH2 0x3967 JUMPI PUSH2 0x3939 DUP6 DUP3 DUP2 MLOAD DUP2 LT PUSH2 0x392A JUMPI PUSH2 0x392A PUSH2 0x5AE8 JUMP JUMPDEST PUSH1 0x20 MUL PUSH1 0x20 ADD ADD MLOAD DUP6 DUP6 PUSH2 0xD3D JUMP JUMPDEST DUP3 DUP3 DUP2 MLOAD DUP2 LT PUSH2 0x394B JUMPI PUSH2 0x394B PUSH2 0x5AE8 JUMP JUMPDEST PUSH1 0x20 MUL PUSH1 0x20 ADD ADD DUP2 SWAP1 MSTORE POP DUP1 PUSH2 0x3960 SWAP1 PUSH2 0x5BAF JUMP JUMPDEST SWAP1 POP PUSH2 0x390C JUMP JUMPDEST POP SWAP4 SWAP3 POP POP POP JUMP JUMPDEST PUSH1 0x0 DUP2 PUSH1 0xA0 ADD MLOAD MLOAD PUSH8 0xFFFFFFFFFFFFFFFF DUP2 GT ISZERO PUSH2 0x398F JUMPI PUSH2 0x398F PUSH2 0x4A53 JUMP JUMPDEST PUSH1 0x40 MLOAD SWAP1 DUP1 DUP3 MSTORE DUP1 PUSH1 0x20 MUL PUSH1 0x20 ADD DUP3 ADD PUSH1 0x40 MSTORE DUP1 ISZERO PUSH2 0x39B8 JUMPI DUP2 PUSH1 0x20 ADD PUSH1 0x20 DUP3 MUL DUP1 CALLDATASIZE DUP4 CALLDATACOPY ADD SWAP1 POP JUMPDEST POP SWAP1 POP PUSH1 0x0 JUMPDEST DUP3 PUSH1 0xA0 ADD MLOAD MLOAD DUP2 LT ISZERO PUSH2 0x3AC5 JUMPI PUSH1 0x0 DUP4 PUSH1 0xA0 ADD MLOAD DUP3 DUP2 MLOAD DUP2 LT PUSH2 0x39E3 JUMPI PUSH2 0x39E3 PUSH2 0x5AE8 JUMP JUMPDEST PUSH1 0x20 MUL PUSH1 0x20 ADD ADD MLOAD SWAP1 POP PUSH1 0x0 DUP2 PUSH1 0x0 ADD MLOAD DUP3 PUSH1 0x20 ADD MLOAD DUP4 PUSH1 0x40 ADD MLOAD DUP5 PUSH1 0x60 ADD MLOAD DUP6 PUSH1 0x80 ADD MLOAD PUSH1 0x40 MLOAD PUSH1 0x20 ADD PUSH2 0x3A1C SWAP6 SWAP5 SWAP4 SWAP3 SWAP2 SWAP1 PUSH2 0x5C00 JUMP JUMPDEST PUSH1 0x40 DUP1 MLOAD PUSH1 0x1F NOT DUP2 DUP5 SUB ADD DUP2 MSTORE SWAP2 DUP2 MSTORE DUP2 MLOAD PUSH1 0x20 SWAP3 DUP4 ADD KECCAK256 PUSH1 0x0 DUP2 DUP2 MSTORE PUSH1 0x1 SWAP1 SWAP4 MSTORE SWAP1 DUP3 KECCAK256 SLOAD SWAP1 SWAP3 POP SWAP1 SUB PUSH2 0x3A93 JUMPI PUSH1 0x40 MLOAD PUSH3 0x461BCD PUSH1 0xE5 SHL DUP2 MSTORE PUSH1 0x20 PUSH1 0x4 DUP3 ADD MSTORE PUSH1 0x18 PUSH1 0x24 DUP3 ADD MSTORE PUSH32 0x446570656E64656E637920646F65736E27742065786973740000000000000000 PUSH1 0x44 DUP3 ADD MSTORE PUSH1 0x64 ADD PUSH2 0x3E8 JUMP JUMPDEST DUP1 DUP5 DUP5 DUP2 MLOAD DUP2 LT PUSH2 0x3AA6 JUMPI PUSH2 0x3AA6 PUSH2 0x5AE8 JUMP JUMPDEST PUSH1 0x20 MUL PUSH1 0x20 ADD ADD DUP2 DUP2 MSTORE POP POP POP POP DUP1 PUSH2 0x3ABE SWAP1 PUSH2 0x5BAF JUMP JUMPDEST SWAP1 POP PUSH2 0x39BE JUMP JUMPDEST POP PUSH1 0x0 DUP3 PUSH1 0xC0 ADD MLOAD MLOAD PUSH8 0xFFFFFFFFFFFFFFFF DUP2 GT ISZERO PUSH2 0x3AE6 JUMPI PUSH2 0x3AE6 PUSH2 0x4A53 JUMP JUMPDEST PUSH1 0x40 MLOAD SWAP1 DUP1 DUP3 MSTORE DUP1 PUSH1 0x20 MUL PUSH1 0x20 ADD DUP3 ADD PUSH1 0x40 MSTORE DUP1 ISZERO PUSH2 0x3B0F JUMPI DUP2 PUSH1 0x20 ADD PUSH1 0x20 DUP3 MUL DUP1 CALLDATASIZE DUP4 CALLDATACOPY ADD SWAP1 POP JUMPDEST POP SWAP1 POP PUSH1 0x0 JUMPDEST DUP4 PUSH1 0xC0 ADD MLOAD MLOAD DUP2 LT ISZERO PUSH2 0x3D54 JUMPI PUSH1 0x0 DUP5 PUSH1 0xC0 ADD MLOAD DUP3 DUP2 MLOAD DUP2 LT PUSH2 0x3B3A JUMPI PUSH2 0x3B3A PUSH2 0x5AE8 JUMP JUMPDEST PUSH1 0x20 MUL PUSH1 0x20 ADD ADD MLOAD SWAP1 POP PUSH1 0x0 DUP2 PUSH1 0x0 ADD MLOAD DUP3 PUSH1 0x20 ADD MLOAD DUP4 PUSH1 0x40 ADD MLOAD DUP5 PUSH1 0x60 ADD MLOAD DUP6 PUSH1 0x80 ADD MLOAD PUSH1 0x40 MLOAD PUSH1 0x20 ADD PUSH2 0x3B73 SWAP6 SWAP5 SWAP4 SWAP3 SWAP2 SWAP1 PUSH2 0x5C00 JUMP JUMPDEST PUSH1 0x40 DUP1 MLOAD PUSH1 0x1F NOT DUP2 DUP5 SUB ADD DUP2 MSTORE SWAP2 DUP2 MSTORE DUP2 MLOAD PUSH1 0x20 SWAP3 DUP4 ADD KECCAK256 PUSH1 0x0 DUP2 DUP2 MSTORE PUSH1 0x1 SWAP1 SWAP4 MSTORE SWAP1 DUP3 KECCAK256 SLOAD SWAP1 SWAP3 POP SWAP1 SUB PUSH2 0x3BEA JUMPI PUSH1 0x40 MLOAD PUSH3 0x461BCD PUSH1 0xE5 SHL DUP2 MSTORE PUSH1 0x20 PUSH1 0x4 DUP3 ADD MSTORE PUSH1 0x17 PUSH1 0x24 DUP3 ADD MSTORE PUSH32 0x496E7465726661636520646F65736E2774206578697374000000000000000000 PUSH1 0x44 DUP3 ADD MSTORE PUSH1 0x64 ADD PUSH2 0x3E8 JUMP JUMPDEST DUP1 DUP5 DUP5 DUP2 MLOAD DUP2 LT PUSH2 0x3BFD JUMPI PUSH2 0x3BFD PUSH2 0x5AE8 JUMP JUMPDEST PUSH1 0x20 MUL PUSH1 0x20 ADD ADD DUP2 DUP2 MSTORE POP POP PUSH1 0x0 DUP1 JUMPDEST PUSH1 0x5 DUP11 DUP2 SLOAD DUP2 LT PUSH2 0x3C20 JUMPI PUSH2 0x3C20 PUSH2 0x5AE8 JUMP JUMPDEST SWAP1 PUSH1 0x0 MSTORE PUSH1 0x20 PUSH1 0x0 KECCAK256 SWAP1 PUSH1 0x9 MUL ADD PUSH1 0x7 ADD DUP1 SLOAD SWAP1 POP DUP2 LT ISZERO PUSH2 0x3CE7 JUMPI DUP4 MLOAD PUSH1 0x40 MLOAD PUSH2 0x3C4E SWAP2 SWAP1 PUSH1 0x20 ADD PUSH2 0x5ACC JUMP JUMPDEST PUSH1 0x40 MLOAD PUSH1 0x20 DUP2 DUP4 SUB SUB DUP2 MSTORE SWAP1 PUSH1 0x40 MSTORE DUP1 MLOAD SWAP1 PUSH1 0x20 ADD KECCAK256 PUSH1 0x5 DUP12 DUP2 SLOAD DUP2 LT PUSH2 0x3C77 JUMPI PUSH2 0x3C77 PUSH2 0x5AE8 JUMP JUMPDEST SWAP1 PUSH1 0x0 MSTORE PUSH1 0x20 PUSH1 0x0 KECCAK256 SWAP1 PUSH1 0x9 MUL ADD PUSH1 0x7 ADD DUP3 DUP2 SLOAD DUP2 LT PUSH2 0x3C99 JUMPI PUSH2 0x3C99 PUSH2 0x5AE8 JUMP JUMPDEST SWAP1 PUSH1 0x0 MSTORE PUSH1 0x20 PUSH1 0x0 KECCAK256 ADD PUSH1 0x40 MLOAD PUSH1 0x20 ADD PUSH2 0x3CB3 SWAP2 SWAP1 PUSH2 0x5CBB JUMP JUMPDEST PUSH1 0x40 MLOAD PUSH1 0x20 DUP2 DUP4 SUB SUB DUP2 MSTORE SWAP1 PUSH1 0x40 MSTORE DUP1 MLOAD SWAP1 PUSH1 0x20 ADD KECCAK256 SUB PUSH2 0x3CD7 JUMPI PUSH1 0x1 SWAP2 POP PUSH2 0x3CE7 JUMP JUMPDEST PUSH2 0x3CE0 DUP2 PUSH2 0x5BAF JUMP JUMPDEST SWAP1 POP PUSH2 0x3C0D JUMP JUMPDEST POP DUP1 ISZERO ISZERO PUSH1 0x0 SUB PUSH2 0x3D40 JUMPI PUSH1 0x5 DUP10 DUP2 SLOAD DUP2 LT PUSH2 0x3D05 JUMPI PUSH2 0x3D05 PUSH2 0x5AE8 JUMP JUMPDEST PUSH1 0x0 SWAP2 DUP3 MSTORE PUSH1 0x20 DUP1 DUP4 KECCAK256 DUP7 MLOAD PUSH1 0x9 SWAP4 SWAP1 SWAP4 MUL ADD PUSH1 0x7 ADD DUP1 SLOAD PUSH1 0x1 DUP2 ADD DUP3 SSTORE SWAP1 DUP5 MSTORE SWAP3 DUP2 SWAP1 KECCAK256 DUP3 MLOAD PUSH2 0x3D3E SWAP5 SWAP2 SWAP1 SWAP2 ADD SWAP3 SWAP1 SWAP2 ADD SWAP1 PUSH2 0x4857 JUMP JUMPDEST POP JUMPDEST POP POP POP DUP1 PUSH2 0x3D4D SWAP1 PUSH2 0x5BAF JUMP JUMPDEST SWAP1 POP PUSH2 0x3B15 JUMP JUMPDEST POP PUSH1 0x0 PUSH1 0x40 MLOAD DUP1 PUSH2 0x120 ADD PUSH1 0x40 MSTORE DUP1 DUP8 DUP2 MSTORE PUSH1 0x20 ADD DUP6 PUSH1 0x0 ADD MLOAD DUP2 MSTORE PUSH1 0x20 ADD DUP6 PUSH1 0x20 ADD MLOAD PUSH1 0xFF AND DUP2 MSTORE PUSH1 0x20 ADD DUP6 PUSH1 0x40 ADD MLOAD PUSH1 0xFF AND DUP2 MSTORE PUSH1 0x20 ADD DUP6 PUSH1 0x60 ADD MLOAD PUSH1 0xFF AND DUP2 MSTORE PUSH1 0x20 ADD DUP6 PUSH1 0x80 ADD MLOAD DUP2 MSTORE PUSH1 0x20 ADD DUP5 DUP2 MSTORE PUSH1 0x20 ADD DUP4 DUP2 MSTORE PUSH1 0x20 ADD DUP6 PUSH1 0xE0 ADD MLOAD PUSH1 0xFF AND DUP2 MSTORE POP SWAP1 POP PUSH1 0x0 DUP6 DUP6 PUSH1 0x0 ADD MLOAD DUP7 PUSH1 0x20 ADD MLOAD DUP8 PUSH1 0x40 ADD MLOAD DUP9 PUSH1 0x60 ADD MLOAD PUSH1 0x40 MLOAD PUSH1 0x20 ADD PUSH2 0x3DE8 SWAP6 SWAP5 SWAP4 SWAP3 SWAP2 SWAP1 PUSH2 0x5C00 JUMP JUMPDEST PUSH1 0x40 DUP1 MLOAD PUSH1 0x1F NOT DUP2 DUP5 SUB ADD DUP2 MSTORE SWAP2 DUP2 MSTORE DUP2 MLOAD PUSH1 0x20 SWAP3 DUP4 ADD KECCAK256 PUSH1 0x0 DUP2 DUP2 MSTORE PUSH1 0x1 DUP1 DUP6 MSTORE SWAP3 SWAP1 KECCAK256 DUP6 MLOAD DUP2 SSTORE DUP6 DUP5 ADD MLOAD DUP1 MLOAD SWAP3 SWAP6 POP DUP7 SWAP5 SWAP2 SWAP4 PUSH2 0x3E30 SWAP4 SWAP1 DUP6 ADD SWAP3 SWAP2 SWAP1 SWAP2 ADD SWAP1 PUSH2 0x4857 JUMP JUMPDEST POP PUSH1 0x40 DUP3 ADD MLOAD PUSH1 0x2 DUP3 ADD DUP1 SLOAD PUSH1 0x60 DUP6 ADD MLOAD PUSH1 0x80 DUP7 ADD MLOAD PUSH1 0xFF SWAP1 DUP2 AND PUSH3 0x10000 MUL PUSH3 0xFF0000 NOT SWAP3 DUP3 AND PUSH2 0x100 MUL PUSH2 0xFFFF NOT SWAP1 SWAP5 AND SWAP2 SWAP1 SWAP6 AND OR SWAP2 SWAP1 SWAP2 OR AND SWAP2 SWAP1 SWAP2 OR SWAP1 SSTORE PUSH1 0xA0 DUP3 ADD MLOAD DUP1 MLOAD PUSH1 0x3 DUP4 ADD SWAP1 DUP2 SSTORE PUSH1 0x20 DUP1 DUP4 ADD MLOAD DUP1 MLOAD PUSH2 0x3E99 SWAP3 PUSH1 0x4 DUP8 ADD SWAP3 ADD SWAP1 PUSH2 0x48DB JUMP JUMPDEST POP POP POP PUSH1 0xC0 DUP3 ADD MLOAD DUP1 MLOAD PUSH2 0x3EB7 SWAP2 PUSH1 0x5 DUP5 ADD SWAP2 PUSH1 0x20 SWAP1 SWAP2 ADD SWAP1 PUSH2 0x498D JUMP JUMPDEST POP PUSH1 0xE0 DUP3 ADD MLOAD DUP1 MLOAD PUSH2 0x3ED3 SWAP2 PUSH1 0x6 DUP5 ADD SWAP2 PUSH1 0x20 SWAP1 SWAP2 ADD SWAP1 PUSH2 0x498D JUMP JUMPDEST POP PUSH2 0x100 SWAP2 SWAP1 SWAP2 ADD MLOAD PUSH1 0x7 SWAP1 SWAP2 ADD DUP1 SLOAD PUSH1 0xFF NOT AND PUSH1 0xFF SWAP1 SWAP3 AND SWAP2 SWAP1 SWAP2 OR SWAP1 SSTORE PUSH1 0x20 DUP3 DUP2 ADD MLOAD PUSH1 0x40 MLOAD PUSH1 0x0 SWAP3 PUSH2 0x3F0C SWAP3 DUP11 SWAP3 SWAP1 SWAP2 ADD PUSH2 0x5C8C JUMP JUMPDEST PUSH1 0x40 MLOAD PUSH1 0x20 DUP2 DUP4 SUB SUB DUP2 MSTORE SWAP1 PUSH1 0x40 MSTORE DUP1 MLOAD SWAP1 PUSH1 0x20 ADD KECCAK256 SWAP1 POP PUSH1 0x0 DUP1 DUP3 DUP2 MSTORE PUSH1 0x20 ADD SWAP1 DUP2 MSTORE PUSH1 0x20 ADD PUSH1 0x0 KECCAK256 DUP4 PUSH1 0x40 ADD MLOAD PUSH1 0xF8 SHL SWAP1 DUP1 DUP1 SLOAD DUP1 PUSH2 0x3F4C SWAP1 PUSH2 0x5AFE JUMP JUMPDEST DUP1 PUSH1 0x1F DUP2 SUB PUSH2 0x3F6B JUMPI DUP4 PUSH1 0x0 MSTORE PUSH1 0x20 PUSH1 0x0 KECCAK256 PUSH1 0xFF NOT DUP5 AND DUP2 SSTORE PUSH1 0x3F SWAP4 POP POP JUMPDEST POP PUSH1 0x2 SWAP2 SWAP1 SWAP2 ADD SWAP1 SWAP2 SSTORE DUP2 SLOAD PUSH1 0x1 AND ISZERO PUSH2 0x3F94 JUMPI SWAP1 PUSH1 0x0 MSTORE PUSH1 0x20 PUSH1 0x0 KECCAK256 SWAP1 PUSH1 0x20 SWAP2 DUP3 DUP3 DIV ADD SWAP2 SWAP1 MOD JUMPDEST SWAP1 SWAP2 SWAP1 SWAP2 SWAP1 SWAP2 PUSH1 0x1F SUB PUSH2 0x100 EXP DUP2 SLOAD DUP2 PUSH1 0xFF MUL NOT AND SWAP1 PUSH1 0x1 PUSH1 0xF8 SHL DUP5 DIV MUL OR SWAP1 SSTORE POP PUSH1 0x0 DUP1 DUP3 DUP2 MSTORE PUSH1 0x20 ADD SWAP1 DUP2 MSTORE PUSH1 0x20 ADD PUSH1 0x0 KECCAK256 DUP4 PUSH1 0x60 ADD MLOAD PUSH1 0xF8 SHL SWAP1 DUP1 DUP1 SLOAD DUP1 PUSH2 0x3FDE SWAP1 PUSH2 0x5AFE JUMP JUMPDEST DUP1 PUSH1 0x1F DUP2 SUB PUSH2 0x3FFD JUMPI DUP4 PUSH1 0x0 MSTORE PUSH1 0x20 PUSH1 0x0 KECCAK256 PUSH1 0xFF NOT DUP5 AND DUP2 SSTORE PUSH1 0x3F SWAP4 POP POP JUMPDEST POP PUSH1 0x2 SWAP2 SWAP1 SWAP2 ADD SWAP1 SWAP2 SSTORE DUP2 SLOAD PUSH1 0x1 AND ISZERO PUSH2 0x4026 JUMPI SWAP1 PUSH1 0x0 MSTORE PUSH1 0x20 PUSH1 0x0 KECCAK256 SWAP1 PUSH1 0x20 SWAP2 DUP3 DUP3 DIV ADD SWAP2 SWAP1 MOD JUMPDEST SWAP1 SWAP2 SWAP1 SWAP2 SWAP1 SWAP2 PUSH1 0x1F SUB PUSH2 0x100 EXP DUP2 SLOAD DUP2 PUSH1 0xFF MUL NOT AND SWAP1 PUSH1 0x1 PUSH1 0xF8 SHL DUP5 DIV MUL OR SWAP1 SSTORE POP PUSH1 0x0 DUP1 DUP3 DUP2 MSTORE PUSH1 0x20 ADD SWAP1 DUP2 MSTORE PUSH1 0x20 ADD PUSH1 0x0 KECCAK256 DUP4 PUSH1 0x80 ADD MLOAD PUSH1 0xF8 SHL SWAP1 DUP1 DUP1 SLOAD DUP1 PUSH2 0x4070 SWAP1 PUSH2 0x5AFE JUMP JUMPDEST DUP1 PUSH1 0x1F DUP2 SUB PUSH2 0x408F JUMPI DUP4 PUSH1 0x0 MSTORE PUSH1 0x20 PUSH1 0x0 KECCAK256 PUSH1 0xFF NOT DUP5 AND DUP2 SSTORE PUSH1 0x3F SWAP4 POP POP JUMPDEST POP PUSH1 0x2 SWAP2 SWAP1 SWAP2 ADD SWAP1 SWAP2 SSTORE DUP2 SLOAD PUSH1 0x1 AND ISZERO PUSH2 0x40B8 JUMPI SWAP1 PUSH1 0x0 MSTORE PUSH1 0x20 PUSH1 0x0 KECCAK256 SWAP1 PUSH1 0x20 SWAP2 DUP3 DUP3 DIV ADD SWAP2 SWAP1 MOD JUMPDEST DUP2 SLOAD PUSH1 0xFF PUSH1 0x1F SWAP3 SWAP1 SWAP3 SUB PUSH2 0x100 EXP SWAP2 DUP3 MUL NOT AND PUSH1 0x1 PUSH1 0xF8 SHL SWAP1 SWAP4 DIV MUL SWAP2 SWAP1 SWAP2 OR SWAP1 SSTORE PUSH1 0x0 DUP2 DUP2 MSTORE PUSH1 0x20 DUP2 SWAP1 MSTORE PUSH1 0x40 DUP2 KECCAK256 DUP1 SLOAD DUP2 SWAP1 PUSH2 0x40F5 DUP2 PUSH2 0x5AFE JUMP JUMPDEST DUP1 PUSH1 0x1F DUP2 SUB PUSH2 0x4114 JUMPI DUP4 PUSH1 0x0 MSTORE PUSH1 0x20 PUSH1 0x0 KECCAK256 PUSH1 0xFF NOT DUP5 AND DUP2 SSTORE PUSH1 0x3F SWAP4 POP POP JUMPDEST POP PUSH1 0x2 SWAP2 SWAP1 SWAP2 ADD SWAP1 SWAP2 SSTORE DUP2 SLOAD PUSH1 0x1 AND ISZERO PUSH2 0x413D JUMPI SWAP1 PUSH1 0x0 MSTORE PUSH1 0x20 PUSH1 0x0 KECCAK256 SWAP1 PUSH1 0x20 SWAP2 DUP3 DUP3 DIV ADD SWAP2 SWAP1 MOD JUMPDEST SWAP1 SWAP2 SWAP1 SWAP2 SWAP1 SWAP2 PUSH1 0x1F SUB PUSH2 0x100 EXP DUP2 SLOAD DUP2 PUSH1 0xFF MUL NOT AND SWAP1 PUSH1 0x1 PUSH1 0xF8 SHL DUP5 DIV MUL OR SWAP1 SSTORE POP PUSH1 0x1 PUSH1 0x0 PUSH1 0x5 DUP11 DUP2 SLOAD DUP2 LT PUSH2 0x4176 JUMPI PUSH2 0x4176 PUSH2 0x5AE8 JUMP JUMPDEST SWAP1 PUSH1 0x0 MSTORE PUSH1 0x20 PUSH1 0x0 KECCAK256 SWAP1 PUSH1 0x9 MUL ADD PUSH1 0x8 ADD SLOAD SWAP1 SHR AND PUSH1 0x1 SUB PUSH2 0x2746 JUMPI PUSH1 0x5 DUP1 SLOAD PUSH1 0x1 NOT SWAP2 SWAP1 DUP11 SWAP1 DUP2 LT PUSH2 0x41AB JUMPI PUSH2 0x41AB PUSH2 0x5AE8 JUMP JUMPDEST SWAP1 PUSH1 0x0 MSTORE PUSH1 0x20 PUSH1 0x0 KECCAK256 SWAP1 PUSH1 0x9 MUL ADD PUSH1 0x8 ADD SLOAD AND PUSH1 0x5 DUP10 DUP2 SLOAD DUP2 LT PUSH2 0x41D1 JUMPI PUSH2 0x41D1 PUSH2 0x5AE8 JUMP JUMPDEST SWAP1 PUSH1 0x0 MSTORE PUSH1 0x20 PUSH1 0x0 KECCAK256 SWAP1 PUSH1 0x9 MUL ADD PUSH1 0x8 ADD DUP2 SWAP1 SSTORE POP POP POP POP POP POP POP POP POP JUMP JUMPDEST PUSH1 0x0 DUP2 DUP2 JUMPDEST DUP6 MLOAD DUP2 LT ISZERO PUSH2 0x4799 JUMPI PUSH1 0x0 DUP8 DUP8 DUP4 DUP2 MLOAD DUP2 LT PUSH2 0x4213 JUMPI PUSH2 0x4213 PUSH2 0x5AE8 JUMP JUMPDEST PUSH1 0x20 MUL PUSH1 0x20 ADD ADD MLOAD PUSH1 0x40 MLOAD PUSH1 0x20 ADD PUSH2 0x422C SWAP3 SWAP2 SWAP1 PUSH2 0x5B65 JUMP JUMPDEST PUSH1 0x40 DUP1 MLOAD PUSH1 0x1F NOT DUP2 DUP5 SUB ADD DUP2 MSTORE DUP3 DUP3 MSTORE DUP1 MLOAD PUSH1 0x20 SWAP2 DUP3 ADD KECCAK256 PUSH1 0x0 DUP2 DUP2 MSTORE PUSH1 0x2 DUP4 MSTORE DUP4 DUP2 KECCAK256 DUP1 SLOAD DUP1 DUP6 MUL DUP8 ADD DUP6 ADD SWAP1 SWAP6 MSTORE DUP5 DUP7 MSTORE SWAP2 SWAP6 POP SWAP4 SWAP3 SWAP1 SWAP2 DUP4 ADD DUP3 DUP3 DUP1 ISZERO PUSH2 0x42C1 JUMPI PUSH1 0x20 MUL DUP3 ADD SWAP2 SWAP1 PUSH1 0x0 MSTORE PUSH1 0x20 PUSH1 0x0 KECCAK256 SWAP1 PUSH1 0x0 SWAP1 JUMPDEST DUP3 DUP3 SWAP1 SLOAD SWAP1 PUSH2 0x100 EXP SWAP1 DIV PUSH4 0xFFFFFFFF AND PUSH4 0xFFFFFFFF AND DUP2 MSTORE PUSH1 0x20 ADD SWAP1 PUSH1 0x4 ADD SWAP1 PUSH1 0x20 DUP3 PUSH1 0x3 ADD DIV SWAP3 DUP4 ADD SWAP3 PUSH1 0x1 SUB DUP3 MUL SWAP2 POP DUP1 DUP5 GT PUSH2 0x4284 JUMPI SWAP1 POP JUMPDEST POP POP POP POP POP SWAP1 POP PUSH1 0x0 DUP5 SWAP1 POP PUSH1 0x0 JUMPDEST DUP3 MLOAD DUP2 LT ISZERO PUSH2 0x4784 JUMPI PUSH1 0x0 DUP4 DUP3 DUP2 MLOAD DUP2 LT PUSH2 0x42ED JUMPI PUSH2 0x42ED PUSH2 0x5AE8 JUMP JUMPDEST PUSH1 0x20 MUL PUSH1 0x20 ADD ADD MLOAD PUSH4 0xFFFFFFFF AND SWAP1 POP PUSH1 0x0 JUMPDEST DUP4 DUP2 LT ISZERO PUSH2 0x4339 JUMPI DUP2 DUP12 DUP3 DUP2 MLOAD DUP2 LT PUSH2 0x431B JUMPI PUSH2 0x431B PUSH2 0x5AE8 JUMP JUMPDEST PUSH1 0x20 MUL PUSH1 0x20 ADD ADD MLOAD SUB ISZERO PUSH2 0x4339 JUMPI PUSH2 0x4332 DUP2 PUSH2 0x5BAF JUMP JUMPDEST SWAP1 POP PUSH2 0x4300 JUMP JUMPDEST DUP4 DUP2 SUB PUSH2 0x4771 JUMPI DUP2 DUP12 DUP10 PUSH2 0x434C DUP2 PUSH2 0x5BAF JUMP JUMPDEST SWAP11 POP DUP2 MLOAD DUP2 LT PUSH2 0x435E JUMPI PUSH2 0x435E PUSH2 0x5AE8 JUMP JUMPDEST PUSH1 0x20 MUL PUSH1 0x20 ADD ADD DUP2 DUP2 MSTORE POP POP PUSH1 0x0 PUSH1 0x5 DUP4 DUP2 SLOAD DUP2 LT PUSH2 0x437F JUMPI PUSH2 0x437F PUSH2 0x5AE8 JUMP JUMPDEST PUSH1 0x0 SWAP2 DUP3 MSTORE PUSH1 0x20 SWAP2 DUP3 SWAP1 KECCAK256 PUSH1 0x40 DUP1 MLOAD PUSH2 0x100 DUP2 ADD SWAP1 SWAP2 MSTORE PUSH1 0x9 SWAP1 SWAP3 MUL ADD DUP1 SLOAD PUSH1 0xFF AND DUP3 MSTORE PUSH1 0x1 DUP2 ADD DUP1 SLOAD SWAP3 SWAP4 SWAP2 SWAP3 SWAP2 DUP5 ADD SWAP2 PUSH2 0x43BA SWAP1 PUSH2 0x5AFE JUMP JUMPDEST DUP1 PUSH1 0x1F ADD PUSH1 0x20 DUP1 SWAP2 DIV MUL PUSH1 0x20 ADD PUSH1 0x40 MLOAD SWAP1 DUP2 ADD PUSH1 0x40 MSTORE DUP1 SWAP3 SWAP2 SWAP1 DUP2 DUP2 MSTORE PUSH1 0x20 ADD DUP3 DUP1 SLOAD PUSH2 0x43E6 SWAP1 PUSH2 0x5AFE JUMP JUMPDEST DUP1 ISZERO PUSH2 0x4433 JUMPI DUP1 PUSH1 0x1F LT PUSH2 0x4408 JUMPI PUSH2 0x100 DUP1 DUP4 SLOAD DIV MUL DUP4 MSTORE SWAP2 PUSH1 0x20 ADD SWAP2 PUSH2 0x4433 JUMP JUMPDEST DUP3 ADD SWAP2 SWAP1 PUSH1 0x0 MSTORE PUSH1 0x20 PUSH1 0x0 KECCAK256 SWAP1 JUMPDEST DUP2 SLOAD DUP2 MSTORE SWAP1 PUSH1 0x1 ADD SWAP1 PUSH1 0x20 ADD DUP1 DUP4 GT PUSH2 0x4416 JUMPI DUP3 SWAP1 SUB PUSH1 0x1F AND DUP3 ADD SWAP2 JUMPDEST POP POP POP POP POP DUP2 MSTORE PUSH1 0x20 ADD PUSH1 0x2 DUP3 ADD DUP1 SLOAD PUSH2 0x444C SWAP1 PUSH2 0x5AFE JUMP JUMPDEST DUP1 PUSH1 0x1F ADD PUSH1 0x20 DUP1 SWAP2 DIV MUL PUSH1 0x20 ADD PUSH1 0x40 MLOAD SWAP1 DUP2 ADD PUSH1 0x40 MSTORE DUP1 SWAP3 SWAP2 SWAP1 DUP2 DUP2 MSTORE PUSH1 0x20 ADD DUP3 DUP1 SLOAD PUSH2 0x4478 SWAP1 PUSH2 0x5AFE JUMP JUMPDEST DUP1 ISZERO PUSH2 0x44C5 JUMPI DUP1 PUSH1 0x1F LT PUSH2 0x449A JUMPI PUSH2 0x100 DUP1 DUP4 SLOAD DIV MUL DUP4 MSTORE SWAP2 PUSH1 0x20 ADD SWAP2 PUSH2 0x44C5 JUMP JUMPDEST DUP3 ADD SWAP2 SWAP1 PUSH1 0x0 MSTORE PUSH1 0x20 PUSH1 0x0 KECCAK256 SWAP1 JUMPDEST DUP2 SLOAD DUP2 MSTORE SWAP1 PUSH1 0x1 ADD SWAP1 PUSH1 0x20 ADD DUP1 DUP4 GT PUSH2 0x44A8 JUMPI DUP3 SWAP1 SUB PUSH1 0x1F AND DUP3 ADD SWAP2 JUMPDEST POP POP POP POP POP DUP2 MSTORE PUSH1 0x20 ADD PUSH1 0x3 DUP3 ADD DUP1 SLOAD PUSH2 0x44DE SWAP1 PUSH2 0x5AFE JUMP JUMPDEST DUP1 PUSH1 0x1F ADD PUSH1 0x20 DUP1 SWAP2 DIV MUL PUSH1 0x20 ADD PUSH1 0x40 MLOAD SWAP1 DUP2 ADD PUSH1 0x40 MSTORE DUP1 SWAP3 SWAP2 SWAP1 DUP2 DUP2 MSTORE PUSH1 0x20 ADD DUP3 DUP1 SLOAD PUSH2 0x450A SWAP1 PUSH2 0x5AFE JUMP JUMPDEST DUP1 ISZERO PUSH2 0x4557 JUMPI DUP1 PUSH1 0x1F LT PUSH2 0x452C JUMPI PUSH2 0x100 DUP1 DUP4 SLOAD DIV MUL DUP4 MSTORE SWAP2 PUSH1 0x20 ADD SWAP2 PUSH2 0x4557 JUMP JUMPDEST DUP3 ADD SWAP2 SWAP1 PUSH1 0x0 MSTORE PUSH1 0x20 PUSH1 0x0 KECCAK256 SWAP1 JUMPDEST DUP2 SLOAD DUP2 MSTORE SWAP1 PUSH1 0x1 ADD SWAP1 PUSH1 0x20 ADD DUP1 DUP4 GT PUSH2 0x453A JUMPI DUP3 SWAP1 SUB PUSH1 0x1F AND DUP3 ADD SWAP2 JUMPDEST POP POP POP POP POP DUP2 MSTORE PUSH1 0x20 ADD PUSH1 0x4 DUP3 ADD PUSH1 0x40 MLOAD DUP1 PUSH1 0x40 ADD PUSH1 0x40 MSTORE SWAP1 DUP2 PUSH1 0x0 DUP3 ADD SLOAD DUP2 MSTORE PUSH1 0x20 ADD PUSH1 0x1 DUP3 ADD DUP1 SLOAD DUP1 PUSH1 0x20 MUL PUSH1 0x20 ADD PUSH1 0x40 MLOAD SWAP1 DUP2 ADD PUSH1 0x40 MSTORE DUP1 SWAP3 SWAP2 SWAP1 DUP2 DUP2 MSTORE PUSH1 0x20 ADD PUSH1 0x0 SWAP1 JUMPDEST DUP3 DUP3 LT ISZERO PUSH2 0x464B JUMPI DUP4 DUP3 SWAP1 PUSH1 0x0 MSTORE PUSH1 0x20 PUSH1 0x0 KECCAK256 ADD DUP1 SLOAD PUSH2 0x45BE SWAP1 PUSH2 0x5AFE JUMP JUMPDEST DUP1 PUSH1 0x1F ADD PUSH1 0x20 DUP1 SWAP2 DIV MUL PUSH1 0x20 ADD PUSH1 0x40 MLOAD SWAP1 DUP2 ADD PUSH1 0x40 MSTORE DUP1 SWAP3 SWAP2 SWAP1 DUP2 DUP2 MSTORE PUSH1 0x20 ADD DUP3 DUP1 SLOAD PUSH2 0x45EA SWAP1 PUSH2 0x5AFE JUMP JUMPDEST DUP1 ISZERO PUSH2 0x4637 JUMPI DUP1 PUSH1 0x1F LT PUSH2 0x460C JUMPI PUSH2 0x100 DUP1 DUP4 SLOAD DIV MUL DUP4 MSTORE SWAP2 PUSH1 0x20 ADD SWAP2 PUSH2 0x4637 JUMP JUMPDEST DUP3 ADD SWAP2 SWAP1 PUSH1 0x0 MSTORE PUSH1 0x20 PUSH1 0x0 KECCAK256 SWAP1 JUMPDEST DUP2 SLOAD DUP2 MSTORE SWAP1 PUSH1 0x1 ADD SWAP1 PUSH1 0x20 ADD DUP1 DUP4 GT PUSH2 0x461A JUMPI DUP3 SWAP1 SUB PUSH1 0x1F AND DUP3 ADD SWAP2 JUMPDEST POP POP POP POP POP DUP2 MSTORE PUSH1 0x20 ADD SWAP1 PUSH1 0x1 ADD SWAP1 PUSH2 0x459F JUMP JUMPDEST POP POP POP SWAP2 MSTORE POP POP DUP2 MSTORE PUSH1 0x6 DUP3 ADD SLOAD PUSH1 0x1 PUSH1 0x1 PUSH1 0xA0 SHL SUB AND PUSH1 0x20 DUP1 DUP4 ADD SWAP2 SWAP1 SWAP2 MSTORE PUSH1 0x7 DUP4 ADD DUP1 SLOAD PUSH1 0x40 DUP1 MLOAD DUP3 DUP6 MUL DUP2 ADD DUP6 ADD DUP3 MSTORE DUP3 DUP2 MSTORE SWAP5 ADD SWAP4 SWAP3 PUSH1 0x0 SWAP1 DUP5 ADD JUMPDEST DUP3 DUP3 LT ISZERO PUSH2 0x4737 JUMPI DUP4 DUP3 SWAP1 PUSH1 0x0 MSTORE PUSH1 0x20 PUSH1 0x0 KECCAK256 ADD DUP1 SLOAD PUSH2 0x46AA SWAP1 PUSH2 0x5AFE JUMP JUMPDEST DUP1 PUSH1 0x1F ADD PUSH1 0x20 DUP1 SWAP2 DIV MUL PUSH1 0x20 ADD PUSH1 0x40 MLOAD SWAP1 DUP2 ADD PUSH1 0x40 MSTORE DUP1 SWAP3 SWAP2 SWAP1 DUP2 DUP2 MSTORE PUSH1 0x20 ADD DUP3 DUP1 SLOAD PUSH2 0x46D6 SWAP1 PUSH2 0x5AFE JUMP JUMPDEST DUP1 ISZERO PUSH2 0x4723 JUMPI DUP1 PUSH1 0x1F LT PUSH2 0x46F8 JUMPI PUSH2 0x100 DUP1 DUP4 SLOAD DIV MUL DUP4 MSTORE SWAP2 PUSH1 0x20 ADD SWAP2 PUSH2 0x4723 JUMP JUMPDEST DUP3 ADD SWAP2 SWAP1 PUSH1 0x0 MSTORE PUSH1 0x20 PUSH1 0x0 KECCAK256 SWAP1 JUMPDEST DUP2 SLOAD DUP2 MSTORE SWAP1 PUSH1 0x1 ADD SWAP1 PUSH1 0x20 ADD DUP1 DUP4 GT PUSH2 0x4706 JUMPI DUP3 SWAP1 SUB PUSH1 0x1F AND DUP3 ADD SWAP2 JUMPDEST POP POP POP POP POP DUP2 MSTORE PUSH1 0x20 ADD SWAP1 PUSH1 0x1 ADD SWAP1 PUSH2 0x468B JUMP JUMPDEST POP POP POP POP DUP2 MSTORE PUSH1 0x20 ADD PUSH1 0x8 DUP3 ADD SLOAD DUP2 MSTORE POP POP SWAP1 POP PUSH2 0x475B DUP2 PUSH1 0x20 ADD MLOAD DUP15 DUP15 DUP13 PUSH2 0x41F0 JUMP JUMPDEST SWAP9 POP PUSH2 0x476D DUP2 PUSH1 0xC0 ADD MLOAD DUP15 DUP15 DUP13 PUSH2 0x47A3 JUMP JUMPDEST SWAP9 POP POP JUMPDEST POP POP DUP1 PUSH2 0x477D SWAP1 PUSH2 0x5BAF JUMP JUMPDEST SWAP1 POP PUSH2 0x42D0 JUMP JUMPDEST POP POP POP POP DUP1 PUSH2 0x4792 SWAP1 PUSH2 0x5BAF JUMP JUMPDEST SWAP1 POP PUSH2 0x41F5 JUMP JUMPDEST POP SWAP6 SWAP5 POP POP POP POP POP JUMP JUMPDEST PUSH1 0x0 DUP2 DUP2 JUMPDEST DUP7 MLOAD DUP2 LT ISZERO PUSH2 0x4799 JUMPI PUSH2 0x47D6 DUP8 DUP3 DUP2 MLOAD DUP2 LT PUSH2 0x47C6 JUMPI PUSH2 0x47C6 PUSH2 0x5AE8 JUMP JUMPDEST PUSH1 0x20 MUL PUSH1 0x20 ADD ADD MLOAD DUP8 DUP8 DUP6 PUSH2 0x41F0 JUMP JUMPDEST SWAP2 POP PUSH2 0x47E1 DUP2 PUSH2 0x5BAF JUMP JUMPDEST SWAP1 POP PUSH2 0x47A8 JUMP JUMPDEST PUSH1 0x40 MLOAD DUP1 PUSH2 0x100 ADD PUSH1 0x40 MSTORE DUP1 PUSH1 0x0 PUSH1 0xFF AND DUP2 MSTORE PUSH1 0x20 ADD PUSH1 0x60 DUP2 MSTORE PUSH1 0x20 ADD PUSH1 0x60 DUP2 MSTORE PUSH1 0x20 ADD PUSH1 0x60 DUP2 MSTORE PUSH1 0x20 ADD PUSH2 0x4833 PUSH1 0x40 MLOAD DUP1 PUSH1 0x40 ADD PUSH1 0x40 MSTORE DUP1 PUSH1 0x0 DUP1 NOT AND DUP2 MSTORE PUSH1 0x20 ADD PUSH1 0x60 DUP2 MSTORE POP SWAP1 JUMP JUMPDEST DUP2 MSTORE PUSH1 0x20 ADD PUSH1 0x0 PUSH1 0x1 PUSH1 0x1 PUSH1 0xA0 SHL SUB AND DUP2 MSTORE PUSH1 0x20 ADD PUSH1 0x60 DUP2 MSTORE PUSH1 0x20 ADD PUSH1 0x0 DUP2 MSTORE POP SWAP1 JUMP JUMPDEST DUP3 DUP1 SLOAD PUSH2 0x4863 SWAP1 PUSH2 0x5AFE JUMP JUMPDEST SWAP1 PUSH1 0x0 MSTORE PUSH1 0x20 PUSH1 0x0 KECCAK256 SWAP1 PUSH1 0x1F ADD PUSH1 0x20 SWAP1 DIV DUP2 ADD SWAP3 DUP3 PUSH2 0x4885 JUMPI PUSH1 0x0 DUP6 SSTORE PUSH2 0x48CB JUMP JUMPDEST DUP3 PUSH1 0x1F LT PUSH2 0x489E JUMPI DUP1 MLOAD PUSH1 0xFF NOT AND DUP4 DUP1 ADD OR DUP6 SSTORE PUSH2 0x48CB JUMP JUMPDEST DUP3 DUP1 ADD PUSH1 0x1 ADD DUP6 SSTORE DUP3 ISZERO PUSH2 0x48CB JUMPI SWAP2 DUP3 ADD JUMPDEST DUP3 DUP2 GT ISZERO PUSH2 0x48CB JUMPI DUP3 MLOAD DUP3 SSTORE SWAP2 PUSH1 0x20 ADD SWAP2 SWAP1 PUSH1 0x1 ADD SWAP1 PUSH2 0x48B0 JUMP JUMPDEST POP PUSH2 0x48D7 SWAP3 SWAP2 POP PUSH2 0x49C7 JUMP JUMPDEST POP SWAP1 JUMP JUMPDEST DUP3 DUP1 SLOAD DUP3 DUP3 SSTORE SWAP1 PUSH1 0x0 MSTORE PUSH1 0x20 PUSH1 0x0 KECCAK256 SWAP1 DUP2 ADD SWAP3 DUP3 ISZERO PUSH2 0x4928 JUMPI SWAP2 PUSH1 0x20 MUL DUP3 ADD JUMPDEST DUP3 DUP2 GT ISZERO PUSH2 0x4928 JUMPI DUP3 MLOAD DUP1 MLOAD PUSH2 0x4918 SWAP2 DUP5 SWAP2 PUSH1 0x20 SWAP1 SWAP2 ADD SWAP1 PUSH2 0x4857 JUMP JUMPDEST POP SWAP2 PUSH1 0x20 ADD SWAP2 SWAP1 PUSH1 0x1 ADD SWAP1 PUSH2 0x48FB JUMP JUMPDEST POP PUSH2 0x48D7 SWAP3 SWAP2 POP PUSH2 0x49DC JUMP JUMPDEST DUP3 DUP1 SLOAD DUP3 DUP3 SSTORE SWAP1 PUSH1 0x0 MSTORE PUSH1 0x20 PUSH1 0x0 KECCAK256 SWAP1 DUP2 ADD SWAP3 DUP3 ISZERO PUSH2 0x4981 JUMPI SWAP2 PUSH1 0x20 MUL DUP3 ADD JUMPDEST DUP3 DUP2 GT ISZERO PUSH2 0x4981 JUMPI DUP3 MLOAD DUP1 MLOAD PUSH2 0x4971 SWAP2 DUP5 SWAP2 PUSH1 0x20 SWAP1 SWAP2 ADD SWAP1 PUSH2 0x4857 JUMP JUMPDEST POP SWAP2 PUSH1 0x20 ADD SWAP2 SWAP1 PUSH1 0x1 ADD SWAP1 PUSH2 0x4954 JUMP JUMPDEST POP PUSH2 0x48D7 SWAP3 SWAP2 POP PUSH2 0x49F9 JUMP JUMPDEST DUP3 DUP1 SLOAD DUP3 DUP3 SSTORE SWAP1 PUSH1 0x0 MSTORE PUSH1 0x20 PUSH1 0x0 KECCAK256 SWAP1 DUP2 ADD SWAP3 DUP3 ISZERO PUSH2 0x48CB JUMPI SWAP2 PUSH1 0x20 MUL DUP3 ADD DUP3 DUP2 GT ISZERO PUSH2 0x48CB JUMPI DUP3 MLOAD DUP3 SSTORE SWAP2 PUSH1 0x20 ADD SWAP2 SWAP1 PUSH1 0x1 ADD SWAP1 PUSH2 0x48B0 JUMP JUMPDEST JUMPDEST DUP1 DUP3 GT ISZERO PUSH2 0x48D7 JUMPI PUSH1 0x0 DUP2 SSTORE PUSH1 0x1 ADD PUSH2 0x49C8 JUMP JUMPDEST DUP1 DUP3 GT ISZERO PUSH2 0x48D7 JUMPI PUSH1 0x0 PUSH2 0x49F0 DUP3 DUP3 PUSH2 0x4A16 JUMP JUMPDEST POP PUSH1 0x1 ADD PUSH2 0x49DC JUMP JUMPDEST DUP1 DUP3 GT ISZERO PUSH2 0x48D7 JUMPI PUSH1 0x0 PUSH2 0x4A0D DUP3 DUP3 PUSH2 0x4A16 JUMP JUMPDEST POP PUSH1 0x1 ADD PUSH2 0x49F9 JUMP JUMPDEST POP DUP1 SLOAD PUSH2 0x4A22 SWAP1 PUSH2 0x5AFE JUMP JUMPDEST PUSH1 0x0 DUP3 SSTORE DUP1 PUSH1 0x1F LT PUSH2 0x4A32 JUMPI POP POP JUMP JUMPDEST PUSH1 0x1F ADD PUSH1 0x20 SWAP1 DIV SWAP1 PUSH1 0x0 MSTORE PUSH1 0x20 PUSH1 0x0 KECCAK256 SWAP1 DUP2 ADD SWAP1 PUSH2 0x4A50 SWAP2 SWAP1 PUSH2 0x49C7 JUMP JUMPDEST POP JUMP JUMPDEST PUSH4 0x4E487B71 PUSH1 0xE0 SHL PUSH1 0x0 MSTORE PUSH1 0x41 PUSH1 0x4 MSTORE PUSH1 0x24 PUSH1 0x0 REVERT JUMPDEST PUSH1 0x40 DUP1 MLOAD SWAP1 DUP2 ADD PUSH8 0xFFFFFFFFFFFFFFFF DUP2 GT DUP3 DUP3 LT OR ISZERO PUSH2 0x4A8C JUMPI PUSH2 0x4A8C PUSH2 0x4A53 JUMP JUMPDEST PUSH1 0x40 MSTORE SWAP1 JUMP JUMPDEST PUSH1 0x40 MLOAD PUSH1 0xA0 DUP2 ADD PUSH8 0xFFFFFFFFFFFFFFFF DUP2 GT DUP3 DUP3 LT OR ISZERO PUSH2 0x4A8C JUMPI PUSH2 0x4A8C PUSH2 0x4A53 JUMP JUMPDEST PUSH1 0x40 MLOAD PUSH2 0x100 DUP2 ADD PUSH8 0xFFFFFFFFFFFFFFFF DUP2 GT DUP3 DUP3 LT OR ISZERO PUSH2 0x4A8C JUMPI PUSH2 0x4A8C PUSH2 0x4A53 JUMP JUMPDEST PUSH1 0x40 MLOAD PUSH1 0x1F DUP3 ADD PUSH1 0x1F NOT AND DUP2 ADD PUSH8 0xFFFFFFFFFFFFFFFF DUP2 GT DUP3 DUP3 LT OR ISZERO PUSH2 0x4B02 JUMPI PUSH2 0x4B02 PUSH2 0x4A53 JUMP JUMPDEST PUSH1 0x40 MSTORE SWAP2 SWAP1 POP JUMP JUMPDEST PUSH1 0x0 PUSH8 0xFFFFFFFFFFFFFFFF DUP4 GT ISZERO PUSH2 0x4B24 JUMPI PUSH2 0x4B24 PUSH2 0x4A53 JUMP JUMPDEST PUSH2 0x4B37 PUSH1 0x1F DUP5 ADD PUSH1 0x1F NOT AND PUSH1 0x20 ADD PUSH2 0x4AD9 JUMP JUMPDEST SWAP1 POP DUP3 DUP2 MSTORE DUP4 DUP4 DUP4 ADD GT ISZERO PUSH2 0x4B4B JUMPI PUSH1 0x0 DUP1 REVERT JUMPDEST DUP3 DUP3 PUSH1 0x20 DUP4 ADD CALLDATACOPY PUSH1 0x0 PUSH1 0x20 DUP5 DUP4 ADD ADD MSTORE SWAP4 SWAP3 POP POP POP JUMP JUMPDEST PUSH1 0x0 DUP3 PUSH1 0x1F DUP4 ADD SLT PUSH2 0x4B73 JUMPI PUSH1 0x0 DUP1 REVERT JUMPDEST PUSH2 0x4B82 DUP4 DUP4 CALLDATALOAD PUSH1 0x20 DUP6 ADD PUSH2 0x4B0A JUMP JUMPDEST SWAP4 SWAP3 POP POP POP JUMP JUMPDEST DUP1 CALLDATALOAD PUSH1 0xFF DUP2 AND DUP2 EQ PUSH2 0x4B9A JUMPI PUSH1 0x0 DUP1 REVERT JUMPDEST SWAP2 SWAP1 POP JUMP JUMPDEST PUSH1 0x0 PUSH8 0xFFFFFFFFFFFFFFFF DUP3 GT ISZERO PUSH2 0x4BB9 JUMPI PUSH2 0x4BB9 PUSH2 0x4A53 JUMP JUMPDEST POP PUSH1 0x5 SHL PUSH1 0x20 ADD SWAP1 JUMP JUMPDEST PUSH1 0x0 PUSH1 0x40 DUP1 DUP4 DUP6 SUB SLT ISZERO PUSH2 0x4BD6 JUMPI PUSH1 0x0 DUP1 REVERT JUMPDEST PUSH2 0x4BDE PUSH2 0x4A69 JUMP JUMPDEST SWAP2 POP DUP3 CALLDATALOAD DUP3 MSTORE PUSH1 0x20 DUP1 DUP5 ADD CALLDATALOAD PUSH8 0xFFFFFFFFFFFFFFFF DUP1 DUP3 GT ISZERO PUSH2 0x4C00 JUMPI PUSH1 0x0 DUP1 REVERT JUMPDEST DUP2 DUP7 ADD SWAP2 POP DUP7 PUSH1 0x1F DUP4 ADD SLT PUSH2 0x4C14 JUMPI PUSH1 0x0 DUP1 REVERT JUMPDEST DUP2 CALLDATALOAD PUSH2 0x4C27 PUSH2 0x4C22 DUP3 PUSH2 0x4B9F JUMP JUMPDEST PUSH2 0x4AD9 JUMP JUMPDEST DUP2 DUP2 MSTORE PUSH1 0x5 SWAP2 SWAP1 SWAP2 SHL DUP4 ADD DUP5 ADD SWAP1 DUP5 DUP2 ADD SWAP1 DUP10 DUP4 GT ISZERO PUSH2 0x4C46 JUMPI PUSH1 0x0 DUP1 REVERT JUMPDEST DUP6 DUP6 ADD JUMPDEST DUP4 DUP2 LT ISZERO PUSH2 0x4C92 JUMPI DUP1 CALLDATALOAD DUP6 DUP2 GT ISZERO PUSH2 0x4C62 JUMPI PUSH1 0x0 DUP1 DUP2 REVERT JUMPDEST DUP7 ADD PUSH1 0x3F DUP2 ADD DUP13 SGT PUSH2 0x4C74 JUMPI PUSH1 0x0 DUP1 DUP2 REVERT JUMPDEST PUSH2 0x4C84 DUP13 DUP10 DUP4 ADD CALLDATALOAD DUP12 DUP5 ADD PUSH2 0x4B0A JUMP JUMPDEST DUP5 MSTORE POP SWAP2 DUP7 ADD SWAP2 DUP7 ADD PUSH2 0x4C4A JUMP JUMPDEST POP DUP1 DUP7 DUP10 ADD MSTORE POP POP POP POP POP POP POP SWAP3 SWAP2 POP POP JUMP JUMPDEST PUSH1 0x0 DUP3 PUSH1 0x1F DUP4 ADD SLT PUSH2 0x4CB6 JUMPI PUSH1 0x0 DUP1 REVERT JUMPDEST DUP2 CALLDATALOAD PUSH1 0x20 PUSH2 0x4CC6 PUSH2 0x4C22 DUP4 PUSH2 0x4B9F JUMP JUMPDEST DUP3 DUP2 MSTORE PUSH1 0x5 SWAP3 SWAP1 SWAP3 SHL DUP5 ADD DUP2 ADD SWAP2 DUP2 DUP2 ADD SWAP1 DUP7 DUP5 GT ISZERO PUSH2 0x4CE5 JUMPI PUSH1 0x0 DUP1 REVERT JUMPDEST DUP3 DUP7 ADD JUMPDEST DUP5 DUP2 LT ISZERO PUSH2 0x4DB9 JUMPI DUP1 CALLDATALOAD PUSH8 0xFFFFFFFFFFFFFFFF DUP1 DUP3 GT ISZERO PUSH2 0x4D0A JUMPI PUSH1 0x0 DUP1 DUP2 REVERT JUMPDEST SWAP1 DUP9 ADD SWAP1 PUSH1 0xA0 DUP3 DUP12 SUB PUSH1 0x1F NOT ADD DUP2 SGT ISZERO PUSH2 0x4D24 JUMPI PUSH1 0x0 DUP1 DUP2 REVERT JUMPDEST PUSH2 0x4D2C PUSH2 0x4A92 JUMP JUMPDEST DUP8 DUP5 ADD CALLDATALOAD DUP4 DUP2 GT ISZERO PUSH2 0x4D3E JUMPI PUSH1 0x0 DUP1 DUP2 REVERT JUMPDEST PUSH2 0x4D4C DUP14 DUP11 DUP4 DUP9 ADD ADD PUSH2 0x4B62 JUMP JUMPDEST DUP3 MSTORE POP PUSH1 0x40 DUP1 DUP6 ADD CALLDATALOAD DUP5 DUP2 GT ISZERO PUSH2 0x4D63 JUMPI PUSH1 0x0 DUP1 DUP2 REVERT JUMPDEST PUSH2 0x4D71 DUP15 DUP12 DUP4 DUP10 ADD ADD PUSH2 0x4B62 JUMP JUMPDEST DUP11 DUP5 ADD MSTORE POP PUSH1 0x60 SWAP4 POP PUSH2 0x4D85 DUP5 DUP7 ADD PUSH2 0x4B89 JUMP JUMPDEST SWAP1 DUP3 ADD MSTORE PUSH1 0x80 PUSH2 0x4D96 DUP6 DUP3 ADD PUSH2 0x4B89 JUMP JUMPDEST DUP5 DUP4 ADD MSTORE PUSH2 0x4DA5 DUP4 DUP7 ADD PUSH2 0x4B89 JUMP JUMPDEST SWAP1 DUP3 ADD MSTORE DUP7 MSTORE POP POP POP SWAP2 DUP4 ADD SWAP2 DUP4 ADD PUSH2 0x4CE9 JUMP JUMPDEST POP SWAP7 SWAP6 POP POP POP POP POP POP JUMP JUMPDEST PUSH1 0x0 PUSH2 0x100 DUP3 DUP5 SUB SLT ISZERO PUSH2 0x4DD7 JUMPI PUSH1 0x0 DUP1 REVERT JUMPDEST PUSH2 0x4DDF PUSH2 0x4AB5 JUMP JUMPDEST SWAP1 POP DUP2 CALLDATALOAD PUSH8 0xFFFFFFFFFFFFFFFF DUP1 DUP3 GT ISZERO PUSH2 0x4DF9 JUMPI PUSH1 0x0 DUP1 REVERT JUMPDEST PUSH2 0x4E05 DUP6 DUP4 DUP7 ADD PUSH2 0x4B62 JUMP JUMPDEST DUP4 MSTORE PUSH2 0x4E13 PUSH1 0x20 DUP6 ADD PUSH2 0x4B89 JUMP JUMPDEST PUSH1 0x20 DUP5 ADD MSTORE PUSH2 0x4E24 PUSH1 0x40 DUP6 ADD PUSH2 0x4B89 JUMP JUMPDEST PUSH1 0x40 DUP5 ADD MSTORE PUSH2 0x4E35 PUSH1 0x60 DUP6 ADD PUSH2 0x4B89 JUMP JUMPDEST PUSH1 0x60 DUP5 ADD MSTORE PUSH1 0x80 DUP5 ADD CALLDATALOAD SWAP2 POP DUP1 DUP3 GT ISZERO PUSH2 0x4E4E JUMPI PUSH1 0x0 DUP1 REVERT JUMPDEST PUSH2 0x4E5A DUP6 DUP4 DUP7 ADD PUSH2 0x4BC3 JUMP JUMPDEST PUSH1 0x80 DUP5 ADD MSTORE PUSH1 0xA0 DUP5 ADD CALLDATALOAD SWAP2 POP DUP1 DUP3 GT ISZERO PUSH2 0x4E73 JUMPI PUSH1 0x0 DUP1 REVERT JUMPDEST PUSH2 0x4E7F DUP6 DUP4 DUP7 ADD PUSH2 0x4CA5 JUMP JUMPDEST PUSH1 0xA0 DUP5 ADD MSTORE PUSH1 0xC0 DUP5 ADD CALLDATALOAD SWAP2 POP DUP1 DUP3 GT ISZERO PUSH2 0x4E98 JUMPI PUSH1 0x0 DUP1 REVERT JUMPDEST POP PUSH2 0x4EA5 DUP5 DUP3 DUP6 ADD PUSH2 0x4CA5 JUMP JUMPDEST PUSH1 0xC0 DUP4 ADD MSTORE POP PUSH2 0x4EB7 PUSH1 0xE0 DUP4 ADD PUSH2 0x4B89 JUMP JUMPDEST PUSH1 0xE0 DUP3 ADD MSTORE SWAP3 SWAP2 POP POP JUMP JUMPDEST PUSH1 0x0 DUP1 PUSH1 0x40 DUP4 DUP6 SUB SLT ISZERO PUSH2 0x4ED5 JUMPI PUSH1 0x0 DUP1 REVERT JUMPDEST DUP3 CALLDATALOAD PUSH8 0xFFFFFFFFFFFFFFFF DUP1 DUP3 GT ISZERO PUSH2 0x4EED JUMPI PUSH1 0x0 DUP1 REVERT JUMPDEST PUSH2 0x4EF9 DUP7 DUP4 DUP8 ADD PUSH2 0x4B62 JUMP JUMPDEST SWAP4 POP PUSH1 0x20 DUP6 ADD CALLDATALOAD SWAP2 POP DUP1 DUP3 GT ISZERO PUSH2 0x4F0F JUMPI PUSH1 0x0 DUP1 REVERT JUMPDEST POP PUSH2 0x4F1C DUP6 DUP3 DUP7 ADD PUSH2 0x4DC4 JUMP JUMPDEST SWAP2 POP POP SWAP3 POP SWAP3 SWAP1 POP JUMP JUMPDEST PUSH1 0x0 PUSH1 0x20 DUP3 DUP5 SUB SLT ISZERO PUSH2 0x4F38 JUMPI PUSH1 0x0 DUP1 REVERT JUMPDEST DUP2 CALLDATALOAD PUSH8 0xFFFFFFFFFFFFFFFF DUP2 GT ISZERO PUSH2 0x4F4F JUMPI PUSH1 0x0 DUP1 REVERT JUMPDEST PUSH2 0x4F5B DUP5 DUP3 DUP6 ADD PUSH2 0x4B62 JUMP JUMPDEST SWAP5 SWAP4 POP POP POP POP JUMP JUMPDEST PUSH1 0x0 JUMPDEST DUP4 DUP2 LT ISZERO PUSH2 0x4F7E JUMPI DUP2 DUP2 ADD MLOAD DUP4 DUP3 ADD MSTORE PUSH1 0x20 ADD PUSH2 0x4F66 JUMP JUMPDEST DUP4 DUP2 GT ISZERO PUSH2 0x4F8D JUMPI PUSH1 0x0 DUP5 DUP5 ADD MSTORE JUMPDEST POP POP POP POP JUMP JUMPDEST PUSH1 0x0 DUP2 MLOAD DUP1 DUP5 MSTORE PUSH2 0x4FAB DUP2 PUSH1 0x20 DUP7 ADD PUSH1 0x20 DUP7 ADD PUSH2 0x4F63 JUMP JUMPDEST PUSH1 0x1F ADD PUSH1 0x1F NOT AND SWAP3 SWAP1 SWAP3 ADD PUSH1 0x20 ADD SWAP3 SWAP2 POP POP JUMP JUMPDEST PUSH1 0x0 PUSH1 0x40 DUP4 ADD DUP3 MLOAD DUP5 MSTORE PUSH1 0x20 DUP1 DUP5 ADD MLOAD PUSH1 0x40 DUP3 DUP8 ADD MSTORE DUP3 DUP2 MLOAD DUP1 DUP6 MSTORE PUSH1 0x60 DUP9 ADD SWAP2 POP PUSH1 0x60 DUP2 PUSH1 0x5 SHL DUP10 ADD ADD SWAP5 POP DUP4 DUP4 ADD SWAP3 POP PUSH1 0x0 JUMPDEST DUP2 DUP2 LT ISZERO PUSH2 0x5022 JUMPI PUSH1 0x5F NOT DUP10 DUP8 SUB ADD DUP4 MSTORE PUSH2 0x5010 DUP7 DUP6 MLOAD PUSH2 0x4F93 JUMP JUMPDEST SWAP6 POP SWAP3 DUP5 ADD SWAP3 SWAP2 DUP5 ADD SWAP2 PUSH1 0x1 ADD PUSH2 0x4FF4 JUMP JUMPDEST POP SWAP4 SWAP8 SWAP7 POP POP POP POP POP POP POP JUMP JUMPDEST PUSH1 0x0 DUP2 MLOAD DUP1 DUP5 MSTORE PUSH1 0x20 DUP1 DUP6 ADD DUP1 DUP2 SWAP7 POP DUP4 PUSH1 0x5 SHL DUP2 ADD SWAP2 POP DUP3 DUP7 ADD PUSH1 0x0 JUMPDEST DUP6 DUP2 LT ISZERO PUSH2 0x5077 JUMPI DUP3 DUP5 SUB DUP10 MSTORE PUSH2 0x5065 DUP5 DUP4 MLOAD PUSH2 0x4F93 JUMP JUMPDEST SWAP9 DUP6 ADD SWAP9 SWAP4 POP SWAP1 DUP5 ADD SWAP1 PUSH1 0x1 ADD PUSH2 0x504D JUMP JUMPDEST POP SWAP2 SWAP8 SWAP7 POP POP POP POP POP POP POP JUMP JUMPDEST DUP1 MLOAD PUSH1 0xFF AND DUP3 MSTORE PUSH1 0x0 PUSH2 0x100 PUSH1 0x20 DUP4 ADD MLOAD DUP2 PUSH1 0x20 DUP7 ADD MSTORE PUSH2 0x50A7 DUP3 DUP7 ADD DUP3 PUSH2 0x4F93 JUMP JUMPDEST SWAP2 POP POP PUSH1 0x40 DUP4 ADD MLOAD DUP5 DUP3 SUB PUSH1 0x40 DUP7 ADD MSTORE PUSH2 0x50C1 DUP3 DUP3 PUSH2 0x4F93 JUMP JUMPDEST SWAP2 POP POP PUSH1 0x60 DUP4 ADD MLOAD DUP5 DUP3 SUB PUSH1 0x60 DUP7 ADD MSTORE PUSH2 0x50DB DUP3 DUP3 PUSH2 0x4F93 JUMP JUMPDEST SWAP2 POP POP PUSH1 0x80 DUP4 ADD MLOAD DUP5 DUP3 SUB PUSH1 0x80 DUP7 ADD MSTORE PUSH2 0x50F5 DUP3 DUP3 PUSH2 0x4FBF JUMP JUMPDEST SWAP2 POP POP PUSH1 0xA0 DUP4 ADD MLOAD PUSH2 0x5112 PUSH1 0xA0 DUP7 ADD DUP3 PUSH1 0x1 PUSH1 0x1 PUSH1 0xA0 SHL SUB AND SWAP1 MSTORE JUMP JUMPDEST POP PUSH1 0xC0 DUP4 ADD MLOAD DUP5 DUP3 SUB PUSH1 0xC0 DUP7 ADD MSTORE PUSH2 0x512A DUP3 DUP3 PUSH2 0x502F JUMP JUMPDEST SWAP2 POP POP PUSH1 0xE0 DUP4 ADD MLOAD PUSH1 0xE0 DUP6 ADD MSTORE DUP1 SWAP2 POP POP SWAP3 SWAP2 POP POP JUMP JUMPDEST PUSH1 0x20 DUP2 MSTORE PUSH1 0x0 PUSH2 0x4B82 PUSH1 0x20 DUP4 ADD DUP5 PUSH2 0x5084 JUMP JUMPDEST PUSH1 0x0 DUP1 PUSH1 0x40 DUP4 DUP6 SUB SLT ISZERO PUSH2 0x5167 JUMPI PUSH1 0x0 DUP1 REVERT JUMPDEST POP POP DUP1 CALLDATALOAD SWAP3 PUSH1 0x20 SWAP1 SWAP2 ADD CALLDATALOAD SWAP2 POP JUMP JUMPDEST PUSH1 0x0 DUP3 PUSH1 0x1F DUP4 ADD SLT PUSH2 0x5187 JUMPI PUSH1 0x0 DUP1 REVERT JUMPDEST DUP2 CALLDATALOAD PUSH1 0x20 PUSH2 0x5197 PUSH2 0x4C22 DUP4 PUSH2 0x4B9F JUMP JUMPDEST DUP3 DUP2 MSTORE PUSH1 0x5 SWAP3 SWAP1 SWAP3 SHL DUP5 ADD DUP2 ADD SWAP2 DUP2 DUP2 ADD SWAP1 DUP7 DUP5 GT ISZERO PUSH2 0x51B6 JUMPI PUSH1 0x0 DUP1 REVERT JUMPDEST DUP3 DUP7 ADD JUMPDEST DUP5 DUP2 LT ISZERO PUSH2 0x4DB9 JUMPI DUP1 CALLDATALOAD PUSH8 0xFFFFFFFFFFFFFFFF DUP2 GT ISZERO PUSH2 0x51DA JUMPI PUSH1 0x0 DUP1 DUP2 REVERT JUMPDEST PUSH2 0x51E8 DUP10 DUP7 DUP4 DUP12 ADD ADD PUSH2 0x4B62 JUMP JUMPDEST DUP5 MSTORE POP SWAP2 DUP4 ADD SWAP2 DUP4 ADD PUSH2 0x51BA JUMP JUMPDEST DUP1 CALLDATALOAD PUSH1 0x1 PUSH1 0x1 PUSH1 0xA0 SHL SUB DUP2 AND DUP2 EQ PUSH2 0x4B9A JUMPI PUSH1 0x0 DUP1 REVERT JUMPDEST PUSH1 0x0 DUP3 PUSH1 0x1F DUP4 ADD SLT PUSH2 0x521E JUMPI PUSH1 0x0 DUP1 REVERT JUMPDEST DUP2 CALLDATALOAD PUSH1 0x20 PUSH2 0x522E PUSH2 0x4C22 DUP4 PUSH2 0x4B9F JUMP JUMPDEST DUP3 DUP2 MSTORE PUSH1 0x5 SWAP3 SWAP1 SWAP3 SHL DUP5 ADD DUP2 ADD SWAP2 DUP2 DUP2 ADD SWAP1 DUP7 DUP5 GT ISZERO PUSH2 0x524D JUMPI PUSH1 0x0 DUP1 REVERT JUMPDEST DUP3 DUP7 ADD JUMPDEST DUP5 DUP2 LT ISZERO PUSH2 0x4DB9 JUMPI DUP1 CALLDATALOAD PUSH8 0xFFFFFFFFFFFFFFFF DUP2 GT ISZERO PUSH2 0x5271 JUMPI PUSH1 0x0 DUP1 DUP2 REVERT JUMPDEST PUSH2 0x527F DUP10 DUP7 DUP4 DUP12 ADD ADD PUSH2 0x4DC4 JUMP JUMPDEST DUP5 MSTORE POP SWAP2 DUP4 ADD SWAP2 DUP4 ADD PUSH2 0x5251 JUMP JUMPDEST PUSH1 0x0 DUP1 PUSH1 0x0 PUSH1 0x60 DUP5 DUP7 SUB SLT ISZERO PUSH2 0x52A2 JUMPI PUSH1 0x0 DUP1 REVERT JUMPDEST DUP4 CALLDATALOAD PUSH8 0xFFFFFFFFFFFFFFFF DUP1 DUP3 GT ISZERO PUSH2 0x52BA JUMPI PUSH1 0x0 DUP1 REVERT JUMPDEST PUSH2 0x52C6 DUP8 DUP4 DUP9 ADD PUSH2 0x5176 JUMP JUMPDEST SWAP5 POP PUSH1 0x20 DUP7 ADD CALLDATALOAD SWAP2 POP DUP1 DUP3 GT ISZERO PUSH2 0x52DC JUMPI PUSH1 0x0 DUP1 REVERT JUMPDEST SWAP1 DUP6 ADD SWAP1 PUSH2 0x100 DUP3 DUP9 SUB SLT ISZERO PUSH2 0x52F1 JUMPI PUSH1 0x0 DUP1 REVERT JUMPDEST PUSH2 0x52F9 PUSH2 0x4AB5 JUMP JUMPDEST PUSH2 0x5302 DUP4 PUSH2 0x4B89 JUMP JUMPDEST DUP2 MSTORE PUSH1 0x20 DUP4 ADD CALLDATALOAD DUP3 DUP2 GT ISZERO PUSH2 0x5316 JUMPI PUSH1 0x0 DUP1 REVERT JUMPDEST PUSH2 0x5322 DUP10 DUP3 DUP7 ADD PUSH2 0x4B62 JUMP JUMPDEST PUSH1 0x20 DUP4 ADD MSTORE POP PUSH1 0x40 DUP4 ADD CALLDATALOAD DUP3 DUP2 GT ISZERO PUSH2 0x533A JUMPI PUSH1 0x0 DUP1 REVERT JUMPDEST PUSH2 0x5346 DUP10 DUP3 DUP7 ADD PUSH2 0x4B62 JUMP JUMPDEST PUSH1 0x40 DUP4 ADD MSTORE POP PUSH1 0x60 DUP4 ADD CALLDATALOAD DUP3 DUP2 GT ISZERO PUSH2 0x535E JUMPI PUSH1 0x0 DUP1 REVERT JUMPDEST PUSH2 0x536A DUP10 DUP3 DUP7 ADD PUSH2 0x4B62 JUMP JUMPDEST PUSH1 0x60 DUP4 ADD MSTORE POP PUSH1 0x80 DUP4 ADD CALLDATALOAD DUP3 DUP2 GT ISZERO PUSH2 0x5382 JUMPI PUSH1 0x0 DUP1 REVERT JUMPDEST PUSH2 0x538E DUP10 DUP3 DUP7 ADD PUSH2 0x4BC3 JUMP JUMPDEST PUSH1 0x80 DUP4 ADD MSTORE POP PUSH2 0x53A0 PUSH1 0xA0 DUP5 ADD PUSH2 0x51F6 JUMP JUMPDEST PUSH1 0xA0 DUP3 ADD MSTORE PUSH1 0xC0 DUP4 ADD CALLDATALOAD DUP3 DUP2 GT ISZERO PUSH2 0x53B7 JUMPI PUSH1 0x0 DUP1 REVERT JUMPDEST PUSH2 0x53C3 DUP10 DUP3 DUP7 ADD PUSH2 0x5176 JUMP JUMPDEST PUSH1 0xC0 DUP4 ADD MSTORE POP PUSH1 0xE0 DUP4 ADD CALLDATALOAD PUSH1 0xE0 DUP3 ADD MSTORE DUP1 SWAP5 POP POP PUSH1 0x40 DUP7 ADD CALLDATALOAD SWAP2 POP DUP1 DUP3 GT ISZERO PUSH2 0x53EB JUMPI PUSH1 0x0 DUP1 REVERT JUMPDEST POP PUSH2 0x53F8 DUP7 DUP3 DUP8 ADD PUSH2 0x520D JUMP JUMPDEST SWAP2 POP POP SWAP3 POP SWAP3 POP SWAP3 JUMP JUMPDEST PUSH1 0x0 DUP3 PUSH1 0x1F DUP4 ADD SLT PUSH2 0x5413 JUMPI PUSH1 0x0 DUP1 REVERT JUMPDEST DUP2 CALLDATALOAD PUSH1 0x20 PUSH2 0x5423 PUSH2 0x4C22 DUP4 PUSH2 0x4B9F JUMP JUMPDEST DUP3 DUP2 MSTORE PUSH1 0x5 SWAP3 SWAP1 SWAP3 SHL DUP5 ADD DUP2 ADD SWAP2 DUP2 DUP2 ADD SWAP1 DUP7 DUP5 GT ISZERO PUSH2 0x5442 JUMPI PUSH1 0x0 DUP1 REVERT JUMPDEST DUP3 DUP7 ADD JUMPDEST DUP5 DUP2 LT ISZERO PUSH2 0x4DB9 JUMPI PUSH2 0x5457 DUP2 PUSH2 0x51F6 JUMP JUMPDEST DUP4 MSTORE SWAP2 DUP4 ADD SWAP2 DUP4 ADD PUSH2 0x5446 JUMP JUMPDEST DUP1 CALLDATALOAD PUSH4 0xFFFFFFFF DUP2 AND DUP2 EQ PUSH2 0x4B9A JUMPI PUSH1 0x0 DUP1 REVERT JUMPDEST PUSH1 0x0 DUP1 PUSH1 0x0 PUSH1 0x60 DUP5 DUP7 SUB SLT ISZERO PUSH2 0x548D JUMPI PUSH1 0x0 DUP1 REVERT JUMPDEST DUP4 CALLDATALOAD PUSH8 0xFFFFFFFFFFFFFFFF DUP1 DUP3 GT ISZERO PUSH2 0x54A5 JUMPI PUSH1 0x0 DUP1 REVERT JUMPDEST PUSH2 0x54B1 DUP8 DUP4 DUP9 ADD PUSH2 0x4B62 JUMP JUMPDEST SWAP5 POP PUSH1 0x20 DUP7 ADD CALLDATALOAD SWAP2 POP DUP1 DUP3 GT ISZERO PUSH2 0x54C7 JUMPI PUSH1 0x0 DUP1 REVERT JUMPDEST POP PUSH2 0x54D4 DUP7 DUP3 DUP8 ADD PUSH2 0x5402 JUMP JUMPDEST SWAP3 POP POP PUSH2 0x54E3 PUSH1 0x40 DUP6 ADD PUSH2 0x5464 JUMP JUMPDEST SWAP1 POP SWAP3 POP SWAP3 POP SWAP3 JUMP JUMPDEST PUSH1 0x0 DUP2 MLOAD DUP1 DUP5 MSTORE PUSH1 0x20 DUP1 DUP6 ADD DUP1 DUP2 SWAP7 POP DUP4 PUSH1 0x5 SHL DUP2 ADD SWAP2 POP DUP3 DUP7 ADD PUSH1 0x0 JUMPDEST DUP6 DUP2 LT ISZERO PUSH2 0x5077 JUMPI DUP3 DUP5 SUB DUP10 MSTORE PUSH2 0x5522 DUP5 DUP4 MLOAD PUSH2 0x5084 JUMP JUMPDEST SWAP9 DUP6 ADD SWAP9 SWAP4 POP SWAP1 DUP5 ADD SWAP1 PUSH1 0x1 ADD PUSH2 0x550A JUMP JUMPDEST PUSH1 0x20 DUP2 MSTORE PUSH1 0x0 PUSH2 0x4B82 PUSH1 0x20 DUP4 ADD DUP5 PUSH2 0x54EC JUMP JUMPDEST PUSH1 0x0 PUSH1 0x20 DUP3 DUP5 SUB SLT ISZERO PUSH2 0x5559 JUMPI PUSH1 0x0 DUP1 REVERT JUMPDEST POP CALLDATALOAD SWAP2 SWAP1 POP JUMP JUMPDEST PUSH1 0x20 DUP2 MSTORE PUSH1 0x0 PUSH2 0x4B82 PUSH1 0x20 DUP4 ADD DUP5 PUSH2 0x4F93 JUMP JUMPDEST PUSH1 0x0 DUP1 PUSH1 0x40 DUP4 DUP6 SUB SLT ISZERO PUSH2 0x5586 JUMPI PUSH1 0x0 DUP1 REVERT JUMPDEST PUSH2 0x558F DUP4 PUSH2 0x51F6 JUMP JUMPDEST SWAP5 PUSH1 0x20 SWAP4 SWAP1 SWAP4 ADD CALLDATALOAD SWAP4 POP POP POP JUMP JUMPDEST PUSH1 0x0 DUP1 PUSH1 0x0 DUP1 PUSH1 0x0 PUSH1 0xA0 DUP7 DUP9 SUB SLT ISZERO PUSH2 0x55B5 JUMPI PUSH1 0x0 DUP1 REVERT JUMPDEST DUP6 CALLDATALOAD PUSH8 0xFFFFFFFFFFFFFFFF DUP1 DUP3 GT ISZERO PUSH2 0x55CD JUMPI PUSH1 0x0 DUP1 REVERT JUMPDEST PUSH2 0x55D9 DUP10 DUP4 DUP11 ADD PUSH2 0x4B62 JUMP JUMPDEST SWAP7 POP PUSH1 0x20 DUP9 ADD CALLDATALOAD SWAP2 POP DUP1 DUP3 GT ISZERO PUSH2 0x55EF JUMPI PUSH1 0x0 DUP1 REVERT JUMPDEST POP PUSH2 0x55FC DUP9 DUP3 DUP10 ADD PUSH2 0x4B62 JUMP JUMPDEST SWAP5 POP POP PUSH2 0x560B PUSH1 0x40 DUP8 ADD PUSH2 0x4B89 JUMP JUMPDEST SWAP3 POP PUSH2 0x5619 PUSH1 0x60 DUP8 ADD PUSH2 0x4B89 JUMP JUMPDEST SWAP2 POP PUSH2 0x5627 PUSH1 0x80 DUP8 ADD PUSH2 0x4B89 JUMP JUMPDEST SWAP1 POP SWAP3 SWAP6 POP SWAP3 SWAP6 SWAP1 SWAP4 POP JUMP JUMPDEST PUSH1 0x0 DUP2 MLOAD DUP1 DUP5 MSTORE PUSH1 0x20 DUP1 DUP6 ADD DUP1 DUP2 SWAP7 POP DUP4 PUSH1 0x5 SHL DUP2 ADD SWAP2 POP DUP3 DUP7 ADD PUSH1 0x0 JUMPDEST DUP6 DUP2 LT ISZERO PUSH2 0x5077 JUMPI DUP3 DUP5 SUB DUP10 MSTORE DUP2 MLOAD PUSH1 0xA0 DUP2 MLOAD DUP2 DUP8 MSTORE PUSH2 0x5673 DUP3 DUP9 ADD DUP3 PUSH2 0x4F93 JUMP JUMPDEST SWAP2 POP POP DUP7 DUP3 ADD MLOAD DUP7 DUP3 SUB DUP9 DUP9 ADD MSTORE PUSH2 0x568B DUP3 DUP3 PUSH2 0x4F93 JUMP JUMPDEST PUSH1 0x40 DUP5 DUP2 ADD MLOAD PUSH1 0xFF SWAP1 DUP2 AND SWAP2 DUP11 ADD SWAP2 SWAP1 SWAP2 MSTORE PUSH1 0x60 DUP1 DUP7 ADD MLOAD DUP3 AND SWAP1 DUP11 ADD MSTORE PUSH1 0x80 SWAP5 DUP6 ADD MLOAD AND SWAP4 SWAP1 SWAP8 ADD SWAP3 SWAP1 SWAP3 MSTORE POP POP SWAP8 DUP5 ADD SWAP8 SWAP1 DUP5 ADD SWAP1 PUSH1 0x1 ADD PUSH2 0x5651 JUMP JUMPDEST PUSH1 0x40 DUP2 MSTORE PUSH1 0x0 DUP4 MLOAD PUSH2 0x100 DUP1 PUSH1 0x40 DUP6 ADD MSTORE PUSH2 0x56E9 PUSH2 0x140 DUP6 ADD DUP4 PUSH2 0x4F93 JUMP JUMPDEST SWAP2 POP PUSH1 0x20 DUP7 ADD MLOAD PUSH2 0x56FF PUSH1 0x60 DUP7 ADD DUP3 PUSH1 0xFF AND SWAP1 MSTORE JUMP JUMPDEST POP PUSH1 0x40 DUP7 ADD MLOAD PUSH1 0xFF DUP2 AND PUSH1 0x80 DUP7 ADD MSTORE POP PUSH1 0x60 DUP7 ADD MLOAD PUSH1 0xFF DUP2 AND PUSH1 0xA0 DUP7 ADD MSTORE POP PUSH1 0x80 DUP7 ADD MLOAD PUSH1 0x3F NOT DUP1 DUP7 DUP6 SUB ADD PUSH1 0xC0 DUP8 ADD MSTORE PUSH2 0x573A DUP5 DUP4 PUSH2 0x4FBF JUMP JUMPDEST SWAP4 POP PUSH1 0xA0 DUP9 ADD MLOAD SWAP2 POP DUP1 DUP7 DUP6 SUB ADD PUSH1 0xE0 DUP8 ADD MSTORE PUSH2 0x5757 DUP5 DUP4 PUSH2 0x5633 JUMP JUMPDEST SWAP4 POP PUSH1 0xC0 DUP9 ADD MLOAD SWAP2 POP DUP1 DUP7 DUP6 SUB ADD DUP4 DUP8 ADD MSTORE POP PUSH2 0x5774 DUP4 DUP3 PUSH2 0x5633 JUMP JUMPDEST SWAP3 POP POP POP PUSH1 0xE0 DUP6 ADD MLOAD PUSH2 0x578D PUSH2 0x120 DUP6 ADD DUP3 PUSH1 0xFF AND SWAP1 MSTORE JUMP JUMPDEST POP PUSH1 0xFF DUP5 AND PUSH1 0x20 DUP5 ADD MSTORE SWAP1 POP PUSH2 0x4B82 JUMP JUMPDEST PUSH1 0x0 DUP1 PUSH1 0x0 DUP1 PUSH1 0x80 DUP6 DUP8 SUB SLT ISZERO PUSH2 0x57B4 JUMPI PUSH1 0x0 DUP1 REVERT JUMPDEST PUSH2 0x57BD DUP6 PUSH2 0x5464 JUMP JUMPDEST SWAP4 POP PUSH1 0x20 DUP6 ADD CALLDATALOAD PUSH8 0xFFFFFFFFFFFFFFFF DUP1 DUP3 GT ISZERO PUSH2 0x57DA JUMPI PUSH1 0x0 DUP1 REVERT JUMPDEST PUSH2 0x57E6 DUP9 DUP4 DUP10 ADD PUSH2 0x4B62 JUMP JUMPDEST SWAP5 POP PUSH1 0x40 DUP8 ADD CALLDATALOAD SWAP2 POP DUP1 DUP3 GT ISZERO PUSH2 0x57FC JUMPI PUSH1 0x0 DUP1 REVERT JUMPDEST PUSH2 0x5808 DUP9 DUP4 DUP10 ADD PUSH2 0x4B62 JUMP JUMPDEST SWAP4 POP PUSH1 0x60 DUP8 ADD CALLDATALOAD SWAP2 POP DUP1 DUP3 GT ISZERO PUSH2 0x581E JUMPI PUSH1 0x0 DUP1 REVERT JUMPDEST POP PUSH2 0x582B DUP8 DUP3 DUP9 ADD PUSH2 0x4BC3 JUMP JUMPDEST SWAP2 POP POP SWAP3 SWAP6 SWAP2 SWAP5 POP SWAP3 POP JUMP JUMPDEST PUSH1 0xFF DUP9 AND DUP2 MSTORE PUSH1 0xE0 PUSH1 0x20 DUP3 ADD MSTORE PUSH1 0x0 PUSH2 0x5853 PUSH1 0xE0 DUP4 ADD DUP10 PUSH2 0x4F93 JUMP JUMPDEST DUP3 DUP2 SUB PUSH1 0x40 DUP5 ADD MSTORE PUSH2 0x5865 DUP2 DUP10 PUSH2 0x4F93 JUMP JUMPDEST SWAP1 POP DUP3 DUP2 SUB PUSH1 0x60 DUP5 ADD MSTORE PUSH2 0x5879 DUP2 DUP9 PUSH2 0x4F93 JUMP JUMPDEST SWAP1 POP DUP3 DUP2 SUB PUSH1 0x80 DUP5 ADD MSTORE PUSH2 0x588D DUP2 DUP8 PUSH2 0x4FBF JUMP JUMPDEST PUSH1 0x1 PUSH1 0x1 PUSH1 0xA0 SHL SUB SWAP6 SWAP1 SWAP6 AND PUSH1 0xA0 DUP5 ADD MSTORE POP POP PUSH1 0xC0 ADD MSTORE SWAP6 SWAP5 POP POP POP POP POP JUMP JUMPDEST PUSH1 0x0 DUP1 PUSH1 0x40 DUP4 DUP6 SUB SLT ISZERO PUSH2 0x58C0 JUMPI PUSH1 0x0 DUP1 REVERT JUMPDEST DUP3 CALLDATALOAD PUSH8 0xFFFFFFFFFFFFFFFF DUP1 DUP3 GT ISZERO PUSH2 0x58D8 JUMPI PUSH1 0x0 DUP1 REVERT JUMPDEST PUSH2 0x58E4 DUP7 DUP4 DUP8 ADD PUSH2 0x4B62 JUMP JUMPDEST SWAP4 POP PUSH1 0x20 DUP6 ADD CALLDATALOAD SWAP2 POP DUP1 DUP3 GT ISZERO PUSH2 0x58FA JUMPI PUSH1 0x0 DUP1 REVERT JUMPDEST POP PUSH2 0x4F1C DUP6 DUP3 DUP7 ADD PUSH2 0x4B62 JUMP JUMPDEST PUSH1 0x0 DUP1 PUSH1 0x0 PUSH1 0x60 DUP5 DUP7 SUB SLT ISZERO PUSH2 0x591C JUMPI PUSH1 0x0 DUP1 REVERT JUMPDEST DUP4 CALLDATALOAD PUSH8 0xFFFFFFFFFFFFFFFF DUP2 GT ISZERO PUSH2 0x5933 JUMPI PUSH1 0x0 DUP1 REVERT JUMPDEST PUSH2 0x593F DUP7 DUP3 DUP8 ADD PUSH2 0x4B62 JUMP JUMPDEST SWAP4 POP POP PUSH2 0x594E PUSH1 0x20 DUP6 ADD PUSH2 0x51F6 JUMP JUMPDEST SWAP2 POP PUSH1 0x40 DUP5 ADD CALLDATALOAD SWAP1 POP SWAP3 POP SWAP3 POP SWAP3 JUMP JUMPDEST DUP8 DUP2 MSTORE PUSH1 0xE0 PUSH1 0x20 DUP3 ADD MSTORE PUSH1 0x0 PUSH2 0x5977 PUSH1 0xE0 DUP4 ADD DUP10 PUSH2 0x4F93 JUMP JUMPDEST PUSH1 0xFF DUP9 AND PUSH1 0x40 DUP5 ADD MSTORE PUSH1 0xFF DUP8 AND PUSH1 0x60 DUP5 ADD MSTORE PUSH1 0xFF DUP7 AND PUSH1 0x80 DUP5 ADD MSTORE DUP3 DUP2 SUB PUSH1 0xA0 DUP5 ADD MSTORE PUSH2 0x59A4 DUP2 DUP7 PUSH2 0x4FBF JUMP JUMPDEST SWAP2 POP POP PUSH1 0xFF DUP4 AND PUSH1 0xC0 DUP4 ADD MSTORE SWAP9 SWAP8 POP POP POP POP POP POP POP POP JUMP JUMPDEST PUSH1 0x0 DUP1 PUSH1 0x40 DUP4 DUP6 SUB SLT ISZERO PUSH2 0x59CF JUMPI PUSH1 0x0 DUP1 REVERT JUMPDEST DUP3 CALLDATALOAD PUSH8 0xFFFFFFFFFFFFFFFF DUP1 DUP3 GT ISZERO PUSH2 0x59E7 JUMPI PUSH1 0x0 DUP1 REVERT JUMPDEST PUSH2 0x59F3 DUP7 DUP4 DUP8 ADD PUSH2 0x5176 JUMP JUMPDEST SWAP4 POP PUSH1 0x20 DUP6 ADD CALLDATALOAD SWAP2 POP DUP1 DUP3 GT ISZERO PUSH2 0x5A09 JUMPI PUSH1 0x0 DUP1 REVERT JUMPDEST POP PUSH2 0x4F1C DUP6 DUP3 DUP7 ADD PUSH2 0x520D JUMP JUMPDEST PUSH1 0x0 PUSH1 0x20 DUP3 DUP5 SUB SLT ISZERO PUSH2 0x5A28 JUMPI PUSH1 0x0 DUP1 REVERT JUMPDEST PUSH2 0x4B82 DUP3 PUSH2 0x51F6 JUMP JUMPDEST PUSH1 0x0 DUP1 PUSH1 0x0 PUSH1 0x60 DUP5 DUP7 SUB SLT ISZERO PUSH2 0x5A46 JUMPI PUSH1 0x0 DUP1 REVERT JUMPDEST DUP4 CALLDATALOAD PUSH8 0xFFFFFFFFFFFFFFFF DUP1 DUP3 GT ISZERO PUSH2 0x5A5E JUMPI PUSH1 0x0 DUP1 REVERT JUMPDEST PUSH2 0x54B1 DUP8 DUP4 DUP9 ADD PUSH2 0x5176 JUMP JUMPDEST PUSH1 0x0 PUSH1 0x20 DUP1 DUP4 ADD DUP2 DUP5 MSTORE DUP1 DUP6 MLOAD DUP1 DUP4 MSTORE PUSH1 0x40 DUP7 ADD SWAP2 POP PUSH1 0x40 DUP2 PUSH1 0x5 SHL DUP8 ADD ADD SWAP3 POP DUP4 DUP8 ADD PUSH1 0x0 JUMPDEST DUP3 DUP2 LT ISZERO PUSH2 0x5ABF JUMPI PUSH1 0x3F NOT DUP9 DUP7 SUB ADD DUP5 MSTORE PUSH2 0x5AAD DUP6 DUP4 MLOAD PUSH2 0x54EC JUMP JUMPDEST SWAP5 POP SWAP3 DUP6 ADD SWAP3 SWAP1 DUP6 ADD SWAP1 PUSH1 0x1 ADD PUSH2 0x5A91 JUMP JUMPDEST POP SWAP3 SWAP8 SWAP7 POP POP POP POP POP POP POP JUMP JUMPDEST PUSH1 0x0 DUP3 MLOAD PUSH2 0x5ADE DUP2 DUP5 PUSH1 0x20 DUP8 ADD PUSH2 0x4F63 JUMP JUMPDEST SWAP2 SWAP1 SWAP2 ADD SWAP3 SWAP2 POP POP JUMP JUMPDEST PUSH4 0x4E487B71 PUSH1 0xE0 SHL PUSH1 0x0 MSTORE PUSH1 0x32 PUSH1 0x4 MSTORE PUSH1 0x24 PUSH1 0x0 REVERT JUMPDEST PUSH1 0x1 DUP2 DUP2 SHR SWAP1 DUP3 AND DUP1 PUSH2 0x5B12 JUMPI PUSH1 0x7F DUP3 AND SWAP2 POP JUMPDEST PUSH1 0x20 DUP3 LT DUP2 SUB PUSH2 0x5B32 JUMPI PUSH4 0x4E487B71 PUSH1 0xE0 SHL PUSH1 0x0 MSTORE PUSH1 0x22 PUSH1 0x4 MSTORE PUSH1 0x24 PUSH1 0x0 REVERT JUMPDEST POP SWAP2 SWAP1 POP JUMP JUMPDEST PUSH4 0x4E487B71 PUSH1 0xE0 SHL PUSH1 0x0 MSTORE PUSH1 0x11 PUSH1 0x4 MSTORE PUSH1 0x24 PUSH1 0x0 REVERT JUMPDEST PUSH1 0x0 DUP3 DUP3 LT ISZERO PUSH2 0x5B60 JUMPI PUSH2 0x5B60 PUSH2 0x5B38 JUMP JUMPDEST POP SUB SWAP1 JUMP JUMPDEST PUSH1 0x0 DUP4 MLOAD PUSH2 0x5B77 DUP2 DUP5 PUSH1 0x20 DUP9 ADD PUSH2 0x4F63 JUMP JUMPDEST PUSH1 0x60 SWAP4 SWAP1 SWAP4 SHL PUSH32 0xFFFFFFFFFFFFFFFFFFFFFFFFFFFFFFFFFFFFFFFF000000000000000000000000 AND SWAP2 SWAP1 SWAP3 ADD SWAP1 DUP2 MSTORE PUSH1 0x14 ADD SWAP3 SWAP2 POP POP JUMP JUMPDEST PUSH1 0x0 PUSH1 0x1 DUP3 ADD PUSH2 0x5BC1 JUMPI PUSH2 0x5BC1 PUSH2 0x5B38 JUMP JUMPDEST POP PUSH1 0x1 ADD SWAP1 JUMP JUMPDEST PUSH1 0x60 DUP2 MSTORE PUSH1 0x0 PUSH2 0x5BDB PUSH1 0x60 DUP4 ADD DUP7 PUSH2 0x502F JUMP JUMPDEST SWAP1 POP PUSH1 0x1 PUSH1 0x1 PUSH1 0xA0 SHL SUB DUP5 AND PUSH1 0x20 DUP4 ADD MSTORE PUSH4 0xFFFFFFFF DUP4 AND PUSH1 0x40 DUP4 ADD MSTORE SWAP5 SWAP4 POP POP POP POP JUMP JUMPDEST PUSH1 0x0 DUP7 MLOAD PUSH2 0x5C12 DUP2 DUP5 PUSH1 0x20 DUP12 ADD PUSH2 0x4F63 JUMP JUMPDEST DUP7 MLOAD SWAP1 DUP4 ADD SWAP1 PUSH2 0x5C26 DUP2 DUP4 PUSH1 0x20 DUP12 ADD PUSH2 0x4F63 JUMP JUMPDEST PUSH32 0xFF00000000000000000000000000000000000000000000000000000000000000 PUSH1 0xF8 SWAP8 DUP9 SHL DUP2 AND SWAP2 SWAP1 SWAP3 ADD SWAP1 DUP2 MSTORE SWAP5 DUP7 SHL DUP2 AND PUSH1 0x1 DUP7 ADD MSTORE SWAP3 SWAP1 SWAP5 SHL SWAP1 SWAP2 AND PUSH1 0x2 DUP4 ADD MSTORE POP PUSH1 0x3 ADD SWAP4 SWAP3 POP POP POP JUMP JUMPDEST PUSH4 0x4E487B71 PUSH1 0xE0 SHL PUSH1 0x0 MSTORE PUSH1 0x31 PUSH1 0x4 MSTORE PUSH1 0x24 PUSH1 0x0 REVERT JUMPDEST PUSH1 0x0 DUP4 MLOAD PUSH2 0x5C9E DUP2 DUP5 PUSH1 0x20 DUP9 ADD PUSH2 0x4F63 JUMP JUMPDEST DUP4 MLOAD SWAP1 DUP4 ADD SWAP1 PUSH2 0x5CB2 DUP2 DUP4 PUSH1 0x20 DUP9 ADD PUSH2 0x4F63 JUMP JUMPDEST ADD SWAP5 SWAP4 POP POP POP POP JUMP JUMPDEST PUSH1 0x0 DUP1 DUP4 SLOAD DUP2 PUSH1 0x1 DUP3 DUP2 SHR SWAP2 POP DUP1 DUP4 AND DUP1 PUSH2 0x5CD7 JUMPI PUSH1 0x7F DUP4 AND SWAP3 POP JUMPDEST PUSH1 0x20 DUP1 DUP5 LT DUP3 SUB PUSH2 0x5CF6 JUMPI PUSH4 0x4E487B71 PUSH1 0xE0 SHL DUP7 MSTORE PUSH1 0x22 PUSH1 0x4 MSTORE PUSH1 0x24 DUP7 REVERT JUMPDEST DUP2 DUP1 ISZERO PUSH2 0x5D0A JUMPI PUSH1 0x1 DUP2 EQ PUSH2 0x5D1B JUMPI PUSH2 0x5D48 JUMP JUMPDEST PUSH1 0xFF NOT DUP7 AND DUP10 MSTORE DUP5 DUP10 ADD SWAP7 POP PUSH2 0x5D48 JUMP JUMPDEST PUSH1 0x0 DUP11 DUP2 MSTORE PUSH1 0x20 SWAP1 KECCAK256 PUSH1 0x0 JUMPDEST DUP7 DUP2 LT ISZERO PUSH2 0x5D40 JUMPI DUP2 SLOAD DUP12 DUP3 ADD MSTORE SWAP1 DUP6 ADD SWAP1 DUP4 ADD PUSH2 0x5D27 JUMP JUMPDEST POP POP DUP5 DUP10 ADD SWAP7 POP JUMPDEST POP SWAP5 SWAP9 SWAP8 POP POP POP POP POP POP POP POP JUMP INVALID LOG2 PUSH5 0x6970667358 0x22 SLT KECCAK256 0xE6 PUSH19 0xB83926965F269DAC882098B5B018907F789955 PUSH16 0x8C9A42A526249E399BE164736F6C6343 STOP ADDMOD 0xD STOP CALLER "
        },
        "methodIdentifiers": {
          "addContextId(string,string)": "df090e4c",
          "addModuleInfo(string[],(uint8,string,string,string,(bytes32,bytes[]),address,string[],uint256),(string,uint8,uint8,uint8,(bytes32,bytes[]),(string,string,uint8,uint8,uint8)[],(string,string,uint8,uint8,uint8)[],uint8)[])": "4a3ef7a8",
          "addModuleVersion(string,(string,uint8,uint8,uint8,(bytes32,bytes[]),(string,string,uint8,uint8,uint8)[],(string,string,uint8,uint8,uint8)[],uint8))": "0fc86036",
          "addModuleVersionBatch(string[],(string,uint8,uint8,uint8,(bytes32,bytes[]),(string,string,uint8,uint8,uint8)[],(string,string,uint8,uint8,uint8)[],uint8)[])": "ded5a7b9",
          "editModuleInfo(uint32,string,string,(bytes32,bytes[]))": "7ad67966",
          "getModuleInfo(string,address[],uint32)": "4eda6005",
          "getModuleInfoBatch(string[],address[],uint32)": "f96c7aab",
          "getModuleInfoByName(string)": "2ac43f9d",
          "getModuleInfoByOwner(address)": "e88324d0",
          "getVersionInfo(string,string,uint8,uint8,uint8)": "55f0a672",
          "getVersionNumbers(string,string)": "b394c178",
          "modsByContextType(bytes32,uint256)": "3765e118",
          "modsByOwner(address,uint256)": "55c8045b",
          "moduleIdxs(bytes32)": "c907ef80",
          "modules(uint256)": "81b2248a",
          "removeContextId(string,string)": "979e119a",
          "transferOwnership(string,address,uint256)": "a24aadf4",
          "versionNumbers(bytes32)": "5146bd64",
          "versions(bytes32)": "c7cec7f8"
        }
      }
    }
  }
}