{
  "_format": "hh-sol-artifact-1",
  "contractName": "DappletRegistry",
  "sourceName": "contracts/DappletRegistry.sol",
  "abi": [
    {
      "inputs": [],
      "stateMutability": "nonpayable",
      "type": "constructor"
    },
    {
      "anonymous": false,
      "inputs": [
        {
          "indexed": false,
          "internalType": "string[]",
          "name": "contextIds",
          "type": "string[]"
        },
        {
          "indexed": false,
          "internalType": "address",
          "name": "owner",
          "type": "address"
        },
        {
          "indexed": false,
          "internalType": "uint32",
          "name": "moduleIndex",
          "type": "uint32"
        }
      ],
      "name": "ModuleInfoAdded",
      "type": "event"
    },
    {
      "inputs": [
        {
          "internalType": "string",
          "name": "mod_name",
          "type": "string"
        },
        {
          "internalType": "string",
          "name": "contextId",
          "type": "string"
        }
      ],
      "name": "addContextId",
      "outputs": [],
      "stateMutability": "nonpayable",
      "type": "function"
    },
    {
      "inputs": [
        {
          "internalType": "string[]",
          "name": "contextIds",
          "type": "string[]"
        },
        {
          "components": [
            {
              "internalType": "uint8",
              "name": "moduleType",
              "type": "uint8"
            },
            {
              "internalType": "string",
              "name": "name",
              "type": "string"
            },
            {
              "internalType": "string",
              "name": "title",
              "type": "string"
            },
            {
              "internalType": "string",
              "name": "description",
              "type": "string"
            },
            {
              "components": [
                {
                  "internalType": "bytes32",
                  "name": "hash",
                  "type": "bytes32"
                },
                {
                  "internalType": "bytes[]",
                  "name": "uris",
                  "type": "bytes[]"
                }
              ],
              "internalType": "struct DappletRegistry.StorageRef",
              "name": "icon",
              "type": "tuple"
            },
            {
              "internalType": "address",
              "name": "owner",
              "type": "address"
            },
            {
              "internalType": "string[]",
              "name": "interfaces",
              "type": "string[]"
            },
            {
              "internalType": "uint256",
              "name": "flags",
              "type": "uint256"
            }
          ],
          "internalType": "struct DappletRegistry.ModuleInfo",
          "name": "mInfo",
          "type": "tuple"
        },
        {
          "components": [
            {
              "internalType": "string",
              "name": "branch",
              "type": "string"
            },
            {
              "internalType": "uint8",
              "name": "major",
              "type": "uint8"
            },
            {
              "internalType": "uint8",
              "name": "minor",
              "type": "uint8"
            },
            {
              "internalType": "uint8",
              "name": "patch",
              "type": "uint8"
            },
            {
              "components": [
                {
                  "internalType": "bytes32",
                  "name": "hash",
                  "type": "bytes32"
                },
                {
                  "internalType": "bytes[]",
                  "name": "uris",
                  "type": "bytes[]"
                }
              ],
              "internalType": "struct DappletRegistry.StorageRef",
              "name": "binary",
              "type": "tuple"
            },
            {
              "components": [
                {
                  "internalType": "string",
                  "name": "name",
                  "type": "string"
                },
                {
                  "internalType": "string",
                  "name": "branch",
                  "type": "string"
                },
                {
                  "internalType": "uint8",
                  "name": "major",
                  "type": "uint8"
                },
                {
                  "internalType": "uint8",
                  "name": "minor",
                  "type": "uint8"
                },
                {
                  "internalType": "uint8",
                  "name": "patch",
                  "type": "uint8"
                }
              ],
              "internalType": "struct DappletRegistry.DependencyDto[]",
              "name": "dependencies",
              "type": "tuple[]"
            },
            {
              "components": [
                {
                  "internalType": "string",
                  "name": "name",
                  "type": "string"
                },
                {
                  "internalType": "string",
                  "name": "branch",
                  "type": "string"
                },
                {
                  "internalType": "uint8",
                  "name": "major",
                  "type": "uint8"
                },
                {
                  "internalType": "uint8",
                  "name": "minor",
                  "type": "uint8"
                },
                {
                  "internalType": "uint8",
                  "name": "patch",
                  "type": "uint8"
                }
              ],
              "internalType": "struct DappletRegistry.DependencyDto[]",
              "name": "interfaces",
              "type": "tuple[]"
            },
            {
              "internalType": "uint8",
              "name": "flags",
              "type": "uint8"
            }
          ],
          "internalType": "struct DappletRegistry.VersionInfoDto[]",
          "name": "vInfos",
          "type": "tuple[]"
        }
      ],
      "name": "addModuleInfo",
      "outputs": [],
      "stateMutability": "nonpayable",
      "type": "function"
    },
    {
      "inputs": [
        {
          "internalType": "string",
          "name": "mod_name",
          "type": "string"
        },
        {
          "components": [
            {
              "internalType": "string",
              "name": "branch",
              "type": "string"
            },
            {
              "internalType": "uint8",
              "name": "major",
              "type": "uint8"
            },
            {
              "internalType": "uint8",
              "name": "minor",
              "type": "uint8"
            },
            {
              "internalType": "uint8",
              "name": "patch",
              "type": "uint8"
            },
            {
              "components": [
                {
                  "internalType": "bytes32",
                  "name": "hash",
                  "type": "bytes32"
                },
                {
                  "internalType": "bytes[]",
                  "name": "uris",
                  "type": "bytes[]"
                }
              ],
              "internalType": "struct DappletRegistry.StorageRef",
              "name": "binary",
              "type": "tuple"
            },
            {
              "components": [
                {
                  "internalType": "string",
                  "name": "name",
                  "type": "string"
                },
                {
                  "internalType": "string",
                  "name": "branch",
                  "type": "string"
                },
                {
                  "internalType": "uint8",
                  "name": "major",
                  "type": "uint8"
                },
                {
                  "internalType": "uint8",
                  "name": "minor",
                  "type": "uint8"
                },
                {
                  "internalType": "uint8",
                  "name": "patch",
                  "type": "uint8"
                }
              ],
              "internalType": "struct DappletRegistry.DependencyDto[]",
              "name": "dependencies",
              "type": "tuple[]"
            },
            {
              "components": [
                {
                  "internalType": "string",
                  "name": "name",
                  "type": "string"
                },
                {
                  "internalType": "string",
                  "name": "branch",
                  "type": "string"
                },
                {
                  "internalType": "uint8",
                  "name": "major",
                  "type": "uint8"
                },
                {
                  "internalType": "uint8",
                  "name": "minor",
                  "type": "uint8"
                },
                {
                  "internalType": "uint8",
                  "name": "patch",
                  "type": "uint8"
                }
              ],
              "internalType": "struct DappletRegistry.DependencyDto[]",
              "name": "interfaces",
              "type": "tuple[]"
            },
            {
              "internalType": "uint8",
              "name": "flags",
              "type": "uint8"
            }
          ],
          "internalType": "struct DappletRegistry.VersionInfoDto",
          "name": "vInfo",
          "type": "tuple"
        }
      ],
      "name": "addModuleVersion",
      "outputs": [],
      "stateMutability": "nonpayable",
      "type": "function"
    },
    {
      "inputs": [
        {
          "internalType": "string[]",
          "name": "mod_name",
          "type": "string[]"
        },
        {
          "components": [
            {
              "internalType": "string",
              "name": "branch",
              "type": "string"
            },
            {
              "internalType": "uint8",
              "name": "major",
              "type": "uint8"
            },
            {
              "internalType": "uint8",
              "name": "minor",
              "type": "uint8"
            },
            {
              "internalType": "uint8",
              "name": "patch",
              "type": "uint8"
            },
            {
              "components": [
                {
                  "internalType": "bytes32",
                  "name": "hash",
                  "type": "bytes32"
                },
                {
                  "internalType": "bytes[]",
                  "name": "uris",
                  "type": "bytes[]"
                }
              ],
              "internalType": "struct DappletRegistry.StorageRef",
              "name": "binary",
              "type": "tuple"
            },
            {
              "components": [
                {
                  "internalType": "string",
                  "name": "name",
                  "type": "string"
                },
                {
                  "internalType": "string",
                  "name": "branch",
                  "type": "string"
                },
                {
                  "internalType": "uint8",
                  "name": "major",
                  "type": "uint8"
                },
                {
                  "internalType": "uint8",
                  "name": "minor",
                  "type": "uint8"
                },
                {
                  "internalType": "uint8",
                  "name": "patch",
                  "type": "uint8"
                }
              ],
              "internalType": "struct DappletRegistry.DependencyDto[]",
              "name": "dependencies",
              "type": "tuple[]"
            },
            {
              "components": [
                {
                  "internalType": "string",
                  "name": "name",
                  "type": "string"
                },
                {
                  "internalType": "string",
                  "name": "branch",
                  "type": "string"
                },
                {
                  "internalType": "uint8",
                  "name": "major",
                  "type": "uint8"
                },
                {
                  "internalType": "uint8",
                  "name": "minor",
                  "type": "uint8"
                },
                {
                  "internalType": "uint8",
                  "name": "patch",
                  "type": "uint8"
                }
              ],
              "internalType": "struct DappletRegistry.DependencyDto[]",
              "name": "interfaces",
              "type": "tuple[]"
            },
            {
              "internalType": "uint8",
              "name": "flags",
              "type": "uint8"
            }
          ],
          "internalType": "struct DappletRegistry.VersionInfoDto[]",
          "name": "vInfo",
          "type": "tuple[]"
        }
      ],
      "name": "addModuleVersionBatch",
      "outputs": [],
      "stateMutability": "nonpayable",
      "type": "function"
    },
    {
      "inputs": [
        {
          "internalType": "uint32",
          "name": "moduleIdx",
          "type": "uint32"
        },
        {
          "internalType": "string",
          "name": "title",
          "type": "string"
        },
        {
          "internalType": "string",
          "name": "description",
          "type": "string"
        },
        {
          "components": [
            {
              "internalType": "bytes32",
              "name": "hash",
              "type": "bytes32"
            },
            {
              "internalType": "bytes[]",
              "name": "uris",
              "type": "bytes[]"
            }
          ],
          "internalType": "struct DappletRegistry.StorageRef",
          "name": "icon",
          "type": "tuple"
        }
      ],
      "name": "editModuleInfo",
      "outputs": [],
      "stateMutability": "nonpayable",
      "type": "function"
    },
    {
      "inputs": [
        {
          "internalType": "string",
          "name": "ctxId",
          "type": "string"
        },
        {
          "internalType": "address[]",
          "name": "users",
          "type": "address[]"
        },
        {
          "internalType": "uint32",
          "name": "maxBufLen",
          "type": "uint32"
        }
      ],
      "name": "getModuleInfo",
      "outputs": [
        {
          "components": [
            {
              "internalType": "uint8",
              "name": "moduleType",
              "type": "uint8"
            },
            {
              "internalType": "string",
              "name": "name",
              "type": "string"
            },
            {
              "internalType": "string",
              "name": "title",
              "type": "string"
            },
            {
              "internalType": "string",
              "name": "description",
              "type": "string"
            },
            {
              "components": [
                {
                  "internalType": "bytes32",
                  "name": "hash",
                  "type": "bytes32"
                },
                {
                  "internalType": "bytes[]",
                  "name": "uris",
                  "type": "bytes[]"
                }
              ],
              "internalType": "struct DappletRegistry.StorageRef",
              "name": "icon",
              "type": "tuple"
            },
            {
              "internalType": "address",
              "name": "owner",
              "type": "address"
            },
            {
              "internalType": "string[]",
              "name": "interfaces",
              "type": "string[]"
            },
            {
              "internalType": "uint256",
              "name": "flags",
              "type": "uint256"
            }
          ],
          "internalType": "struct DappletRegistry.ModuleInfo[]",
          "name": "mod_info",
          "type": "tuple[]"
        }
      ],
      "stateMutability": "view",
      "type": "function"
    },
    {
      "inputs": [
        {
          "internalType": "string[]",
          "name": "ctxIds",
          "type": "string[]"
        },
        {
          "internalType": "address[]",
          "name": "users",
          "type": "address[]"
        },
        {
          "internalType": "uint32",
          "name": "maxBufLen",
          "type": "uint32"
        }
      ],
      "name": "getModuleInfoBatch",
      "outputs": [
        {
          "components": [
            {
              "internalType": "uint8",
              "name": "moduleType",
              "type": "uint8"
            },
            {
              "internalType": "string",
              "name": "name",
              "type": "string"
            },
            {
              "internalType": "string",
              "name": "title",
              "type": "string"
            },
            {
              "internalType": "string",
              "name": "description",
              "type": "string"
            },
            {
              "components": [
                {
                  "internalType": "bytes32",
                  "name": "hash",
                  "type": "bytes32"
                },
                {
                  "internalType": "bytes[]",
                  "name": "uris",
                  "type": "bytes[]"
                }
              ],
              "internalType": "struct DappletRegistry.StorageRef",
              "name": "icon",
              "type": "tuple"
            },
            {
              "internalType": "address",
              "name": "owner",
              "type": "address"
            },
            {
              "internalType": "string[]",
              "name": "interfaces",
              "type": "string[]"
            },
            {
              "internalType": "uint256",
              "name": "flags",
              "type": "uint256"
            }
          ],
          "internalType": "struct DappletRegistry.ModuleInfo[][]",
          "name": "mod_info",
          "type": "tuple[][]"
        }
      ],
      "stateMutability": "view",
      "type": "function"
    },
    {
      "inputs": [
        {
          "internalType": "string",
          "name": "mod_name",
          "type": "string"
        }
      ],
      "name": "getModuleInfoByName",
      "outputs": [
        {
          "components": [
            {
              "internalType": "uint8",
              "name": "moduleType",
              "type": "uint8"
            },
            {
              "internalType": "string",
              "name": "name",
              "type": "string"
            },
            {
              "internalType": "string",
              "name": "title",
              "type": "string"
            },
            {
              "internalType": "string",
              "name": "description",
              "type": "string"
            },
            {
              "components": [
                {
                  "internalType": "bytes32",
                  "name": "hash",
                  "type": "bytes32"
                },
                {
                  "internalType": "bytes[]",
                  "name": "uris",
                  "type": "bytes[]"
                }
              ],
              "internalType": "struct DappletRegistry.StorageRef",
              "name": "icon",
              "type": "tuple"
            },
            {
              "internalType": "address",
              "name": "owner",
              "type": "address"
            },
            {
              "internalType": "string[]",
              "name": "interfaces",
              "type": "string[]"
            },
            {
              "internalType": "uint256",
              "name": "flags",
              "type": "uint256"
            }
          ],
          "internalType": "struct DappletRegistry.ModuleInfo",
          "name": "",
          "type": "tuple"
        }
      ],
      "stateMutability": "view",
      "type": "function"
    },
    {
      "inputs": [
        {
          "internalType": "address",
          "name": "userId",
          "type": "address"
        }
      ],
      "name": "getModuleInfoByOwner",
      "outputs": [
        {
          "components": [
            {
              "internalType": "uint8",
              "name": "moduleType",
              "type": "uint8"
            },
            {
              "internalType": "string",
              "name": "name",
              "type": "string"
            },
            {
              "internalType": "string",
              "name": "title",
              "type": "string"
            },
            {
              "internalType": "string",
              "name": "description",
              "type": "string"
            },
            {
              "components": [
                {
                  "internalType": "bytes32",
                  "name": "hash",
                  "type": "bytes32"
                },
                {
                  "internalType": "bytes[]",
                  "name": "uris",
                  "type": "bytes[]"
                }
              ],
              "internalType": "struct DappletRegistry.StorageRef",
              "name": "icon",
              "type": "tuple"
            },
            {
              "internalType": "address",
              "name": "owner",
              "type": "address"
            },
            {
              "internalType": "string[]",
              "name": "interfaces",
              "type": "string[]"
            },
            {
              "internalType": "uint256",
              "name": "flags",
              "type": "uint256"
            }
          ],
          "internalType": "struct DappletRegistry.ModuleInfo[]",
          "name": "mods",
          "type": "tuple[]"
        }
      ],
      "stateMutability": "view",
      "type": "function"
    },
    {
      "inputs": [
        {
          "internalType": "string",
          "name": "name",
          "type": "string"
        },
        {
          "internalType": "string",
          "name": "branch",
          "type": "string"
        },
        {
          "internalType": "uint8",
          "name": "major",
          "type": "uint8"
        },
        {
          "internalType": "uint8",
          "name": "minor",
          "type": "uint8"
        },
        {
          "internalType": "uint8",
          "name": "patch",
          "type": "uint8"
        }
      ],
      "name": "getVersionInfo",
      "outputs": [
        {
          "components": [
            {
              "internalType": "string",
              "name": "branch",
              "type": "string"
            },
            {
              "internalType": "uint8",
              "name": "major",
              "type": "uint8"
            },
            {
              "internalType": "uint8",
              "name": "minor",
              "type": "uint8"
            },
            {
              "internalType": "uint8",
              "name": "patch",
              "type": "uint8"
            },
            {
              "components": [
                {
                  "internalType": "bytes32",
                  "name": "hash",
                  "type": "bytes32"
                },
                {
                  "internalType": "bytes[]",
                  "name": "uris",
                  "type": "bytes[]"
                }
              ],
              "internalType": "struct DappletRegistry.StorageRef",
              "name": "binary",
              "type": "tuple"
            },
            {
              "components": [
                {
                  "internalType": "string",
                  "name": "name",
                  "type": "string"
                },
                {
                  "internalType": "string",
                  "name": "branch",
                  "type": "string"
                },
                {
                  "internalType": "uint8",
                  "name": "major",
                  "type": "uint8"
                },
                {
                  "internalType": "uint8",
                  "name": "minor",
                  "type": "uint8"
                },
                {
                  "internalType": "uint8",
                  "name": "patch",
                  "type": "uint8"
                }
              ],
              "internalType": "struct DappletRegistry.DependencyDto[]",
              "name": "dependencies",
              "type": "tuple[]"
            },
            {
              "components": [
                {
                  "internalType": "string",
                  "name": "name",
                  "type": "string"
                },
                {
                  "internalType": "string",
                  "name": "branch",
                  "type": "string"
                },
                {
                  "internalType": "uint8",
                  "name": "major",
                  "type": "uint8"
                },
                {
                  "internalType": "uint8",
                  "name": "minor",
                  "type": "uint8"
                },
                {
                  "internalType": "uint8",
                  "name": "patch",
                  "type": "uint8"
                }
              ],
              "internalType": "struct DappletRegistry.DependencyDto[]",
              "name": "interfaces",
              "type": "tuple[]"
            },
            {
              "internalType": "uint8",
              "name": "flags",
              "type": "uint8"
            }
          ],
          "internalType": "struct DappletRegistry.VersionInfoDto",
          "name": "dto",
          "type": "tuple"
        },
        {
          "internalType": "uint8",
          "name": "moduleType",
          "type": "uint8"
        }
      ],
      "stateMutability": "view",
      "type": "function"
    },
    {
      "inputs": [
        {
          "internalType": "string",
          "name": "name",
          "type": "string"
        },
        {
          "internalType": "string",
          "name": "branch",
          "type": "string"
        }
      ],
      "name": "getVersionNumbers",
      "outputs": [
        {
          "internalType": "bytes",
          "name": "",
          "type": "bytes"
        }
      ],
      "stateMutability": "view",
      "type": "function"
    },
    {
      "inputs": [
        {
          "internalType": "bytes32",
          "name": "",
          "type": "bytes32"
        },
        {
          "internalType": "uint256",
          "name": "",
          "type": "uint256"
        }
      ],
      "name": "modsByContextType",
      "outputs": [
        {
          "internalType": "uint32",
          "name": "",
          "type": "uint32"
        }
      ],
      "stateMutability": "view",
      "type": "function"
    },
    {
      "inputs": [
        {
          "internalType": "address",
          "name": "",
          "type": "address"
        },
        {
          "internalType": "uint256",
          "name": "",
          "type": "uint256"
        }
      ],
      "name": "modsByOwner",
      "outputs": [
        {
          "internalType": "uint32",
          "name": "",
          "type": "uint32"
        }
      ],
      "stateMutability": "view",
      "type": "function"
    },
    {
      "inputs": [
        {
          "internalType": "bytes32",
          "name": "",
          "type": "bytes32"
        }
      ],
      "name": "moduleIdxs",
      "outputs": [
        {
          "internalType": "uint32",
          "name": "",
          "type": "uint32"
        }
      ],
      "stateMutability": "view",
      "type": "function"
    },
    {
      "inputs": [
        {
          "internalType": "uint256",
          "name": "",
          "type": "uint256"
        }
      ],
      "name": "modules",
      "outputs": [
        {
          "internalType": "uint8",
          "name": "moduleType",
          "type": "uint8"
        },
        {
          "internalType": "string",
          "name": "name",
          "type": "string"
        },
        {
          "internalType": "string",
          "name": "title",
          "type": "string"
        },
        {
          "internalType": "string",
          "name": "description",
          "type": "string"
        },
        {
          "components": [
            {
              "internalType": "bytes32",
              "name": "hash",
              "type": "bytes32"
            },
            {
              "internalType": "bytes[]",
              "name": "uris",
              "type": "bytes[]"
            }
          ],
          "internalType": "struct DappletRegistry.StorageRef",
          "name": "icon",
          "type": "tuple"
        },
        {
          "internalType": "address",
          "name": "owner",
          "type": "address"
        },
        {
          "internalType": "uint256",
          "name": "flags",
          "type": "uint256"
        }
      ],
      "stateMutability": "view",
      "type": "function"
    },
    {
      "inputs": [
        {
          "internalType": "string",
          "name": "mod_name",
          "type": "string"
        },
        {
          "internalType": "string",
          "name": "contextId",
          "type": "string"
        }
      ],
      "name": "removeContextId",
      "outputs": [],
      "stateMutability": "nonpayable",
      "type": "function"
    },
    {
      "inputs": [
        {
          "internalType": "string",
          "name": "mod_name",
          "type": "string"
        },
        {
          "internalType": "address",
          "name": "newUserId",
          "type": "address"
        },
        {
          "internalType": "uint256",
          "name": "oldOwnerArrIdx",
          "type": "uint256"
        }
      ],
      "name": "transferOwnership",
      "outputs": [],
      "stateMutability": "nonpayable",
      "type": "function"
    },
    {
      "inputs": [
        {
          "internalType": "bytes32",
          "name": "",
          "type": "bytes32"
        }
      ],
      "name": "versionNumbers",
      "outputs": [
        {
          "internalType": "bytes",
          "name": "",
          "type": "bytes"
        }
      ],
      "stateMutability": "view",
      "type": "function"
    },
    {
      "inputs": [
        {
          "internalType": "bytes32",
          "name": "",
          "type": "bytes32"
        }
      ],
      "name": "versions",
      "outputs": [
        {
          "internalType": "uint256",
          "name": "modIdx",
          "type": "uint256"
        },
        {
          "internalType": "string",
          "name": "branch",
          "type": "string"
        },
        {
          "internalType": "uint8",
          "name": "major",
          "type": "uint8"
        },
        {
          "internalType": "uint8",
          "name": "minor",
          "type": "uint8"
        },
        {
          "internalType": "uint8",
          "name": "patch",
          "type": "uint8"
        },
        {
          "components": [
            {
              "internalType": "bytes32",
              "name": "hash",
              "type": "bytes32"
            },
            {
              "internalType": "bytes[]",
              "name": "uris",
              "type": "bytes[]"
            }
          ],
          "internalType": "struct DappletRegistry.StorageRef",
          "name": "binary",
          "type": "tuple"
        },
        {
          "internalType": "uint8",
          "name": "flags",
          "type": "uint8"
        }
      ],
      "stateMutability": "view",
      "type": "function"
    }
  ],
  "bytecode": "0x608060405234801561001057600080fd5b50600580546001018155600052615d8c806200002d6000396000f3fe608060405234801561001057600080fd5b50600436106101515760003560e01c806381b2248a116100cd578063c907ef8011610081578063df090e4c11610066578063df090e4c14610314578063e88324d014610327578063f96c7aab1461033a57600080fd5b8063c907ef80146102db578063ded5a7b91461030157600080fd5b8063a24aadf4116100b2578063a24aadf41461028f578063b394c178146102a2578063c7cec7f8146102b557600080fd5b806381b2248a14610256578063979e119a1461027c57600080fd5b80634eda60051161012457806355c8045b1161010957806355c8045b1461020f57806355f0a672146102225780637ad679661461024357600080fd5b80634eda6005146101cf5780635146bd64146101ef57600080fd5b80630fc86036146101565780632ac43f9d1461016b5780633765e118146101945780634a3ef7a8146101bc575b600080fd5b610169610164366004614ec2565b61035a565b005b61017e610179366004614f26565b6104a0565b60405161018b9190615141565b60405180910390f35b6101a76101a2366004615154565b610934565b60405163ffffffff909116815260200161018b565b6101696101ca36600461528d565b61097d565b6101e26101dd366004615478565b610d3d565b60405161018b9190615534565b6102026101fd366004615547565b611247565b60405161018b9190615560565b6101a761021d366004615573565b6112e1565b61023561023036600461559d565b6112fd565b60405161018b9291906156ca565b61016961025136600461579e565b61265e565b610269610264366004615547565b612750565b60405161018b9796959493929190615837565b61016961028a3660046158ad565b612a2f565b61016961029d366004615907565b612c2c565b6102026102b03660046158ad565b612f4d565b6102c86102c3366004615547565b613020565b60405161018b979695949392919061595e565b6101a76102e9366004615547565b60036020526000908152604090205463ffffffff1681565b61016961030f3660046159bc565b6131d3565b6101696103223660046158ad565b613281565b6101e2610335366004615a16565b613392565b61034d610348366004615a31565b6138b7565b60405161018b9190615a6a565b60008260405160200161036d9190615acc565b60408051601f198184030181529181528151602092830120600081815260039093529082205490925063ffffffff16908190036103f15760405162461bcd60e51b815260206004820152601960248201527f546865206d6f64756c6520646f6573206e6f742065786973740000000000000060448201526064015b60405180910390fd5b600060058263ffffffff168154811061040c5761040c615ae8565b600091825260209091206006600990920201908101549091506001600160a01b031633146104885760405162461bcd60e51b8152602060048201526024808201527f596f7520617265206e6f7420746865206f776e6572206f662074686973206d6f60448201526364756c6560e01b60648201526084016103e8565b6104998263ffffffff16868661396f565b5050505050565b6104a86147e8565b6000826040516020016104bb9190615acc565b60408051601f198184030181529181528151602092830120600081815260039093529082205490925063ffffffff1690036105385760405162461bcd60e51b815260206004820152601960248201527f546865206d6f64756c6520646f6573206e6f742065786973740000000000000060448201526064016103e8565b60008181526003602052604090205460058054909163ffffffff1690811061056257610562615ae8565b6000918252602091829020604080516101008101909152600990920201805460ff168252600181018054929391929184019161059d90615afe565b80601f01602080910402602001604051908101604052809291908181526020018280546105c990615afe565b80156106165780601f106105eb57610100808354040283529160200191610616565b820191906000526020600020905b8154815290600101906020018083116105f957829003601f168201915b5050505050815260200160028201805461062f90615afe565b80601f016020809104026020016040519081016040528092919081815260200182805461065b90615afe565b80156106a85780601f1061067d576101008083540402835291602001916106a8565b820191906000526020600020905b81548152906001019060200180831161068b57829003601f168201915b505050505081526020016003820180546106c190615afe565b80601f01602080910402602001604051908101604052809291908181526020018280546106ed90615afe565b801561073a5780601f1061070f5761010080835404028352916020019161073a565b820191906000526020600020905b81548152906001019060200180831161071d57829003601f168201915b50505050508152602001600482016040518060400160405290816000820154815260200160018201805480602002602001604051908101604052809291908181526020016000905b8282101561082e5783829060005260206000200180546107a190615afe565b80601f01602080910402602001604051908101604052809291908181526020018280546107cd90615afe565b801561081a5780601f106107ef5761010080835404028352916020019161081a565b820191906000526020600020905b8154815290600101906020018083116107fd57829003601f168201915b505050505081526020019060010190610782565b50505091525050815260068201546001600160a01b0316602080830191909152600783018054604080518285028101850182528281529401939260009084015b8282101561091a57838290600052602060002001805461088d90615afe565b80601f01602080910402602001604051908101604052809291908181526020018280546108b990615afe565b80156109065780601f106108db57610100808354040283529160200191610906565b820191906000526020600020905b8154815290600101906020018083116108e957829003601f168201915b50505050508152602001906001019061086e565b505050508152602001600882015481525050915050919050565b6002602052816000526040600020818154811061095057600080fd5b9060005260206000209060089182820401919006600402915091509054906101000a900463ffffffff1681565b600082602001516040516020016109949190615acc565b60408051601f1981840301815291815281516020928301206000818152600390935291205490915063ffffffff1615610a0f5760405162461bcd60e51b815260206004820152601960248201527f546865206d6f64756c6520616c7265616479206578697374730000000000000060448201526064016103e8565b3360a08401819052825115610a2c5760e084015160011916610a35565b60e08401516001175b60e08501526005805460018101825560009190915284517f036b6384b5eca791c62761152d0c79bb0604c104a5fb6f4eb0703f3154bb3db06009909202918201805460ff191660ff90921691909117815560208087015180518894610ac0937f036b6384b5eca791c62761152d0c79bb0604c104a5fb6f4eb0703f3154bb3db1909101920190614857565b5060408201518051610adc916002840191602090910190614857565b5060608201518051610af8916003840191602090910190614857565b5060808201518051600483019081556020808301518051610b1f92600587019201906148db565b50505060a08201516006820180547fffffffffffffffffffffffff0000000000000000000000000000000000000000166001600160a01b0390921691909117905560c08201518051610b7b916007840191602090910190614934565b5060e09190910151600890910155600554600090610b9b90600190615b4e565b6000848152600360209081526040808320805463ffffffff191663ffffffff8681169182179092556001600160a01b0388168552600480855292852080546001810182559086529385206008850401805460079095169093026101000a9182021990931692029190911790559091505b8651811015610cae576000878281518110610c2857610c28615ae8565b602002602001015184604051602001610c42929190615b65565b60408051808303601f19018152918152815160209283012060009081526002835290812080546001810182559082529190206008820401805460079092166004026101000a63ffffffff818102199093169286160291909117905550610ca781615baf565b9050610c0b565b507f7a7dd469a361bac8e6dedfe3aa3602390958e6f690d40629327529e20d0de958868383604051610ce293929190615bc8565b60405180910390a160005b8451811015610d3457610d248263ffffffff168760200151878481518110610d1757610d17615ae8565b602002602001015161396f565b610d2d81615baf565b9050610ced565b50505050505050565b60606000808363ffffffff1611610d56576103e8610d58565b825b63ffffffff1667ffffffffffffffff811115610d7657610d76614a53565b604051908082528060200260200182016040528015610d9f578160200160208202803683370190505b5090506000610db186868460006141f0565b90508067ffffffffffffffff811115610dcc57610dcc614a53565b604051908082528060200260200182016040528015610e0557816020015b610df26147e8565b815260200190600190039081610dea5790505b50925060005b8181101561123d576000838281518110610e2757610e27615ae8565b6020026020010151905060058181548110610e4457610e44615ae8565b6000918252602091829020604080516101008101909152600990920201805460ff1682526001810180549293919291840191610e7f90615afe565b80601f0160208091040260200160405190810160405280929190818152602001828054610eab90615afe565b8015610ef85780601f10610ecd57610100808354040283529160200191610ef8565b820191906000526020600020905b815481529060010190602001808311610edb57829003601f168201915b50505050508152602001600282018054610f1190615afe565b80601f0160208091040260200160405190810160405280929190818152602001828054610f3d90615afe565b8015610f8a5780601f10610f5f57610100808354040283529160200191610f8a565b820191906000526020600020905b815481529060010190602001808311610f6d57829003601f168201915b50505050508152602001600382018054610fa390615afe565b80601f0160208091040260200160405190810160405280929190818152602001828054610fcf90615afe565b801561101c5780601f10610ff15761010080835404028352916020019161101c565b820191906000526020600020905b815481529060010190602001808311610fff57829003601f168201915b50505050508152602001600482016040518060400160405290816000820154815260200160018201805480602002602001604051908101604052809291908181526020016000905b8282101561111057838290600052602060002001805461108390615afe565b80601f01602080910402602001604051908101604052809291908181526020018280546110af90615afe565b80156110fc5780601f106110d1576101008083540402835291602001916110fc565b820191906000526020600020905b8154815290600101906020018083116110df57829003601f168201915b505050505081526020019060010190611064565b50505091525050815260068201546001600160a01b0316602080830191909152600783018054604080518285028101850182528281529401939260009084015b828210156111fc57838290600052602060002001805461116f90615afe565b80601f016020809104026020016040519081016040528092919081815260200182805461119b90615afe565b80156111e85780601f106111bd576101008083540402835291602001916111e8565b820191906000526020600020905b8154815290600101906020018083116111cb57829003601f168201915b505050505081526020019060010190611150565b50505050815260200160088201548152505085838151811061122057611220615ae8565b6020026020010181905250508061123690615baf565b9050610e0b565b5050509392505050565b6000602081905290815260409020805461126090615afe565b80601f016020809104026020016040519081016040528092919081815260200182805461128c90615afe565b80156112d95780601f106112ae576101008083540402835291602001916112d9565b820191906000526020600020905b8154815290600101906020018083116112bc57829003601f168201915b505050505081565b6004602052816000526040600020818154811061095057600080fd5b61135460408051610100810182526060808252600060208084018290528385018290528284018290528451808601909552908452830152906080820190815260606020820181905260408201819052600091015290565b6000808787878787604051602001611370959493929190615c00565b60408051601f1981840301815282825280516020918201206000818152600180845284822061012087019095528454865284018054929650909493928401916113b890615afe565b80601f01602080910402602001604051908101604052809291908181526020018280546113e490615afe565b80156114315780601f1061140657610100808354040283529160200191611431565b820191906000526020600020905b81548152906001019060200180831161141457829003601f168201915b5050509183525050600282015460ff8082166020808501919091526101008304821660408086019190915262010000909304909116606084015281518083018352600385018054825260048601805485518186028101860190965280865260809096019592949193858101939060009084015b828210156115505783829060005260206000200180546114c390615afe565b80601f01602080910402602001604051908101604052809291908181526020018280546114ef90615afe565b801561153c5780601f106115115761010080835404028352916020019161153c565b820191906000526020600020905b81548152906001019060200180831161151f57829003601f168201915b5050505050815260200190600101906114a4565b50505050815250508152602001600582018054806020026020016040519081016040528092919081815260200182805480156115ab57602002820191906000526020600020905b815481526020019060010190808311611597575b505050505081526020016006820180548060200260200160405190810160405280929190818152602001828054801561160357602002820191906000526020600020905b8154815260200190600101908083116115ef575b50505091835250506007919091015460ff16602090910152805190915060000361166f5760405162461bcd60e51b815260206004820152601560248201527f56657273696f6e20646f65736e2774206578697374000000000000000000000060448201526064016103e8565b60008160c001515167ffffffffffffffff81111561168f5761168f614a53565b6040519080825280602002602001820160405280156116eb57816020015b6040805160a0810182526060808252602082018190526000928201839052810182905260808101919091528152602001906001900390816116ad5790505b50905060005b8260c0015151811015611e16576000600160008560c00151848151811061171a5761171a615ae8565b60200260200101518152602001908152602001600020604051806101200160405290816000820154815260200160018201805461175690615afe565b80601f016020809104026020016040519081016040528092919081815260200182805461178290615afe565b80156117cf5780601f106117a4576101008083540402835291602001916117cf565b820191906000526020600020905b8154815290600101906020018083116117b257829003601f168201915b5050509183525050600282015460ff8082166020808501919091526101008304821660408086019190915262010000909304909116606084015281518083018352600385018054825260048601805485518186028101860190965280865260809096019592949193858101939060009084015b828210156118ee57838290600052602060002001805461186190615afe565b80601f016020809104026020016040519081016040528092919081815260200182805461188d90615afe565b80156118da5780601f106118af576101008083540402835291602001916118da565b820191906000526020600020905b8154815290600101906020018083116118bd57829003601f168201915b505050505081526020019060010190611842565b505050508152505081526020016005820180548060200260200160405190810160405280929190818152602001828054801561194957602002820191906000526020600020905b815481526020019060010190808311611935575b50505050508152602001600682018054806020026020016040519081016040528092919081815260200182805480156119a157602002820191906000526020600020905b81548152602001906001019080831161198d575b50505091835250506007919091015460ff1660209091015280516005805492935060009290919081106119d6576119d6615ae8565b6000918252602091829020604080516101008101909152600990920201805460ff1682526001810180549293919291840191611a1190615afe565b80601f0160208091040260200160405190810160405280929190818152602001828054611a3d90615afe565b8015611a8a5780601f10611a5f57610100808354040283529160200191611a8a565b820191906000526020600020905b815481529060010190602001808311611a6d57829003601f168201915b50505050508152602001600282018054611aa390615afe565b80601f0160208091040260200160405190810160405280929190818152602001828054611acf90615afe565b8015611b1c5780601f10611af157610100808354040283529160200191611b1c565b820191906000526020600020905b815481529060010190602001808311611aff57829003601f168201915b50505050508152602001600382018054611b3590615afe565b80601f0160208091040260200160405190810160405280929190818152602001828054611b6190615afe565b8015611bae5780601f10611b8357610100808354040283529160200191611bae565b820191906000526020600020905b815481529060010190602001808311611b9157829003601f168201915b50505050508152602001600482016040518060400160405290816000820154815260200160018201805480602002602001604051908101604052809291908181526020016000905b82821015611ca2578382906000526020600020018054611c1590615afe565b80601f0160208091040260200160405190810160405280929190818152602001828054611c4190615afe565b8015611c8e5780601f10611c6357610100808354040283529160200191611c8e565b820191906000526020600020905b815481529060010190602001808311611c7157829003601f168201915b505050505081526020019060010190611bf6565b50505091525050815260068201546001600160a01b0316602080830191909152600783018054604080518285028101850182528281529401939260009084015b82821015611d8e578382906000526020600020018054611d0190615afe565b80601f0160208091040260200160405190810160405280929190818152602001828054611d2d90615afe565b8015611d7a5780601f10611d4f57610100808354040283529160200191611d7a565b820191906000526020600020905b815481529060010190602001808311611d5d57829003601f168201915b505050505081526020019060010190611ce2565b50505050815260200160088201548152505090506040518060a001604052808260200151815260200183602001518152602001836040015160ff168152602001836060015160ff168152602001836080015160ff16815250848481518110611df857611df8615ae8565b6020026020010181905250505080611e0f90615baf565b90506116f1565b5060008260e001515167ffffffffffffffff811115611e3757611e37614a53565b604051908082528060200260200182016040528015611e9357816020015b6040805160a081018252606080825260208201819052600092820183905281018290526080810191909152815260200190600190039081611e555790505b50905060005b8360e00151518110156125be576000600160008660e001518481518110611ec257611ec2615ae8565b602002602001015181526020019081526020016000206040518061012001604052908160008201548152602001600182018054611efe90615afe565b80601f0160208091040260200160405190810160405280929190818152602001828054611f2a90615afe565b8015611f775780601f10611f4c57610100808354040283529160200191611f77565b820191906000526020600020905b815481529060010190602001808311611f5a57829003601f168201915b5050509183525050600282015460ff8082166020808501919091526101008304821660408086019190915262010000909304909116606084015281518083018352600385018054825260048601805485518186028101860190965280865260809096019592949193858101939060009084015b8282101561209657838290600052602060002001805461200990615afe565b80601f016020809104026020016040519081016040528092919081815260200182805461203590615afe565b80156120825780601f1061205757610100808354040283529160200191612082565b820191906000526020600020905b81548152906001019060200180831161206557829003601f168201915b505050505081526020019060010190611fea565b50505050815250508152602001600582018054806020026020016040519081016040528092919081815260200182805480156120f157602002820191906000526020600020905b8154815260200190600101908083116120dd575b505050505081526020016006820180548060200260200160405190810160405280929190818152602001828054801561214957602002820191906000526020600020905b815481526020019060010190808311612135575b50505091835250506007919091015460ff16602090910152805160058054929350600092909190811061217e5761217e615ae8565b6000918252602091829020604080516101008101909152600990920201805460ff16825260018101805492939192918401916121b990615afe565b80601f01602080910402602001604051908101604052809291908181526020018280546121e590615afe565b80156122325780601f1061220757610100808354040283529160200191612232565b820191906000526020600020905b81548152906001019060200180831161221557829003601f168201915b5050505050815260200160028201805461224b90615afe565b80601f016020809104026020016040519081016040528092919081815260200182805461227790615afe565b80156122c45780601f10612299576101008083540402835291602001916122c4565b820191906000526020600020905b8154815290600101906020018083116122a757829003601f168201915b505050505081526020016003820180546122dd90615afe565b80601f016020809104026020016040519081016040528092919081815260200182805461230990615afe565b80156123565780601f1061232b57610100808354040283529160200191612356565b820191906000526020600020905b81548152906001019060200180831161233957829003601f168201915b50505050508152602001600482016040518060400160405290816000820154815260200160018201805480602002602001604051908101604052809291908181526020016000905b8282101561244a5783829060005260206000200180546123bd90615afe565b80601f01602080910402602001604051908101604052809291908181526020018280546123e990615afe565b80156124365780601f1061240b57610100808354040283529160200191612436565b820191906000526020600020905b81548152906001019060200180831161241957829003601f168201915b50505050508152602001906001019061239e565b50505091525050815260068201546001600160a01b0316602080830191909152600783018054604080518285028101850182528281529401939260009084015b828210156125365783829060005260206000200180546124a990615afe565b80601f01602080910402602001604051908101604052809291908181526020018280546124d590615afe565b80156125225780601f106124f757610100808354040283529160200191612522565b820191906000526020600020905b81548152906001019060200180831161250557829003601f168201915b50505050508152602001906001019061248a565b50505050815260200160088201548152505090506040518060a001604052808260200151815260200183602001518152602001836040015160ff168152602001836060015160ff168152602001836080015160ff168152508484815181106125a0576125a0615ae8565b60200260200101819052505050806125b790615baf565b9050611e99565b5060405180610100016040528084602001518152602001846040015160ff168152602001846060015160ff168152602001846080015160ff1681526020018460a00151815260200183815260200182815260200184610100015160ff168152509550600583600001518154811061263757612637615ae8565b6000918252602090912060099091020154959b60ff9096169a509498505050505050505050565b600060058563ffffffff168154811061267957612679615ae8565b600091825260209091206006600990920201908101549091506001600160a01b031633146126f55760405162461bcd60e51b8152602060048201526024808201527f596f7520617265206e6f7420746865206f776e6572206f662074686973206d6f60448201526364756c6560e01b60648201526084016103e8565b835161270a9060028301906020870190614857565b5082516127209060038301906020860190614857565b5081516004820190815560208084015180518593926127469260058701929101906148db565b5050505050505050565b6005818154811061276057600080fd5b60009182526020909120600990910201805460018201805460ff90921693509061278990615afe565b80601f01602080910402602001604051908101604052809291908181526020018280546127b590615afe565b80156128025780601f106127d757610100808354040283529160200191612802565b820191906000526020600020905b8154815290600101906020018083116127e557829003601f168201915b50505050509080600201805461281790615afe565b80601f016020809104026020016040519081016040528092919081815260200182805461284390615afe565b80156128905780601f1061286557610100808354040283529160200191612890565b820191906000526020600020905b81548152906001019060200180831161287357829003601f168201915b5050505050908060030180546128a590615afe565b80601f01602080910402602001604051908101604052809291908181526020018280546128d190615afe565b801561291e5780601f106128f35761010080835404028352916020019161291e565b820191906000526020600020905b81548152906001019060200180831161290157829003601f168201915b505050505090806004016040518060400160405290816000820154815260200160018201805480602002602001604051908101604052809291908181526020016000905b82821015612a0e57838290600052602060002001805461298190615afe565b80601f01602080910402602001604051908101604052809291908181526020018280546129ad90615afe565b80156129fa5780601f106129cf576101008083540402835291602001916129fa565b820191906000526020600020905b8154815290600101906020018083116129dd57829003601f168201915b505050505081526020019060010190612962565b50505091525050600682015460089092015490916001600160a01b03169087565b600082604051602001612a429190615acc565b60408051601f198184030181529181528151602092830120600081815260039093529082205490925063ffffffff1690819003612ac15760405162461bcd60e51b815260206004820152601960248201527f546865206d6f64756c6520646f6573206e6f742065786973740000000000000060448201526064016103e8565b6040513390600090612ad99086908490602001615b65565b60408051601f19818403018152918152815160209283012060008181526002909352908220909250905b8154811015612746578463ffffffff16828281548110612b2557612b25615ae8565b6000918252602090912060088204015460079091166004026101000a900463ffffffff1603612c1c5781548290612b5e90600190615b4e565b81548110612b6e57612b6e615ae8565b90600052602060002090600891828204019190066004029054906101000a900463ffffffff16828281548110612ba657612ba6615ae8565b90600052602060002090600891828204019190066004026101000a81548163ffffffff021916908363ffffffff16021790555081805480612be957612be9615c76565b600082815260209020600860001990920191820401805463ffffffff600460078516026101000a02191690559055612746565b612c2581615baf565b9050612b03565b600083604051602001612c3f9190615acc565b60408051601f198184030181529181528151602092830120600081815260039093529082205490925063ffffffff1690819003612cbe5760405162461bcd60e51b815260206004820152601960248201527f546865206d6f64756c6520646f6573206e6f742065786973740000000000000060448201526064016103e8565b600060058263ffffffff1681548110612cd957612cd9615ae8565b600091825260209091206006600990920201908101549091506001600160a01b03163314612d555760405162461bcd60e51b8152602060048201526024808201527f596f7520617265206e6f7420746865206f776e6572206f662074686973206d6f60448201526364756c6560e01b60648201526084016103e8565b60068101546001600160a01b03166000908152600460205260409020805463ffffffff841690829087908110612d8d57612d8d615ae8565b6000918252602090912060088204015460079091166004026101000a900463ffffffff1614612dfe5760405162461bcd60e51b815260206004820181905260248201527f496e76616c696420696e646578206f66206172726179206f776e6572206d617060448201526064016103e8565b80548190612e0e90600190615b4e565b81548110612e1e57612e1e615ae8565b90600052602060002090600891828204019190066004029054906101000a900463ffffffff16818681548110612e5657612e56615ae8565b90600052602060002090600891828204019190066004026101000a81548163ffffffff021916908363ffffffff16021790555080805480612e9957612e99615c76565b600082815260208082206008600019909401848104909101805463ffffffff60046007808616820261010090810a84021990941690945593909755600690980180546001600160a01b03909d167fffffffffffffffffffffffff0000000000000000000000000000000000000000909d168d1790559a8352808252604083208054600181018255908452919092209281049092018054968416929099160290930a9283029202199092161790935550505050565b606060008383604051602001612f64929190615c8c565b6040516020818303038152906040528051906020012090506000808281526020019081526020016000208054612f9990615afe565b80601f0160208091040260200160405190810160405280929190818152602001828054612fc590615afe565b80156130125780601f10612fe757610100808354040283529160200191613012565b820191906000526020600020905b815481529060010190602001808311612ff557829003601f168201915b505050505091505092915050565b60016020819052600091825260409091208054918101805461304190615afe565b80601f016020809104026020016040519081016040528092919081815260200182805461306d90615afe565b80156130ba5780601f1061308f576101008083540402835291602001916130ba565b820191906000526020600020905b81548152906001019060200180831161309d57829003601f168201915b50505050600283015460408051808201825260038601805482526004870180548451602080830282018101909652818152979860ff8088169961010089048216995062010000909804169690958086019391929060009084015b828210156131c057838290600052602060002001805461313390615afe565b80601f016020809104026020016040519081016040528092919081815260200182805461315f90615afe565b80156131ac5780601f10613181576101008083540402835291602001916131ac565b820191906000526020600020905b81548152906001019060200180831161318f57829003601f168201915b505050505081526020019060010190613114565b5050509152505060079091015460ff1687565b80518251146132245760405162461bcd60e51b815260206004820181905260248201527f4e756d626572206f6620656c656d656e7473206d75737420626520657175616c60448201526064016103e8565b60005b825181101561327c5761326c83828151811061324557613245615ae8565b602002602001015183838151811061325f5761325f615ae8565b602002602001015161035a565b61327581615baf565b9050613227565b505050565b6000826040516020016132949190615acc565b60408051601f198184030181529181528151602092830120600081815260039093529082205490925063ffffffff16908190036133135760405162461bcd60e51b815260206004820152601960248201527f546865206d6f64756c6520646f6573206e6f742065786973740000000000000060448201526064016103e8565b604051339060009061332b9086908490602001615b65565b60408051808303601f19018152918152815160209283012060009081526002835290812080546001810182559082529190206008820401805460079092166004026101000a63ffffffff818102199093169590921691909102939093179092555050505050565b6001600160a01b038116600090815260046020908152604080832080548251818502810185019093528083526060949383018282801561341d57602002820191906000526020600020906000905b82829054906101000a900463ffffffff1663ffffffff16815260200190600401906020826003010492830192600103820291508084116133e05790505b50505050509050805167ffffffffffffffff81111561343e5761343e614a53565b60405190808252806020026020018201604052801561347757816020015b6134646147e8565b81526020019060019003908161345c5790505b50915060005b81518110156138b057600582828151811061349a5761349a615ae8565b602002602001015163ffffffff16815481106134b8576134b8615ae8565b6000918252602091829020604080516101008101909152600990920201805460ff16825260018101805492939192918401916134f390615afe565b80601f016020809104026020016040519081016040528092919081815260200182805461351f90615afe565b801561356c5780601f106135415761010080835404028352916020019161356c565b820191906000526020600020905b81548152906001019060200180831161354f57829003601f168201915b5050505050815260200160028201805461358590615afe565b80601f01602080910402602001604051908101604052809291908181526020018280546135b190615afe565b80156135fe5780601f106135d3576101008083540402835291602001916135fe565b820191906000526020600020905b8154815290600101906020018083116135e157829003601f168201915b5050505050815260200160038201805461361790615afe565b80601f016020809104026020016040519081016040528092919081815260200182805461364390615afe565b80156136905780601f1061366557610100808354040283529160200191613690565b820191906000526020600020905b81548152906001019060200180831161367357829003601f168201915b50505050508152602001600482016040518060400160405290816000820154815260200160018201805480602002602001604051908101604052809291908181526020016000905b828210156137845783829060005260206000200180546136f790615afe565b80601f016020809104026020016040519081016040528092919081815260200182805461372390615afe565b80156137705780601f1061374557610100808354040283529160200191613770565b820191906000526020600020905b81548152906001019060200180831161375357829003601f168201915b5050505050815260200190600101906136d8565b50505091525050815260068201546001600160a01b0316602080830191909152600783018054604080518285028101850182528281529401939260009084015b828210156138705783829060005260206000200180546137e390615afe565b80601f016020809104026020016040519081016040528092919081815260200182805461380f90615afe565b801561385c5780601f106138315761010080835404028352916020019161385c565b820191906000526020600020905b81548152906001019060200180831161383f57829003601f168201915b5050505050815260200190600101906137c4565b50505050815260200160088201548152505083828151811061389457613894615ae8565b6020026020010181905250806138a990615baf565b905061347d565b5050919050565b6060835167ffffffffffffffff8111156138d3576138d3614a53565b60405190808252806020026020018201604052801561390657816020015b60608152602001906001900390816138f15790505b50905060005b84518110156139675761393985828151811061392a5761392a615ae8565b60200260200101518585610d3d565b82828151811061394b5761394b615ae8565b60200260200101819052508061396090615baf565b905061390c565b509392505050565b60008160a001515167ffffffffffffffff81111561398f5761398f614a53565b6040519080825280602002602001820160405280156139b8578160200160208202803683370190505b50905060005b8260a0015151811015613ac55760008360a0015182815181106139e3576139e3615ae8565b60200260200101519050600081600001518260200151836040015184606001518560800151604051602001613a1c959493929190615c00565b60408051601f19818403018152918152815160209283012060008181526001909352908220549092509003613a935760405162461bcd60e51b815260206004820152601860248201527f446570656e64656e637920646f65736e2774206578697374000000000000000060448201526064016103e8565b80848481518110613aa657613aa6615ae8565b602002602001018181525050505080613abe90615baf565b90506139be565b5060008260c001515167ffffffffffffffff811115613ae657613ae6614a53565b604051908082528060200260200182016040528015613b0f578160200160208202803683370190505b50905060005b8360c0015151811015613d545760008460c001518281518110613b3a57613b3a615ae8565b60200260200101519050600081600001518260200151836040015184606001518560800151604051602001613b73959493929190615c00565b60408051601f19818403018152918152815160209283012060008181526001909352908220549092509003613bea5760405162461bcd60e51b815260206004820152601760248201527f496e7465726661636520646f65736e277420657869737400000000000000000060448201526064016103e8565b80848481518110613bfd57613bfd615ae8565b6020026020010181815250506000805b60058a81548110613c2057613c20615ae8565b906000526020600020906009020160070180549050811015613ce7578351604051613c4e9190602001615acc565b6040516020818303038152906040528051906020012060058b81548110613c7757613c77615ae8565b90600052602060002090600902016007018281548110613c9957613c99615ae8565b90600052602060002001604051602001613cb39190615cbb565b6040516020818303038152906040528051906020012003613cd75760019150613ce7565b613ce081615baf565b9050613c0d565b50801515600003613d405760058981548110613d0557613d05615ae8565b600091825260208083208651600993909302016007018054600181018255908452928190208251613d3e94919091019290910190614857565b505b50505080613d4d90615baf565b9050613b15565b50600060405180610120016040528087815260200185600001518152602001856020015160ff168152602001856040015160ff168152602001856060015160ff168152602001856080015181526020018481526020018381526020018560e0015160ff1681525090506000858560000151866020015187604001518860600151604051602001613de8959493929190615c00565b60408051601f198184030181529181528151602092830120600081815260018085529290208551815585840151805192955086949193613e3093908501929190910190614857565b5060408201516002820180546060850151608086015160ff908116620100000262ff0000199282166101000261ffff199094169190951617919091171691909117905560a08201518051600383019081556020808301518051613e9992600487019201906148db565b50505060c08201518051613eb791600584019160209091019061498d565b5060e08201518051613ed391600684019160209091019061498d565b5061010091909101516007909101805460ff191660ff909216919091179055602082810151604051600092613f0c928a92909101615c8c565b604051602081830303815290604052805190602001209050600080828152602001908152602001600020836040015160f81b9080805480613f4c90615afe565b80601f8103613f6b5783600052602060002060ff1984168155603f9350505b50600291909101909155815460011615613f945790600052602060002090602091828204019190065b909190919091601f036101000a81548160ff02191690600160f81b84040217905550600080828152602001908152602001600020836060015160f81b9080805480613fde90615afe565b80601f8103613ffd5783600052602060002060ff1984168155603f9350505b506002919091019091558154600116156140265790600052602060002090602091828204019190065b909190919091601f036101000a81548160ff02191690600160f81b84040217905550600080828152602001908152602001600020836080015160f81b908080548061407090615afe565b80601f810361408f5783600052602060002060ff1984168155603f9350505b506002919091019091558154600116156140b85790600052602060002090602091828204019190065b815460ff601f929092036101000a9182021916600160f81b909304029190911790556000818152602081905260408120805481906140f581615afe565b80601f81036141145783600052602060002060ff1984168155603f9350505b5060029190910190915581546001161561413d5790600052602060002090602091828204019190065b909190919091601f036101000a81548160ff02191690600160f81b840402179055506001600060058a8154811061417657614176615ae8565b906000526020600020906009020160080154901c16600103612746576005805460011991908a9081106141ab576141ab615ae8565b90600052602060002090600902016008015416600589815481106141d1576141d1615ae8565b9060005260206000209060090201600801819055505050505050505050565b600081815b85518110156147995760008787838151811061421357614213615ae8565b602002602001015160405160200161422c929190615b65565b60408051601f198184030181528282528051602091820120600081815260028352838120805480850287018501909552848652919550939290918301828280156142c157602002820191906000526020600020906000905b82829054906101000a900463ffffffff1663ffffffff16815260200190600401906020826003010492830192600103820291508084116142845790505b50505050509050600084905060005b82518110156147845760008382815181106142ed576142ed615ae8565b602002602001015163ffffffff16905060005b8381101561433957818b828151811061431b5761431b615ae8565b602002602001015103156143395761433281615baf565b9050614300565b83810361477157818b8961434c81615baf565b9a508151811061435e5761435e615ae8565b60200260200101818152505060006005838154811061437f5761437f615ae8565b6000918252602091829020604080516101008101909152600990920201805460ff16825260018101805492939192918401916143ba90615afe565b80601f01602080910402602001604051908101604052809291908181526020018280546143e690615afe565b80156144335780601f1061440857610100808354040283529160200191614433565b820191906000526020600020905b81548152906001019060200180831161441657829003601f168201915b5050505050815260200160028201805461444c90615afe565b80601f016020809104026020016040519081016040528092919081815260200182805461447890615afe565b80156144c55780601f1061449a576101008083540402835291602001916144c5565b820191906000526020600020905b8154815290600101906020018083116144a857829003601f168201915b505050505081526020016003820180546144de90615afe565b80601f016020809104026020016040519081016040528092919081815260200182805461450a90615afe565b80156145575780601f1061452c57610100808354040283529160200191614557565b820191906000526020600020905b81548152906001019060200180831161453a57829003601f168201915b50505050508152602001600482016040518060400160405290816000820154815260200160018201805480602002602001604051908101604052809291908181526020016000905b8282101561464b5783829060005260206000200180546145be90615afe565b80601f01602080910402602001604051908101604052809291908181526020018280546145ea90615afe565b80156146375780601f1061460c57610100808354040283529160200191614637565b820191906000526020600020905b81548152906001019060200180831161461a57829003601f168201915b50505050508152602001906001019061459f565b50505091525050815260068201546001600160a01b0316602080830191909152600783018054604080518285028101850182528281529401939260009084015b828210156147375783829060005260206000200180546146aa90615afe565b80601f01602080910402602001604051908101604052809291908181526020018280546146d690615afe565b80156147235780601f106146f857610100808354040283529160200191614723565b820191906000526020600020905b81548152906001019060200180831161470657829003601f168201915b50505050508152602001906001019061468b565b505050508152602001600882015481525050905061475b81602001518e8e8c6141f0565b985061476d8160c001518e8e8c6147a3565b9850505b50508061477d90615baf565b90506142d0565b505050508061479290615baf565b90506141f5565b5095945050505050565b600081815b8651811015614799576147d68782815181106147c6576147c6615ae8565b60200260200101518787856141f0565b91506147e181615baf565b90506147a8565b604051806101000160405280600060ff168152602001606081526020016060815260200160608152602001614833604051806040016040528060008019168152602001606081525090565b815260200160006001600160a01b0316815260200160608152602001600081525090565b82805461486390615afe565b90600052602060002090601f01602090048101928261488557600085556148cb565b82601f1061489e57805160ff19168380011785556148cb565b828001600101855582156148cb579182015b828111156148cb5782518255916020019190600101906148b0565b506148d79291506149c7565b5090565b828054828255906000526020600020908101928215614928579160200282015b828111156149285782518051614918918491602090910190614857565b50916020019190600101906148fb565b506148d79291506149dc565b828054828255906000526020600020908101928215614981579160200282015b828111156149815782518051614971918491602090910190614857565b5091602001919060010190614954565b506148d79291506149f9565b8280548282559060005260206000209081019282156148cb57916020028201828111156148cb5782518255916020019190600101906148b0565b5b808211156148d757600081556001016149c8565b808211156148d75760006149f08282614a16565b506001016149dc565b808211156148d7576000614a0d8282614a16565b506001016149f9565b508054614a2290615afe565b6000825580601f10614a32575050565b601f016020900490600052602060002090810190614a5091906149c7565b50565b634e487b7160e01b600052604160045260246000fd5b6040805190810167ffffffffffffffff81118282101715614a8c57614a8c614a53565b60405290565b60405160a0810167ffffffffffffffff81118282101715614a8c57614a8c614a53565b604051610100810167ffffffffffffffff81118282101715614a8c57614a8c614a53565b604051601f8201601f1916810167ffffffffffffffff81118282101715614b0257614b02614a53565b604052919050565b600067ffffffffffffffff831115614b2457614b24614a53565b614b37601f8401601f1916602001614ad9565b9050828152838383011115614b4b57600080fd5b828260208301376000602084830101529392505050565b600082601f830112614b7357600080fd5b614b8283833560208501614b0a565b9392505050565b803560ff81168114614b9a57600080fd5b919050565b600067ffffffffffffffff821115614bb957614bb9614a53565b5060051b60200190565b60006040808385031215614bd657600080fd5b614bde614a69565b91508235825260208084013567ffffffffffffffff80821115614c0057600080fd5b818601915086601f830112614c1457600080fd5b8135614c27614c2282614b9f565b614ad9565b81815260059190911b83018401908481019089831115614c4657600080fd5b8585015b83811015614c9257803585811115614c625760008081fd5b8601603f81018c13614c745760008081fd5b614c848c898301358b8401614b0a565b845250918601918601614c4a565b5080868901525050505050505092915050565b600082601f830112614cb657600080fd5b81356020614cc6614c2283614b9f565b82815260059290921b84018101918181019086841115614ce557600080fd5b8286015b84811015614db957803567ffffffffffffffff80821115614d0a5760008081fd5b9088019060a0828b03601f1901811315614d245760008081fd5b614d2c614a92565b8784013583811115614d3e5760008081fd5b614d4c8d8a83880101614b62565b82525060408085013584811115614d635760008081fd5b614d718e8b83890101614b62565b8a8401525060609350614d85848601614b89565b908201526080614d96858201614b89565b84830152614da5838601614b89565b908201528652505050918301918301614ce9565b509695505050505050565b60006101008284031215614dd757600080fd5b614ddf614ab5565b9050813567ffffffffffffffff80821115614df957600080fd5b614e0585838601614b62565b8352614e1360208501614b89565b6020840152614e2460408501614b89565b6040840152614e3560608501614b89565b60608401526080840135915080821115614e4e57600080fd5b614e5a85838601614bc3565b608084015260a0840135915080821115614e7357600080fd5b614e7f85838601614ca5565b60a084015260c0840135915080821115614e9857600080fd5b50614ea584828501614ca5565b60c083015250614eb760e08301614b89565b60e082015292915050565b60008060408385031215614ed557600080fd5b823567ffffffffffffffff80821115614eed57600080fd5b614ef986838701614b62565b93506020850135915080821115614f0f57600080fd5b50614f1c85828601614dc4565b9150509250929050565b600060208284031215614f3857600080fd5b813567ffffffffffffffff811115614f4f57600080fd5b614f5b84828501614b62565b949350505050565b60005b83811015614f7e578181015183820152602001614f66565b83811115614f8d576000848401525b50505050565b60008151808452614fab816020860160208601614f63565b601f01601f19169290920160200192915050565b6000604083018251845260208084015160408287015282815180855260608801915060608160051b8901019450838301925060005b8181101561502257605f19898703018352615010868551614f93565b95509284019291840191600101614ff4565b5093979650505050505050565b600081518084526020808501808196508360051b8101915082860160005b85811015615077578284038952615065848351614f93565b9885019893509084019060010161504d565b5091979650505050505050565b805160ff168252600061010060208301518160208601526150a782860182614f93565b915050604083015184820360408601526150c18282614f93565b915050606083015184820360608601526150db8282614f93565b915050608083015184820360808601526150f58282614fbf565b91505060a083015161511260a08601826001600160a01b03169052565b5060c083015184820360c086015261512a828261502f565b91505060e083015160e08501528091505092915050565b602081526000614b826020830184615084565b6000806040838503121561516757600080fd5b50508035926020909101359150565b600082601f83011261518757600080fd5b81356020615197614c2283614b9f565b82815260059290921b840181019181810190868411156151b657600080fd5b8286015b84811015614db957803567ffffffffffffffff8111156151da5760008081fd5b6151e88986838b0101614b62565b8452509183019183016151ba565b80356001600160a01b0381168114614b9a57600080fd5b600082601f83011261521e57600080fd5b8135602061522e614c2283614b9f565b82815260059290921b8401810191818101908684111561524d57600080fd5b8286015b84811015614db957803567ffffffffffffffff8111156152715760008081fd5b61527f8986838b0101614dc4565b845250918301918301615251565b6000806000606084860312156152a257600080fd5b833567ffffffffffffffff808211156152ba57600080fd5b6152c687838801615176565b945060208601359150808211156152dc57600080fd5b9085019061010082880312156152f157600080fd5b6152f9614ab5565b61530283614b89565b815260208301358281111561531657600080fd5b61532289828601614b62565b60208301525060408301358281111561533a57600080fd5b61534689828601614b62565b60408301525060608301358281111561535e57600080fd5b61536a89828601614b62565b60608301525060808301358281111561538257600080fd5b61538e89828601614bc3565b6080830152506153a060a084016151f6565b60a082015260c0830135828111156153b757600080fd5b6153c389828601615176565b60c08301525060e083013560e08201528094505060408601359150808211156153eb57600080fd5b506153f88682870161520d565b9150509250925092565b600082601f83011261541357600080fd5b81356020615423614c2283614b9f565b82815260059290921b8401810191818101908684111561544257600080fd5b8286015b84811015614db957615457816151f6565b8352918301918301615446565b803563ffffffff81168114614b9a57600080fd5b60008060006060848603121561548d57600080fd5b833567ffffffffffffffff808211156154a557600080fd5b6154b187838801614b62565b945060208601359150808211156154c757600080fd5b506154d486828701615402565b9250506154e360408501615464565b90509250925092565b600081518084526020808501808196508360051b8101915082860160005b85811015615077578284038952615522848351615084565b9885019893509084019060010161550a565b602081526000614b8260208301846154ec565b60006020828403121561555957600080fd5b5035919050565b602081526000614b826020830184614f93565b6000806040838503121561558657600080fd5b61558f836151f6565b946020939093013593505050565b600080600080600060a086880312156155b557600080fd5b853567ffffffffffffffff808211156155cd57600080fd5b6155d989838a01614b62565b965060208801359150808211156155ef57600080fd5b506155fc88828901614b62565b94505061560b60408701614b89565b925061561960608701614b89565b915061562760808701614b89565b90509295509295909350565b600081518084526020808501808196508360051b8101915082860160005b85811015615077578284038952815160a0815181875261567382880182614f93565b915050868201518682038888015261568b8282614f93565b60408481015160ff908116918a01919091526060808601518216908a015260809485015116939097019290925250509784019790840190600101615651565b60408152600083516101008060408501526156e9610140850183614f93565b915060208601516156ff606086018260ff169052565b50604086015160ff8116608086015250606086015160ff811660a0860152506080860151603f19808685030160c087015261573a8483614fbf565b935060a08801519150808685030160e08701526157578483615633565b935060c08801519150808685030183870152506157748382615633565b9250505060e085015161578d61012085018260ff169052565b5060ff841660208401529050614b82565b600080600080608085870312156157b457600080fd5b6157bd85615464565b9350602085013567ffffffffffffffff808211156157da57600080fd5b6157e688838901614b62565b945060408701359150808211156157fc57600080fd5b61580888838901614b62565b9350606087013591508082111561581e57600080fd5b5061582b87828801614bc3565b91505092959194509250565b60ff8816815260e06020820152600061585360e0830189614f93565b82810360408401526158658189614f93565b905082810360608401526158798188614f93565b9050828103608084015261588d8187614fbf565b6001600160a01b039590951660a0840152505060c0015295945050505050565b600080604083850312156158c057600080fd5b823567ffffffffffffffff808211156158d857600080fd5b6158e486838701614b62565b935060208501359150808211156158fa57600080fd5b50614f1c85828601614b62565b60008060006060848603121561591c57600080fd5b833567ffffffffffffffff81111561593357600080fd5b61593f86828701614b62565b93505061594e602085016151f6565b9150604084013590509250925092565b87815260e06020820152600061597760e0830189614f93565b60ff8816604084015260ff8716606084015260ff8616608084015282810360a08401526159a48186614fbf565b91505060ff831660c083015298975050505050505050565b600080604083850312156159cf57600080fd5b823567ffffffffffffffff808211156159e757600080fd5b6159f386838701615176565b93506020850135915080821115615a0957600080fd5b50614f1c8582860161520d565b600060208284031215615a2857600080fd5b614b82826151f6565b600080600060608486031215615a4657600080fd5b833567ffffffffffffffff80821115615a5e57600080fd5b6154b187838801615176565b6000602080830181845280855180835260408601915060408160051b870101925083870160005b82811015615abf57603f19888603018452615aad8583516154ec565b94509285019290850190600101615a91565b5092979650505050505050565b60008251615ade818460208701614f63565b9190910192915050565b634e487b7160e01b600052603260045260246000fd5b600181811c90821680615b1257607f821691505b602082108103615b3257634e487b7160e01b600052602260045260246000fd5b50919050565b634e487b7160e01b600052601160045260246000fd5b600082821015615b6057615b60615b38565b500390565b60008351615b77818460208801614f63565b60609390931b7fffffffffffffffffffffffffffffffffffffffff000000000000000000000000169190920190815260140192915050565b600060018201615bc157615bc1615b38565b5060010190565b606081526000615bdb606083018661502f565b90506001600160a01b038416602083015263ffffffff83166040830152949350505050565b60008651615c12818460208b01614f63565b865190830190615c26818360208b01614f63565b7fff0000000000000000000000000000000000000000000000000000000000000060f897881b81169190920190815294861b811660018601529290941b9091166002830152506003019392505050565b634e487b7160e01b600052603160045260246000fd5b60008351615c9e818460208801614f63565b835190830190615cb2818360208801614f63565b01949350505050565b600080835481600182811c915080831680615cd757607f831692505b60208084108203615cf657634e487b7160e01b86526022600452602486fd5b818015615d0a5760018114615d1b57615d48565b60ff19861689528489019650615d48565b60008a81526020902060005b86811015615d405781548b820152908501908301615d27565b505084890196505b50949897505050505050505056fea2646970667358221220e672b83926965f269dac882098b5b018907f7899556f8c9a42a526249e399be164736f6c634300080d0033",
  "linkReferences": {},
  "deployedLinkReferences": {}
}